:1012AD004B4559322055700A004B45593220446F39
:0412BD00776D0A003F
:10127D007523027522037B007A007922E4FF1208A0
:07128D00CC53C9E153CAE193
:011294002237
:1011E9007522407523017527007526C2752501757D
:1011F9002400752901E4F52AFB7A0079227F01127E
:0C12090000967D017F0112114053A23FAE
:0112150022B6
:1011B50012127D1211E9D2AF30C904C28180052017
:1011C500C902D28130CA0DC2807BFF7A1279AD1275
:1011D50005D280E420CAE1D2807BFF7A1279B6126B
:0411E50005D280D4DB
:0F130D007D607C09ED1D70011C144C70F7DFF141
:01131C0022AE
:1008CC00EFD3940740037FFF22120B20FED3940337
:1008DC0040037FFF22EF7041EE700B900001120B72
:1008EC0039F452935294120B20B4010B9000011264
:1008FC000B394293F45294120B20FEB4020A90006E
:10090C0001120B3942934294EEB4030D9000011284
:10091C000B39FEF45293EE4294EF64017043120BC8
:10092C0020FE700B900001120B39F452915292EE92
:10093C00B4010B900001120B394291F45292120B3C
:10094C0020B4020A900001120B3942914292120B10
:10095C0020B4030D900001120B39FEF45291EE42BB
:10096C0092EF64027043120B20FE700B9000011288
:10097C000B39F452955296EEB4010B900001120B08
:10098C00394295F45296120B20B4020A90000112CF
:10099C000B3942954296120B20B4030D90000112B4
:1009AC000B39FEF45295EE4296EF64037043120B32
:1009BC0020FE700B900001120B39F452B152B2EEC2
:1009CC00B4010B900001120B3942B1F452B2120B6C
:1009DC0020B4020A900001120B3942B142B2120B40
:1009EC0020B4030D900001120B39FEF452B1EE420B
:1009FC00B2EF64047043120B20FE700B90000112D6
:100A0C000B39F452B352B4EEB4010B900001120B3B
:100A1C003942B3F452B4120B20B4020A9000011202
:100A2C000B3942B342B4120B20B4030D90000112E7
:100A3C000B39FEF452B3EE42B4EF64057043120B63
:100A4C0020FE700B900001120B39F452C952CAEE01
:100A5C00B4010B900001120B3942C9F452CA120BAB
:100A6C0020B4020A900001120B3942C942CA120B7F
:100A7C0020B4030D900001120B39FEF452C9EE4262
:100A8C00CAEF64067043120B20FE700B900001122B
:100A9C000B39F452CB52CCEEB4010B900001120B7B
:100AAC003942CBF452CC120B20B4020A9000011242
:100ABC000B3942CB42CC120B20B4030D9000011227
:100ACC000B39FEF452CBEE42CCEF64077043120BA1
:100ADC0020FF700B900001120B39F452E152E2EF3F
:100AEC00B4010B900001120B3942E1F452E2120BEB
:100AFC0020B4020A900001120B3942E142E2120BBF
:100B0C0020B4030D900001120B39FFF452E1EF42B7
:040B1C00E27F002252
:10100A00EFD3940140037FFF22EDD3940340037F83
:10101A00FF22EF7004C2A98002D2A9ED700553B76E
:10102A00FDC2B9BD010553B7FDD2B9BD020543B72B
:0E103A0002C2B9BD030543B702D2B97F00223E
:10104800EFD3940140037FFF22EDD3940340037F45
:10105800FF22EF7004C2AB8002D2ABED700553B72C
:10106800F7C2BBBD010553B7F7D2BBBD020543B7F5
:0E10780008C2BBBD030543B708D2BB7F0022F0
:10123900EFD3940140037FFF22EDD3940340037F52
:10124900FF22EF25E025E0FFE5AF54FB4FF5AFE4C2
:02125900FF2272
:10125B00EFD3940140037FFF22EDD3940340037F30
:10126B00FF22EFC43354E0FFE5AF54DF4FF5AFE49B
:02127B00FF2250
:10121600EFD3940140037FFF22EDD3940340037F75
:10122600FF22EFC4333354C0FFE5AF54BF4FF5AFD1
:03123600E4FF22B0
:10108600EFD3940140037FFF22EDD3940340037F07
:10109600FF22EF7004C2A88002D2A8ED700553B7F4
:1010A600FEC2B8BD010553B7FED2B8BD020543B7AF
:0E10B60001C2B8BD030543B701D2B87F0022C6
:1010C400EFD3940140037FFF22EDD3940340037FC9
:1010D400FF22EF7004C2AA8002D2AAED700553B7B2
:1010E400FBC2BABD010553B7FBD2BABD020543B773
:0E10F40004C2BABD030543B704D2BA7F00227E
:10129500EFD3940140037FFF22EFC454F0FFE58FA5
:0812A50054EF4FF58FE4FF2226
:10002600EFD3940140037FFF22EFC43354E0FFE592
:090036008F54DF4FF58FE4FF2227
:10000300EFD3940140037FFF22EFC4333354C0FF87
:0A001300E58F54BF4FF58FE4FF2284
:10110200EFD3940140037FFF22EDD3940340037F8A
:10111200FF22EF7004C2AD8002D2ADED700553B76D
:10112200DFC2BDBD010553B7DFD2BDBD020543B766
:0E11320020C2BDBD030543B720D2BD7F002201
:100EB400EDD3940340037FFF22EF30E10543E620A6
:100EC400800353E6DFEF30E00543E610800353E68A
:100ED400EFED700653B6DF53B5DFBD010653B6DF41
:100EE40043B520BD020643B62053B5DFBD03064318
:080EF400B62043B5207F002267
:100D8000EFD3940140037FFF22EBD3940340037F12
:100D9000FF22BF0112ED90FE817006E0547FF080CB
:100DA00011E04480F0800BEF700890FE83E05487E0
:100DB0004DF0EB700653B6DF53B5DFBB010653B6FB
:100DC000DF43B520BB020643B62053B5DFBB0306A5
:090DD00043B62043B5207F002248
:10114000EFD3940140037FFF22EDD3940340037F4C
:10115000FF22EF7004C2AC8002D2ACED700553B731
:10116000EFC2BCBD010553B7EFD2BCBD020543B70A
:0E11700010C2BCBD030543B710D2BC7F0022E5
:100FCA00EFD3940140037FFF22EDD3940340037FC4
:100FDA00FF22E5AF54FE4FF5AFED700653B6FE5350
:100FEA00B5FEBD010653B6FE43B501BD020643B6C2
:100FFA000153B5FEBD030643B60143B5017F002286
:100EFC00EFD3940140037FFF22EDD3940340037F93
:100F0C00FF22EF33333354F8FFE5AF54F74FF5AF0F
:100F1C00ED700653EEFE53DFFEBD010653EEFE43AD
:100F2C00DF01BD020643EE0153DFFEBD030643EEB7
:070F3C000143DF017F0022E9
:10004600EFD3940140037FFF22EDD3940340037F57
:10005600FF22EFC454F0FFE5AF54EF4FF5AFED705C
:100066000653EEFD53DFFDBD010653EEFD43DF02F1
:10007600BD020643EE0253DFFDBD030643EE024317
:05008600DF027F0022F3
:100F4300EFD3940140037FFF22EDD3940340037F4B
:100F5300FF22EF25E0FFE5AF54FD4FF5AFED70063F
:100F630053B6FD53B5FDBD010653B6FD43B502BDF2
:100F7300020643B60253B5FDBD030643B60243B5AD
:040F8300027F0022C7
:100D0600EFD3948140037FFF22EBD3940340037F0C
:100D1600FF22EF247F603004705890FEC4EDF0EBA4
:100D2600700653B6FB53B5FBBB010653B6FB43B582
:100D360004BB020643B60453B5FBEB6403703843A9
:100D4600B60443B504803090FEE4EDF0EB70065334
:100D5600B6F753B5F7BB010653B6F743B508BB0262
:100D66000643B60853B5F7BB030D43B60843B508AB
:0A0D7600800590FEE4EDF07F0022FE
:10117E00EDD394035026ED700653EEFB53DFFBBD0B
:10118E00010653EEFB43DF04BD020643EE0453DFBC
:10119E00FBBD030B43EE0443DF0480037FFF22906D
:0711AE00FE62EFF07F00225A
:080096008F2B8B2C8A2D892E83
:10009E00E52B6401600302020CF508F509F50AF57B
:1000AE000BF50CF52FF53074402530F582740135C3
:1000BE002FF583E4F00530E5307002052F6480459E
:1000CE002F70E4E4F52FF53074002530F5827400BE
:1000DE00352FF583E4F00530E5307002052F64808E
:1000EE00452F70E4AB2CAA2DA92E120B20FFE598FC
:1000FE00543F4FF598EF64C06008EF644060030210
:10010E0001C1900002120C587F807E8D7D5B7C00B9
:10011E00120BA28F348E338D328C31E4FFFE7D01B3
:10012E00FCAB34AA33A932A831C3120C3440037F7E
:10013E00FF22C3E49534F534E49533F53374019519
:10014E0032F532E49531F531AB2CAA2DA92E900063
:10015E0001120B39FB6401702CC28E538EFE538933
:10016E00BF5389CF438E40AF34AE33AD32AC31780E
:10017E0008120C458F8D85348BC2AB5389BF538FBC
:10018E00FDD28E8062EB64027026538EEF438E0199
:10019E00538EF7438E04AF34AE33AD32AC317808A4
:1001AE00120C458FD68534D753AFFB438E10803754
:1001BE007FFF22AB2CAA2DA92E120B20FF701390BD
:1001CE000008120B39B40105438E20801A538EDFBE
:1001DE008015EFB48011900008120B39B40105435D
:1001EE008780800353877FAB2CAA2DA92E90000702
:1001FE00120B397004C29C8002D29C7F0022E52B28
:10020E0064026003020305F50DF50EF50FF510F50A
:10021E0011F52FF53074E02530F5827401352FF588
:10022E0083E4F00530E5307002052F6480452F70B1
:10023E00E4E4F52FF53074802530F5827400352F07
:10024E00F583E4F00530E5307002052F6480452F0C
:10025E0070E4AB2CAA2DA92E120B20FF64C06005F2
:10026E00EF64407075EFB4C005439A808003539AD3
:10027E007F900002120C587F807E8D7D5B7C001279
:10028E000BA28F348E338D328C31E4FFFE7D01FC58
:10029E00AB34AA33A932A831C3120C3440037FFF0A
:1002AE0022C3E49534F534E49533F5337401953275
:1002BE00F532E49531F531538EEF538EF7438E04BC
:1002CE00AF34AE33AD32AC317808120C458FD685D3
:1002DE0034D753AFFB438E1080037FFF22AB2CAA83
:1002EE002DA92E900007120B39C454F0FFE59A5435
:1002FE00EF4FF59A7F0022E52B6403600302043969
:10030E00F512F513F514F515F516F52FF530746095
:10031E002530F5827402352FF583E4F00530E53093
:10032E007002052F6440452F70E4E4F52FF530740C
:10033E00002530F5827401352FF583E4F00530E5A4
:10034E00307002052F6440452F70E4AB2CAA2DA906
:10035E002E120B20FF64C06008EF6440600302049D
:10036E001CEFB4C00543AC80800353AC7F900002F9
:10037E00120C587F807E8D7D5B7C00120BA28F3419
:10038E008E338D328C31E4FFFE7D01FCAB34AA330B
:10039E00A932A831C3120C3440037FFF22C3E49567
:1003AE0034F534E49533F53374019532F532E49532
:1003BE0031F531AB2CAA2DA92E900001120B39FB71
:1003CE00B4031D43AC40AF34AE33AD32AC3178081C
:1003DE00120C458FD48534D553D1F043D10A8031D8
:1003EE00EB64027026538EEF53ACBF538EF7438EE1
:1003FE0004AF34AE33AD32AC317808120C458FD623
:10040E008534D753AFFB438E1080067FFF227FFFCC
:10041E0022AB2CAA2DA92E900007120B39C454F032
:10042E00FFE5AC54EF4FF5AC7F0022E52B64046082
:10043E000302056DF517F518F519F51AF51BF52FCD
:10044E00F53074A02530F5827402352FF583E4F073
:10045E000530E5307002052F6420452F70E4E4F579
:10046E002FF53074C02530F5827401352FF583E4F5
:10047E00F00530E5307002052F6420452F70E4AB97
:10048E002CAA2DA92E120B20FF64C06008EF644029
:10049E006003020550EFB4C005438480800353848B
:1004AE007F900002120C587F807E8D7D5B7C001247
:1004BE000BA28F348E338D328C31E4FFFE7D01FC26
:1004CE00AB34AA33A932A831C3120C3440037FFFD8
:1004DE0022C3E49534F534E49533F5337401953243
:1004EE00F532E49531F531AB2CAA2DA92E900001F1
:1004FE00120B39FBB4041D438440AF34AE33AD321E
:10050E00AC317808120C458FD28534D353D10F43BA
:10051E00D1A08031EB64027026538EEF5384BF530B
:10052E008EF7438E04AF34AE33AD32AC3178081251
:10053E000C458FD68534D753AFFB438E1080067F84
:10054E00FF227FFF22AB2CAA2DA92E900007120BA3
:10055E0039C454F0FFE58454EF4FF5847F00227FB9
:01056E00FF8D
:01056F002269
:0A1329008F99750A01E50A70FC2295
:1012C100120B20FF600C121329740129F9E43AFA78
:0312D10080EE228A
:0A1333008F9B750F01E50F70FC227F
:1012D400120B20FF600C121333740129F9E43AFA5B
:0312E40080EE2277
:0A133D008FAD751401E51470FC2259
:1012E700120B20FF600C12133D740129F9E43AFA3E
:0312F70080EE2264
:0A1347008F85751901E51970FC226D
:1012FA00120B20FF600C121347740129F9E43AFA21
:03130A0080EE2250
:05001D00AE07021329EB
:03002300020F8742
:100F8700C0E0C083C082C0D075D000C007309820B1
:100F9700C298E50BC394804003750B00AF0B050B9C
:100FA70074002FF582E43400F583E599F0750C059C
:100FB700309905C299750A00D007D0D0D082D08366
:030FC700D0E03245
:03004300020DD9D2
:100DD900C0E0C083C082C0D075D000C007E59A309A
:100DE900E021539AFEE510C394804003751000AFCB
:100DF90010051074802FF582E43400F583E59BF02B
:100E0900751105E59A30E106539AFD750F00D00773
:090E1900D0D0D082D083D0E032A9
:03008B00020E2240
:100E2200C0E0C083C082C0D075D000C007E5AC303E
:100E3200E02153ACFEE515C394404003751500AFA5
:100E420015051574002FF582E43401F583E5ADF044
:100E5200751605E5AC30E10653ACFD751400D007FC
:090E6200D0D0D082D083D0E03260
:03009300020E6BEF
:100E6B00C0E0C083C082C0D075D000C007E584301D
:100E7B00E0215384FEE51AC394204003751A00AF9A
:100E8B001A051A74C02FF582E43401F583E585F059
:100E9B00751B05E58430E1065384FD751900D007F9
:090EAB00D0D0D082D083D0E03217
:0300000002131DCB
:0C131D00787FE4F6D8FD7581350211B52B
:100B2000BB010689828A83E0225002E722BBFE02D3
:090B3000E32289828A83E4932206
:100B3900BB010CE58229F582E5833AF583E0225071
:100B490006E92582F8E622BBFE06E92582F8E222BB
:0D0B5900E58229F582E5833AF583E49322D5
:100B660075F008758200EF2FFFEE33FECD33CDCC46
:100B760033CCC58233C5829BED9AEC99E5829840C9
:100B86000CF582EE9BFEED9AFDEC99FC0FD5F0D6A6
:100B9600E4CEFBE4CDFAE4CCF9A88222B800C1B9D0
:100BA6000059BA002DEC8BF084CFCECDFCE5F0CB0E
:100BB600F97818EF2FFFEE33FEED33FDEC33FCEB47
:100BC60033FB10D703994004EB99FB0FD8E5E4F902
:100BD600FA227818EF2FFFEE33FEED33FDEC33FCEF
:100BE600C933C910D7059BE99A4007EC9BFCE99AE3
:100BF600F90FD8E0E4C9FAE4CCFB2275F010EF2F28
:100C0600FFEE33FEED33FDCC33CCC833C810D70727
:100C16009BEC9AE899400AED9BFDEC9AFCE899F862
:0E0C26000FD5F0DAE4CDFBE4CCFAE4C8F922F5
:100C3400EB9FF5F0EA9E42F0E99D42F0E89C45F016
:010C4400228D
:100C4500E8600FECC313FCED13FDEE13FEEF13FF8D
:030C5500D8F122B1
:100C5800BB010DE58229F582E5833AF583020CA7ED
:100C68005007E92582F8020C9ABBFE07E92582F8AD
:100C7800020CB3E58229F582E5833AF583020CC0BC
:10057000E5312425F8E60531227822300702782576
:10058000E475F001120CD0020B202000EB7F2ED27C
:10059000008018EF540F2490D43440D4FF30040B63
:1005A000EF24BFB41A0050032461FFE53260021546
:1005B000320535E5357002053430070D7822E475D3
:1005C000F001120CD0EF020C8802001D7403D20758
:1005D0008003E4C207F5318B228A238924E4F532B3
:1005E000F534F535E53260077F201205AB80F575EF
:1005F00033FFC201C200C202C203C205C206C20862
:10060000120579FF700D3007057F001205BCAF356C
:10061000AE3422B4255FC2D5C204120579FF24D0BE
:10062000B40A00501A75F00A783230D50508B6FFC2
:100630000106C6A426F620D5047002D20380D92470
:10064000CFB41A00EF5004C2E5D2040207BCD201B5
:1006500080C6D20080C0D20280BCD2D580BAD2057A
:1006600080B47F201205AB2002077401B532004030
:10067000F1120570FF1205AB0205E4D208D2068024
:1006800095120570FB120570FA120570F94A4B704D
:1006900006798D7A087BFF20022EE532602A7E00E3
:1006A0008E82758300120B3960060EEE653370F092
:1006B000C2D5EBC0E0EAC0E0E9C0E0EE120803D02A
:1006C000E0F9D0E0FAD0E0FB120B20FF60AAEBC00B
:1006D000E0EAC0E0E9C0E01205ABD0E02401F9D0C7
:1006E000E03400FAD0E0FBE5330460DCD533D98098
:1006F000877BFF7A0779FFD202809C79108002798C
:1007000008C206C2088008D2D5790A8004790AC2D4
:10071000D5E533047002F533E4FAFDFEFF120570EF
:10072000FC7B08200113120570FD7B1030000A12BB
:100730000570FE120570FF7B20EC3382D592D550F8
:1007400013C3E43000069FFFE49EFEE42001039DF6
:10075000FDE49CFCE4CBF8C201EC700CCFCECDCC18
:10076000E824F8F870F38017C3EF33FFEE33FEEDA3
:1007700033FDEC33FCEB33FB994002FB0FD8E9EB84
:10078000300105F8D0E0C448B201C0E00AEC4D4E9B
:100790004F78207B0070C2EAB5330040BCC0E01245
:1007A0000805D0F0D0E0200104C4C0E0C4B201C00C
:1007B000F0120594D0F0D5F0EB0205E4120CE0063F
:1007C000815306FB5806524C064E4206FF4F070760
:0F07D00044070749066743070D5506F14606F132
:1007DF004506F14708AD5006562D065A2E067D2BBD
:1007EF00065E23067B2008962A061648000006752B
:1007FF003F3F3F00790AA2D5200314300509B910F5
:10080F00020404B9080104A2D520060250010420F5
:10081F0002689202B532005034C0E07F20300319D5
:10082F007F30A20272067205500F12085CC202C21C
:10083F0006C205C2087F30800F300503E9C0E01201
:10084F0005AB300503D0E0F9D0E0B532CC30051759
:10085F007F30B9100C1205AB7F583004077F7880BA
:10086F0003B908031205AB3002057F2D0205AB7FDC
:10087F00202008F87F2B2006F322920280CF286ECB
:10088F00756C6C2900D2011205703001F8C2017825
:10089F003230D50108F60206162D5043495812057D
:1008AF00702403B405004001E49008A89312059C3E
:0D08BF00743A12059CD2037532040206FB48
:100C8800BB010689828A83F0225002F722BBFE014B
:020C9800F32245
:0D0C9A00E6FB08E6F908E6FA08E6CBF822CA
:0C0CA700E0F8A3E0F9A3E0FAA3E0FB22D0
:0D0CB300E2FB08E2F908E2FA08E2CBF822C1
:100CC000E493F8740193F9740293FA740393FB228A
:100CD000FAE6FB0808E6F925F0F618E6CA3AF62225
:100CE000D083D082F8E4937012740193700DA3A3A3
:100CF00093F8740193F5828883E4737402936860B7
:060D0000EFA3A3A380DFB6
:00000001FF
