:10114E0025303264CAB13A25303264B7D63A2530EA
:10115E003264C3EB0A00253032642F253032642FFF
:10116E00253032640A007765656B3A25640A002DD6
:10117E002D2D2D2D2D2D2D2D2D2D2D2D2D2D2D2D91
:10118E002D2D2D2D2D2D2D2D2D2D2D000000000062
:03119E000000004E
:1016D80075340C7533027B007A0079337F03020B73
:0116E800D829
:1015E800753501753401E4F53675330DFB7A0079EC
:1015F80033120FFFE4FBFD7F011210F5E5BA54CF5B
:041608004430F5BABB
:01160C0022BB
:100096007533407534017538007537C2753601758C
:1000A6003500753A01E4F53BFB7A0079337F01129E
:0C00B60000C67D017F0112150853A23F17
:0100C200221B
:100E2C007522A275230278247C007D007BFF7A1149
:100E3C00799A7E007F071209CC43BA801216D81219
:100E4C0000961215E8D2AF7B007A0079247538072A
:100E5C00AD23AF22121546E524C4540775F00AA43D
:100E6C00FFE524540F2FF52BE525C4540775F00A24
:100E7C00A4FFE525540F2FF52CE526C4540375F07B
:100E8C000AA4FFE526540F2FF52DE527C45403754E
:100E9C00F00AA4FFE527540F2FF52EE5285407F58B
:100EAC002FE529C4540175F00AA4FFE529540F2F2E
:100EBC00F530E529C41313135401FDE52AC4540F6E
:100ECC0075F00AA4FFAEF0E52A540F7A002FF53224
:100EDC00EA3EF531ED70067E077FD080047E087FF8
:100EEC0034EF2532F532EE3531F5317BFF7A11795D
:100EFC004E753600852D37753800852C39753A00BE
:100F0C00852B3B1206027BFF7A117964853136857D
:100F1C003237753800853039753A00852E3B12060C
:100F2C00027BFF7A117974753600852F3712060211
:100F3C007BFF7A11797D1206027FFA1216E97FFA8D
:100F4C001216E97FFA1216E97FFA1216E9020E530D
:0F16E9007D607C09ED1D70011C144C70F7DFF162
:0116F80022CF
:100BD800EFD3940740037FFF221209F2FED3940358
:100BE80040037FFF22EF7041EE700B900001120A64
:100BF8000BF4529352941209F2B4010B90000112B3
:100C08000A0B4293F452941209F2FEB4020A9000BD
:100C180001120A0B42934294EEB4030D90000112A4
:100C28000A0BFEF45293EE4294EF640170431209EA
:100C3800F2FE700B900001120A0BF452915292EEE0
:100C4800B4010B900001120A0B4291F4529212095E
:100C5800F2B4020A900001120A0B42914292120960
:100C6800F2B4030D900001120A0BFEF45291EE4209
:100C780092EF640270431209F2FE700B90000112A9
:100C88000A0BF452955296EEB4010B900001120A29
:100C98000B4295F452961209F2B4020A900001121E
:100CA8000A0B429542961209F2B4030D9000011204
:100CB8000A0BFEF45295EE4296EF64037043120954
:100CC800F2FE700B900001120A0BF452B152B2EE10
:100CD800B4010B900001120A0B42B1F452B212098E
:100CE800F2B4020A900001120A0B42B142B2120990
:100CF800F2B4030D900001120A0BFEF452B1EE4259
:100D0800B2EF640470431209F2FE700B90000112F6
:100D18000A0BF452B352B4EEB4010B900001120A5C
:100D28000B42B3F452B41209F2B4020A9000011251
:100D38000A0B42B342B41209F2B4030D9000011237
:100D48000A0BFEF452B3EE42B4EF64057043120985
:100D5800F2FE700B900001120A0BF452C952CAEE4F
:100D6800B4010B900001120A0B42C9F452CA1209CD
:100D7800F2B4020A900001120A0B42C942CA1209CF
:100D8800F2B4030D900001120A0BFEF452C9EE42B0
:100D9800CAEF640670431209F2FE700B900001124C
:100DA8000A0BF452CB52CCEEB4010B900001120A9C
:100DB8000B42CBF452CC1209F2B4020A9000011291
:100DC8000A0B42CB42CC1209F2B4030D9000011277
:100DD8000A0BFEF452CBEE42CCEF640770431209C3
:100DE800F2FF700B900001120A0BF452E152E2EF8D
:100DF800B4010B900001120A0B42E1F452E212090D
:100E0800F2B4020A900001120A0B42E142E212090E
:100E1800F2B4030D900001120A0BFFF452E1EF4205
:040E2800E27F002243
:100FFF00900002120A0B6401702A90FE80E04440B8
:10100F00F090FE82E4F01209F2543FFF90FE80E070
:10101F0054C04FF0900003120A0B90FE88B40102E7
:10102F008031802990FE80E054BFF090FE84E4F080
:10103F00900004120A0B25E0FF90FE85E054014F4B
:10104F00F0900005120A0B90FE85B40106E054FEE5
:10105F00F08004E04401F0900001120A0B90FE8032
:0C106F007005E0547FF022E04480F02285
:0817A10090FE82E05480FF225B
:0C174F0090FE82E030E6F9E054BFF0228A
:09178F0090FE817401F002174F75
:0E17260090FE86EFF090FE817402F002174FE5
:0616F90012178F121726E4
:0916FF0090FE817403F002174F04
:0F17080090FE817404F012174F90FE87E0FF22CD
:0E17340090FE82E4F090FE817405F002174FE3
:0F17170090FE827401F090FE817405F002174F6E
:0917980090FE817406F002174F67
:0D17420090FE86EDF090FE81EFF002174F53
:1015B7008B498A4A894BAE051216F9AF06121726D0
:1015C7001216FFAB49054BE54BAA4A7002054A14B0
:1015D700F91209F2FF1217261216FFD54CE502176A
:0115E700986B
:10154600AE071216F9AF051217261216FF12178FDD
:10155600EE4401FF1217261216FF121708EF120AA1
:1015660038740129F9E43AFAE53864016003121780
:0A15760034D538E612171702179853
:0300C300020F5CCD
:100F5C00C0E0C083C082C0D075D000C006C007906E
:100F6C00FE84E030E606E054BFF0807A90FE84E028
:100F7C0030E535E054DFF0E51D6005751D00806639
:100F8C00E51C600D751C0090FE87E0F51E24C080EA
:100F9C003490FE87E0FFAE1E051E74C02EF582E471
:100FAC003402F583EFF0803E90FE84E030E424E0E0
:100FBC0054EFF0E030E10890FE8674FFF0802705D6
:100FCC001E74C0251EF582E43402F583E090FE8683
:100FDC00F0801390FE84E030E30CE054F7F0751DC4
:100FEC0001751C01D209D007D006D0D0D082D08395
:030FFC00D0E03210
:1013D200EFD3940140037FFF22EDD3940340037FB8
:1013E200FF22EF7004C2A98002D2A9ED700553B7A3
:1013F200FDC2B9BD010553B7FDD2B9BD020543B760
:0E14020002C2B9BD030543B702D2B97F002272
:10141000EFD3940140037FFF22EDD3940340037F79
:10142000FF22EF7004C2AB8002D2ABED700553B760
:10143000F7C2BBBD010553B7F7D2BBBD020543B729
:0E14400008C2BBBD030543B708D2BB7F002224
:10163000EFD3940140037FFF22EDD3940340037F57
:10164000FF22EF25E025E0FFE5AF54FB4FF5AFE4C7
:02165000FF2277
:10165200EFD3940140037FFF22EDD3940340037F35
:10166200FF22EFC43354E0FFE5AF54DF4FF5AFE4A0
:02167200FF2255
:10160D00EFD3940140037FFF22EDD3940340037F7A
:10161D00FF22EFC4333354C0FFE5AF54BF4FF5AFD6
:03162D00E4FF22B5
:10144E00EFD3940140037FFF22EDD3940340037F3B
:10145E00FF22EF7004C2A88002D2A8ED700553B728
:10146E00FEC2B8BD010553B7FED2B8BD020543B7E3
:0E147E0001C2B8BD030543B701D2B87F0022FA
:10148C00EFD3940140037FFF22EDD3940340037FFD
:10149C00FF22EF7004C2AA8002D2AAED700553B7E6
:1014AC00FBC2BABD010553B7FBD2BABD020543B7A7
:0E14BC0004C2BABD030543B704D2BA7F0022B2
:10167400EFD3940140037FFF22EFC454F0FFE58FC2
:0816840054EF4FF58FE4FF2243
:10002600EFD3940140037FFF22EFC43354E0FFE592
:090036008F54DF4FF58FE4FF2227
:10000300EFD3940140037FFF22EFC4333354C0FF87
:0A001300E58F54BF4FF58FE4FF2284
:1014CA00EFD3940140037FFF22EDD3940340037FBF
:1014DA00FF22EF7004C2AD8002D2ADED700553B7A2
:1014EA00DFC2BDBD010553B7DFD2BDBD020543B79B
:0E14FA0020C2BDBD030543B720D2BD7F002236
:10127C00EDD3940340037FFF22EF30E10543E620DA
:10128C00800353E6DFEF30E00543E610800353E6BE
:10129C00EFED700653B6DF53B5DFBD010653B6DF75
:1012AC0043B520BD020643B62053B5DFBD0306434C
:0812BC00B62043B5207F00229B
:1010F500EFD3940140037FFF22EBD3940340037F9A
:10110500FF22BF0112ED90FE817006E0547FF08052
:1011150011E04480F0800BEF700890FE83E0548767
:101125004DF0EB700653B6DF53B5DFBB010653B682
:10113500DF43B520BB020643B62053B5DFBB03062C
:0911450043B62043B5207F0022CF
:10150800EFD3940140037FFF22EDD3940340037F80
:10151800FF22EF7004C2AC8002D2ACED700553B765
:10152800EFC2BCBD010553B7EFD2BCBD020543B73E
:0E15380010C2BCBD030543B710D2BC7F002219
:10139200EFD3940140037FFF22EDD3940340037FF8
:1013A200FF22E5AF54FE4FF5AFED700653B6FE5384
:1013B200B5FEBD010653B6FE43B501BD020643B6F6
:1013C2000153B5FEBD030643B60143B5017F0022BA
:1012C400EFD3940140037FFF22EDD3940340037FC7
:1012D400FF22EF33333354F8FFE5AF54F74FF5AF44
:1012E400ED700653EEFE53DFFEBD010653EEFE43E2
:1012F400DF01BD020643EE0153DFFEBD030643EEEC
:071304000143DF017F00221D
:10004600EFD3940140037FFF22EDD3940340037F57
:10005600FF22EFC454F0FFE5AF54EF4FF5AFED705C
:100066000653EEFD53DFFDBD010653EEFD43DF02F1
:10007600BD020643EE0253DFFDBD030643EE024317
:05008600DF027F0022F3
:10130B00EFD3940140037FFF22EDD3940340037F7F
:10131B00FF22EF25E0FFE5AF54FD4FF5AFED700673
:10132B0053B6FD53B5FDBD010653B6FD43B502BD26
:10133B00020643B60253B5FDBD030643B60243B5E1
:04134B00027F0022FB
:10107B00EFD3948140037FFF22EBD3940340037F94
:10108B00FF22EF247F603004705890FEC4EDF0EB2C
:10109B00700653B6FB53B5FBBB010653B6FB43B50A
:1010AB0004BB020643B60453B5FBEB640370384331
:1010BB00B60443B504803090FEE4EDF0EB700653BC
:1010CB00B6F753B5F7BB010653B6F743B508BB02EA
:1010DB000643B60853B5F7BB030D43B60843B50833
:0A10EB00800590FEE4EDF07F002286
:10158000EDD394035026ED700653EEFB53DFFBBD05
:10159000010653EEFB43DF04BD020643EE0453DFB6
:1015A000FBBD030B43EE0443DF0480037FFF229067
:0715B000FE62EFF07F002254
:0800C6008F3C8B3D8A3E893F0F
:1000CE00E53C6401600302023CF508F509F50AF50A
:1000DE000BF50CF540F54174402541F58274013560
:1000EE0040F583E4F00541E541700205406480452A
:1000FE004070E4E4F540F54174002541F58274004A
:10010E003540F583E4F00541E54170020540648019
:10011E00454070E4AB3DAA3EA93F1209F2FFE598B7
:10012E00543F4FF598EF64C06008EF6440600302DF
:10013E0001F1900002120B3C7F807E8D7D5B7C0076
:10014E00120A868F458E448D438C42E4FFFE7D015C
:10015E00FCAB45AA44A943A842C3120B1840037F27
:10016E00FF22C3E49545F545E49544F544740195A5
:10017E0043F543E49542F542AB3DAA3EA93F9000BC
:10018E0001120A0BFB6401702CC28E538EFE538932
:10019E00BF5389CF438E40AF45AE44AD43AC42789A
:1001AE0008120B298F8D85458BC2AB5389BF538F98
:1001BE00FDD28E8062EB64027026538EEF438E0169
:1001CE00538EF7438E04AF45AE44AD43AC42780830
:1001DE00120B298FD68545D753AFFB438E10803730
:1001EE007FFF22AB3DAA3EA93F1209F2FF7013908A
:1001FE000008120A0BB40105438E20801A538EDFBD
:10020E008015EFB48011900008120A0BB40105435B
:10021E008780800353877FAB3DAA3EA93F9000079E
:10022E00120A0B7004C29C8002D29C7F0022E53C15
:10023E0064026003020335F50DF50EF50FF510F5AA
:10024E0011F540F54174E02541F58274013540F514
:10025E0083E4F00541E5417002054064804540703D
:10026E00E4E4F540F54174802541F5827400354093
:10027E00F583E4F00541E541700205406480454098
:10028E0070E4AB3DAA3EA93F1209F2FF64C06005BF
:10029E00EF64407075EFB4C005439A808003539AA3
:1002AE007F900002120B3C7F807E8D7D5B7C001266
:1002BE000A868F458E448D438C42E4FFFE7D01FC01
:1002CE00AB45AA44A943A842C3120B1840037FFFB3
:1002DE0022C3E49545F545E49544F54474019543F0
:1002EE00F543E49542F542538EEF538EF7438E0459
:1002FE00AF45AE44AD43AC427808120B298FD6857C
:10030E0045D753AFFB438E1080037FFF22AB3DAA30
:10031E003EA93F900007120A0BC454F0FFE59A5411
:10032E00EF4FF59A7F0022E53C64036003020469F7
:10033E00F512F513F514F515F516F540F541746043
:10034E002541F58274023540F583E4F00541E5411F
:10035E00700205406440454070E4E4F540F5417498
:10036E00002541F58274013540F583E4F00541E541
:10037E0041700205406440454070E4AB3DAA3EA981
:10038E003F1209F2FF64C06008EF6440600302048C
:10039E004CEFB4C00543AC80800353AC7F90000299
:1003AE00120B3C7F807E8D7D5B7C00120A868F4512
:1003BE008E448D438C42E4FFFE7D01FCAB45AA4486
:1003CE00A943A842C3120B1840037FFF22C3E49532
:1003DE0045F545E49544F54474019543F543E4959C
:1003EE0042F542AB3DAA3EA93F900001120A0BFB1B
:1003FE00B4031D43AC40AF45AE44AD43AC427808A8
:10040E00120B298FD48545D553D1F043D10A8031B3
:10041E00EB64027026538EEF53ACBF538EF7438EB0
:10042E0004AF45AE44AD43AC427808120B298FD6CB
:10043E008545D753AFFB438E1080067FFF227FFF8B
:10044E0022AB3DAA3EA93F900007120A0BC454F0FE
:10045E00FFE5AC54EF4FF5AC7F0022E53C64046041
:10046E000302059DF517F518F519F51AF51BF5405C
:10047E00F54174A02541F58274023540F583E4F010
:10048E000541E541700205406420454070E4E4F505
:10049E0040F54174C02541F58274013540F583E481
:1004AE00F00541E541700205406420454070E4AB23
:1004BE003DAA3EA93F1209F2FF64C06008EF6440F6
:1004CE006003020580EFB4C005438480800353842B
:1004DE007F900002120B3C7F807E8D7D5B7C001234
:1004EE000A868F458E448D438C42E4FFFE7D01FCCF
:1004FE00AB45AA44A943A842C3120B1840037FFF81
:10050E0022C3E49545F545E49544F54474019543BD
:10051E00F543E49542F542AB3DAA3EA93F9000015A
:10052E00120A0BFBB4041D438440AF45AE44AD43E9
:10053E00AC427808120B298FD28545D353D10F4385
:10054E00D1A08031EB64027026538EEF5384BF53DB
:10055E008EF7438E04AF45AE44AD43AC42780812DD
:10056E000B298FD68545D753AFFB438E1080067F60
:10057E00FF227FFF22AB3DAA3EA93F900007120A41
:10058E000BC454F0FFE58454EF4FF5847F00227FB7
:01059E00FF5D
:01059F002239
:0A1767008F99750A01E50A70FC2253
:10168C001209F2FF600C121767740129F9E43AFA97
:03169C0080EE22BB
:0A1771008F9B750F01E50F70FC223D
:10169F001209F2FF600C121771740129F9E43AFA7A
:0316AF0080EE22A8
:0A177B008FAD751401E51470FC2217
:1016B2001209F2FF600C12177B740129F9E43AFA5D
:0316C20080EE2295
:0A1785008F85751901E51970FC222B
:1016C5001209F2FF600C121785740129F9E43AFA40
:0316D50080EE2282
:05001D00AE07021767A9
:0300230002134F76
:10134F00C0E0C083C082C0D075D000C007309820E5
:10135F00C298E50BC394804003750B00AF0B050BD0
:10136F0074002FF582E43400F583E599F0750C05D0
:10137F00309905C299750A00D007D0D0D082D0839A
:03138F00D0E03279
:030043000211A106
:1011A100C0E0C083C082C0D075D000C007E59A30CE
:1011B100E021539AFEE510C394804003751000AFFF
:1011C10010051074802FF582E43400F583E59BF05F
:1011D100751105E59A30E106539AFD750F00D007A8
:0911E100D0D0D082D083D0E032DE
:03008B000211EA75
:1011EA00C0E0C083C082C0D075D000C007E5AC3073
:1011FA00E02153ACFEE515C394404003751500AFDA
:10120A0015051574002FF582E43401F583E5ADF078
:10121A00751605E5AC30E10653ACFD751400D00730
:09122A00D0D0D082D083D0E03294
:0300930002123323
:10123300C0E0C083C082C0D075D000C007E5843051
:10124300E0215384FEE51AC394204003751A00AFCE
:101253001A051A74C02FF582E43401F583E585F08D
:10126300751B05E58430E1065384FD751900D0072D
:09127300D0D0D082D083D0E0324B
:0300000002175B89
:0C175B00787FE4F6D8FD75814C020E2C5E
:1008FC00E709F608DFFA8046E709F208DFFA803EDE
:10090C0088828C83E709F0A3DFFA8032E309F608CA
:10091C00DFFA8078E309F208DFFA807088828C8332
:10092C00E309F0A3DFFA806489828A83E0A3F608E6
:10093C00DFFA805889828A83E0A3F208DFFA804CC0
:10094C0080D280FA80C680D4806980F28033801097
:10095C0080A680EA809A80A880DA80E280CA803300
:10096C0089828A83ECFAE493A3C8C582C8CCC58378
:10097C00CCF0A3C8C582C8CCC583CCDFE9DEE78048
:10098C000D89828A83E493A3F608DFF9ECFAA9F0C7
:10099C00EDFB2289828A83ECFAE0A3C8C582C8CC1D
:1009AC00C583CCF0A3C8C582C8CCC583CCDFEADE36
:1009BC00E880DB89828A83E493A3F208DFF980CC98
:1009CC0088F0EF60010E4E60C388F0ED2402B40491
:1009DC000050B9F582EB2402B4040050AF23234538
:0609EC00822390094C7308
:1009F200BB010689828A83E0225002E722BBFE0203
:090A0200E32289828A83E4932235
:100A0B00BB010CE58229F582E5833AF583E02250A0
:100A1B0006E92582F8E622BBFE06E92582F8E222EA
:0D0A2B00E58229F582E5833AF583E4932204
:100A3800BB010689828A83F0225002F722BBFE019D
:020A4800F32297
:100A4A0075F008758200EF2FFFEE33FECD33CDCC63
:100A5A0033CCC58233C5829BED9AEC99E5829840E6
:100A6A000CF582EE9BFEED9AFDEC99FC0FD5F0D6C3
:100A7A00E4CEFBE4CDFAE4CCF9A88222B800C1B9ED
:100A8A000059BA002DEC8BF084CFCECDFCE5F0CB2B
:100A9A00F97818EF2FFFEE33FEED33FDEC33FCEB64
:100AAA0033FB10D703994004EB99FB0FD8E5E4F91F
:100ABA00FA227818EF2FFFEE33FEED33FDEC33FC0C
:100ACA00C933C910D7059BE99A4007EC9BFCE99A00
:100ADA00F90FD8E0E4C9FAE4CCFB2275F010EF2F45
:100AEA00FFEE33FEED33FDCC33CCC833C810D70745
:100AFA009BEC9AE899400AED9BFDEC9AFCE899F880
:0E0B0A000FD5F0DAE4CDFBE4CCFAE4C8F92212
:100B1800EB9FF5F0EA9E42F0E99D42F0E89C45F033
:010B280022AA
:100B2900E8600FECC313FCED13FDEE13FEEF13FFAA
:030B3900D8F122CE
:100B3C00BB010DE58229F582E5833AF583020B7939
:100B4C005007E92582F8020B6CBBFE07E92582F8F9
:100B5C00020B85E58229F582E5833AF583020B9237
:1005A000E5422436F8E605422278333007027836F1
:1005B000E475F001120BA20209F22000EB7F2ED2AB
:1005C000008018EF540F2490D43440D4FF30040B33
:1005D000EF24BFB41A0050032461FFE54360021505
:1005E000430546E5467002054530070D7833E4754E
:1005F000F001120BA2EF020A3802001D7403D207A9
:100600008003E4C207F5428B338A348935E4F5432D
:10061000F545F546E54360077F201205DB80F5755B
:1006200044FFC201C200C202C203C205C206C20820
:100630001205A9FF700D3007057F001205ECAF46CB
:10064000AE4522B4255FC2D5C2041205A9FF24D04D
:10065000B40A00501A75F00A784330D50508B6FF81
:100660000106C6A426F620D5047002D20380D92440
:10067000CFB41A00EF5004C2E5D2040207ECD20155
:1006800080C6D20080C0D20280BCD2D580BAD2054A
:1006900080B47F201205DB2002077401B5430040BF
:1006A000F11205A0FF1205DB020614D208D2068063
:1006B000951205A0FB1205A0FA1205A0F94A4B708D
:1006C0000679BD7A087BFF20022EE543602A7E0072
:1006D0008E82758300120A0B60060EEE654470F080
:1006E000C2D5EBC0E0EAC0E0E9C0E0EE120833D0CA
:1006F000E0F9D0E0FAD0E0FB1209F2FF60AAEBC00B
:10070000E0EAC0E0E9C0E01205DBD0E02401F9D066
:10071000E03400FAD0E0FBE5440460DCD544D98045
:10072000877BFF7A08792FD202809C79108002792A
:1007300008C206C2088008D2D5790A8004790AC2A4
:10074000D5E544047002F544E4FAFDFEFF1205A06D
:10075000FC7B082001131205A0FD7B1030000A125B
:1007600005A0FE1205A0FF7B20EC3382D592D55068
:1007700013C3E43000069FFFE49EFEE42001039DC6
:10078000FDE49CFCE4CBF8C201EC700CCFCECDCCE8
:10079000E824F8F870F38017C3EF33FFEE33FEED73
:1007A00033FDEC33FCEB33FB994002FB0FD8E9EB54
:1007B000300105F8D0E0C448B201C0E00AEC4D4E6B
:1007C0004F78207B0070C2EAB5440040BCC0E01204
:1007D0000835D0F0D0E0200104C4C0E0C4B201C0AC
:1007E000F01205C4D0F0D5F0EB020614120BB206DD
:1007F000B153072B5806824C067E42072F4F07370E
:0F08000044073749069743073D5507214607210F
:10080F004507214708DD5006862D068A2E06AD2B9B
:10081F00068E2306AB2008C62A064648000006A50A
:10082F003F3F3F00790AA2D5200314300509B910C4
:10083F00020404B9080104A2D520060250010420C5
:10084F0002689202B543005034C0E07F2030031994
:10085F007F30A20272067205500F12088CC202C2BC
:10086F0006C205C2087F30800F300503E9C0E012D1
:10087F0005DB300503D0E0F9D0E0B543CC300517E8
:10088F007F30B9100C1205DB7F583004077F78805A
:10089F0003B908031205DB3002057F2D0205DB7F4C
:1008AF00202008F87F2B2006F322920280CF286E9B
:1008BF00756C6C2900D2011205A03001F8C20178C5
:1008CF004330D50108F60206462D5043495812050C
:1008DF00A02403B405004001E49008D8931205CC7E
:0D08EF00743A1205CCD20375430402072BA6
:0D0B6C00E6FB08E6F908E6FA08E6CBF822F9
:0C0B7900E0F8A3E0F9A3E0FAA3E0FB22FF
:0D0B8500E2FB08E2F908E2FA08E2CBF822F0
:100B9200E493F8740193F9740293FA740393FB22B9
:100BA200FAE6FB0808E6F925F0F618E6CA3AF62254
:100BB200D083D082F8E4937012740193700DA3A3D2
:100BC20093F8740193F5828883E4737402936860E6
:060BD200EFA3A3A380DFE6
:00000001FF
