:10000300CAAAB6C8A3BA252E316625252020CEC29A
:0C001300B6C8A3BA252E3166A1E60A008B
:101CE8007522407523017527007526C27525017573
:101CF8002400752901E4F52AFB7A0079227F011274
:0C1D080008DA7D017F01121C4053A23F4D
:011D140022AC
:101CB500752D00752E00752F267B007A007922126E
:101CC50016B57BFF7A007903852542852441852356
:101CD5004085223F85294685284585274485264315
:031CE500020E16D6
:101D150043BA80121CE812001FD2AFE50CD3940021
:101D25004010D50C0DE50BD394004003121CB5E40F
:091D3500F50B7F0A121E2280E268
:0F1E22007D607C09ED1D70011C144C70F7DFF121
:011E3100228E
:10122300EFD3940740037FFF22120654FED39403A7
:1012330040037FFF22EF7041EE700B900001120616
:101243006DF452935294120654B4010B90000112A0
:10125300066D4293F45294120654FEB4020A9000AF
:101263000112066D42934294EEB4030D90000112F5
:10127300066DFEF45293EE4294EF6401704312063E
:1012830054FE700B90000112066DF452915292EECF
:10129300B4010B90000112066D4291F452921206B2
:1012A30054B4020A90000112066D42914292120652
:1012B30054B4030D90000112066DFEF45291EE42F8
:1012C30092EF64027043120654FE700B90000112F9
:1012D300066DF452955296EEB4010B90000112067E
:1012E3006D4295F45296120654B4020A900001120C
:1012F300066D42954296120654B4030D90000112F6
:10130300066DFEF45295EE4296EF640370431206A7
:1013130054FE700B90000112066DF452B152B2EEFE
:10132300B4010B90000112066D42B1F452B21206E1
:1013330054B4020A90000112066D42B142B2120681
:1013430054B4030D90000112066DFEF452B1EE4247
:10135300B2EF64047043120654FE700B9000011246
:10136300066DF452B352B4EEB4010B9000011206B1
:101373006D42B3F452B4120654B4020A900001123F
:10138300066D42B342B4120654B4030D9000011229
:10139300066DFEF452B3EE42B4EF640570431206D9
:1013A30054FE700B90000112066DF452C952CAEE3E
:1013B300B4010B90000112066D42C9F452CA120621
:1013C30054B4020A90000112066D42C942CA1206C1
:1013D30054B4030D90000112066DFEF452C9EE429F
:1013E300CAEF64067043120654FE700B900001129C
:1013F300066DF452CB52CCEEB4010B9000011206F1
:101403006D42CBF452CC120654B4020A900001127E
:10141300066D42CB42CC120654B4030D9000011268
:10142300066DFEF452CBEE42CCEF64077043120616
:1014330054FF700B90000112066DF452E152E2EF7B
:10144300B4010B90000112066D42E1F452E2120660
:1014530054B4020A90000112066D42E142E2120600
:1014630054B4030D90000112066DFFF452E1EF42F4
:04147300E27F0022F2
:101B0A00EFD3940140037FFF22EDD3940340037F78
:101B1A00FF22EF7004C2A98002D2A9ED700553B763
:101B2A00FDC2B9BD010553B7FDD2B9BD020543B720
:0E1B3A0002C2B9BD030543B702D2B97F002233
:101B4800EFD3940140037FFF22EDD3940340037F3A
:101B5800FF22EF7004C2AB8002D2ABED700553B721
:101B6800F7C2BBBD010553B7F7D2BBBD020543B7EA
:0E1B780008C2BBBD030543B708D2BB7F0022E5
:101D6100EFD3940140037FFF22EDD3940340037F1F
:101D7100FF22EF25E025E0FFE5AF54FB4FF5AFE48F
:021D8100FF223F
:101D8300EFD3940140037FFF22EDD3940340037FFD
:101D9300FF22EFC43354E0FFE5AF54DF4FF5AFE468
:021DA300FF221D
:101D3E00EFD3940140037FFF22EDD3940340037F42
:101D4E00FF22EFC4333354C0FFE5AF54BF4FF5AF9E
:031D5E00E4FF227D
:101B8600EFD3940140037FFF22EDD3940340037FFC
:101B9600FF22EF7004C2A88002D2A8ED700553B7E9
:101BA600FEC2B8BD010553B7FED2B8BD020543B7A4
:0E1BB60001C2B8BD030543B701D2B87F0022BB
:101BC400EFD3940140037FFF22EDD3940340037FBE
:101BD400FF22EF7004C2AA8002D2AAED700553B7A7
:101BE400FBC2BABD010553B7FBD2BABD020543B768
:0E1BF40004C2BABD030543B704D2BA7F002273
:101DBE00EFD3940140037FFF22EFC454F0FFE58F71
:081DCE0054EF4FF58FE4FF22F2
:101DA500EFD3940140037FFF22EFC43354E0FFE5F6
:091DB5008F54DF4FF58FE4FF228B
:10002600EFD3940140037FFF22EFC4333354C0FF64
:0A003600E58F54BF4FF58FE4FF2261
:101C0200EFD3940140037FFF22EDD3940340037F7F
:101C1200FF22EF7004C2AD8002D2ADED700553B762
:101C2200DFC2BDBD010553B7DFD2BDBD020543B75B
:0E1C320020C2BDBD030543B720D2BD7F0022F6
:1019B400EDD3940340037FFF22EF30E10543E6209B
:1019C400800353E6DFEF30E00543E610800353E67F
:1019D400EFED700653B6DF53B5DFBD010653B6DF36
:1019E40043B520BD020643B62053B5DFBD0306430D
:0819F400B62043B5207F00225C
:10188000EFD3940140037FFF22EBD3940340037F07
:10189000FF22BF0112ED90FE817006E0547FF080C0
:1018A00011E04480F0800BEF700890FE83E05487D5
:1018B0004DF0EB700653B6DF53B5DFBB010653B6F0
:1018C000DF43B520BB020643B62053B5DFBB03069A
:0918D00043B62043B5207F00223D
:101C4000EFD3940140037FFF22EDD3940340037F41
:101C5000FF22EF7004C2AC8002D2ACED700553B726
:101C6000EFC2BCBD010553B7EFD2BCBD020543B7FF
:0E1C700010C2BCBD030543B710D2BC7F0022DA
:101ACA00EFD3940140037FFF22EDD3940340037FB9
:101ADA00FF22E5AF54FE4FF5AFED700653B6FE5345
:101AEA00B5FEBD010653B6FE43B501BD020643B6B7
:101AFA000153B5FEBD030643B60143B5017F00227B
:1019FC00EFD3940140037FFF22EDD3940340037F88
:101A0C00FF22EF33333354F8FFE5AF54F74FF5AF04
:101A1C00ED700653EEFE53DFFEBD010653EEFE43A2
:101A2C00DF01BD020643EE0153DFFEBD030643EEAC
:071A3C000143DF017F0022DE
:10004600EFD3940140037FFF22EDD3940340037F57
:10005600FF22EFC454F0FFE5AF54EF4FF5AFED705C
:100066000653EEFD53DFFDBD010653EEFD43DF02F1
:10007600BD020643EE0253DFFDBD030643EE024317
:05008600DF027F0022F3
:101A4300EFD3940140037FFF22EDD3940340037F40
:101A5300FF22EF25E0FFE5AF54FD4FF5AFED700634
:101A630053B6FD53B5FDBD010653B6FD43B502BDE7
:101A7300020643B60253B5FDBD030643B60243B5A2
:041A8300027F0022BC
:10180600EFD3948140037FFF22EBD3940340037F01
:10181600FF22EF247F603004705890FEC4EDF0EB99
:10182600700653B6FB53B5FBBB010653B6FB43B577
:1018360004BB020643B60453B5FBEB64037038439E
:10184600B60443B504803090FEE4EDF0EB70065329
:10185600B6F753B5F7BB010653B6F743B508BB0257
:101866000643B60853B5F7BB030D43B60843B508A0
:0A187600800590FEE4EDF07F0022F3
:101C7E00EDD394035026ED700653EEFB53DFFBBD00
:101C8E00010653EEFB43DF04BD020643EE0453DFB1
:101C9E00FBBD030B43EE0443DF0480037FFF229062
:071CAE00FE62EFF07F00224F
:0808DA008F2B8B2C8A2D892E37
:1008E200E52B64016003020A50F508F509F50AF5E3
:1008F2000BF50CF52FF53074402530F58274013577
:100902002FF583E4F00530E5307002052F64804551
:100912002F70E4E4F52FF53074002530F582740071
:10092200352FF583E4F00530E5307002052F648041
:10093200452F70E4AB2CAA2DA92E120654FFE59880
:10094200543F4FF598EF64C06008EF6440600302C3
:100952000A059000021207E67F807E8D7D5B7C0097
:100962001206E88F348E338D328C31E4FFFE7D0126
:10097200FCAB34AA33A932A831C312078840037FE3
:10098200FF22C3E49534F534E49533F533740195CD
:1009920032F532E49531F531AB2CAA2DA92E900017
:1009A2000112066DFB6401702CC28E538EFE5389B8
:1009B200BF5389CF438E40AF34AE33AD32AC3178C2
:1009C200081207998F8D85348BC2AB5389BF538F21
:1009D200FDD28E8062EB64027026538EEF438E014D
:1009E200538EF7438E04AF34AE33AD32AC31780858
:1009F2001207998FD68534D753AFFB438E108037B9
:100A02007FFF22AB2CAA2DA92E120654FF70139041
:100A1200000812066DB40105438E20801A538EDF42
:100A22008015EFB4801190000812066DB4010543E1
:100A32008780800353877FAB2CAA2DA92E900007B5
:100A420012066D7004C29C8002D29C7F0022E52BAC
:100A520064026003020B49F50DF50EF50FF510F572
:100A620011F52FF53074E02530F5827401352FF53C
:100A720083E4F00530E5307002052F6480452F7065
:100A8200E4E4F52FF53074802530F5827400352FBB
:100A9200F583E4F00530E5307002052F6480452FC0
:100AA20070E4AB2CAA2DA92E120654FF64C0600577
:100AB200EF64407075EFB4C005439A808003539A87
:100AC2007F9000021207E67F807E8D7D5B7C0012A4
:100AD20006E88F348E338D328C31E4FFFE7D01FCCB
:100AE200AB34AA33A932A831C312078840037FFF6F
:100AF20022C3E49534F534E49533F5337401953229
:100B0200F532E49531F531538EEF538EF7438E046F
:100B1200AF34AE33AD32AC3178081207998FD68537
:100B220034D753AFFB438E1080037FFF22AB2CAA36
:100B32002DA92E90000712066DC454F0FFE59A54B9
:100B4200EF4FF59A7F0022E52B64036003020C7DD0
:100B5200F512F513F514F515F516F52FF530746049
:100B62002530F5827402352FF583E4F00530E53047
:100B72007002052F6440452F70E4E4F52FF53074C0
:100B8200002530F5827401352FF583E4F00530E558
:100B9200307002052F6440452F70E4AB2CAA2DA9BA
:100BA2002E120654FF64C06008EF64406003020C1A
:100BB20060EFB4C00543AC80800353AC7F90000269
:100BC2001207E67F807E8D7D5B7C001206E88F3403
:100BD2008E338D328C31E4FFFE7D01FCAB34AA33BF
:100BE200A932A831C312078840037FFF22C3E495CC
:100BF20034F534E49533F53374019532F532E495E6
:100C020031F531AB2CAA2DA92E90000112066DFBF5
:100C1200B4031D43AC40AF34AE33AD32AC317808CF
:100C22001207998FD48534D553D1F043D10A80313C
:100C3200EB64027026538EEF53ACBF538EF7438E94
:100C420004AF34AE33AD32AC3178081207998FD687
:100C52008534D753AFFB438E1080067FFF227FFF80
:100C620022AB2CAA2DA92E90000712066DC454F0B7
:100C7200FFE5AC54EF4FF5AC7F0022E52B64046036
:100C820003020DB1F517F518F519F51AF51BF52F35
:100C9200F53074A02530F5827402352FF583E4F027
:100CA2000530E5307002052F6420452F70E4E4F52D
:100CB2002FF53074C02530F5827401352FF583E4A9
:100CC200F00530E5307002052F6420452F70E4AB4B
:100CD2002CAA2DA92E120654FF64C06008EF6440AE
:100CE2006003020D94EFB4C00543848080035384F3
:100CF2007F9000021207E67F807E8D7D5B7C001272
:100D020006E88F348E338D328C31E4FFFE7D01FC98
:100D1200AB34AA33A932A831C312078840037FFF3C
:100D220022C3E49534F534E49533F53374019532F6
:100D3200F532E49531F531AB2CAA2DA92E900001A4
:100D420012066DFBB4041D438440AF34AE33AD32A2
:100D5200AC3178081207998FD28534D353D10F431F
:100D6200D1A08031EB64027026538EEF5384BF53BF
:100D72008EF7438E04AF34AE33AD32AC3178081205
:100D820007998FD68534D753AFFB438E1080067FE9
:100D9200FF227FFF22AB2CAA2DA92E90000712065C
:100DA2006DC454F0FFE58454EF4FF5847F00227F39
:010DB200FF41
:010DB300221D
:0A1E5B008F99750A01E50A70FC2258
:101DD600120654FF600C121E5B740129F9E43AFAEC
:031DE60080EE226A
:0A1E65008F9B750F01E50F70FC2242
:101DE900120654FF600C121E65740129F9E43AFACF
:031DF90080EE2257
:0A1E6F008FAD751401E51470FC221C
:101DFC00120654FF600C121E6F740129F9E43AFAB2
:031E0C0080EE2243
:0A1E79008F85751901E51970FC2230
:101E0F00120654FF600C121E79740129F9E43AFA94
:031E1F0080EE2230
:05008E00AE07021E5B3D
:03002300021A8737
:101A8700C0E0C083C082C0D075D000C007309820A6
:101A9700C298E50BC394804003750B00AF0B050B91
:101AA70074002FF582E43400F583E599F0750C0591
:101AB700309905C299750A00D007D0D0D082D0835B
:031AC700D0E0323A
:030043000218D9C7
:1018D900C0E0C083C082C0D075D000C007E59A308F
:1018E900E021539AFEE510C394804003751000AFC0
:1018F90010051074802FF582E43400F583E59BF020
:10190900751105E59A30E106539AFD750F00D00768
:09191900D0D0D082D083D0E0329E
:03008B0002192235
:10192200C0E0C083C082C0D075D000C007E5AC3033
:10193200E02153ACFEE515C394404003751500AF9A
:1019420015051574002FF582E43401F583E5ADF039
:10195200751605E5AC30E10653ACFD751400D007F1
:09196200D0D0D082D083D0E03255
:0300930002196BE4
:10196B00C0E0C083C082C0D075D000C007E5843012
:10197B00E0215384FEE51AC394204003751A00AF8F
:10198B001A051A74C02FF582E43401F583E585F04E
:10199B00751B05E58430E1065384FD751900D007EE
:0919AB00D0D0D082D083D0E0320C
:101773006572723ACAB1BCE45B256475735DB2BB32
:10178300C2FAD7E3D6F7BBFACACDB7C5D7DCCFDFEA
:10179300CAB1BCE45B25642C25645D0A00657272E2
:1017A3003ACAB1BCE45B256475735D2CB2BBC2FA63
:1017B300D7E325735B25642C25645D0A00CFECD346
:1017C300A6B5CDB5E7C6BDCAB1BCE400CFECD3A680
:1017D300B8DFB5E7C6BDCAB1BCE40044415441D04B
:1017E300C5BAC5B5CDB5E7C6BDCAB1BCE40063682B
:1017F30065636B206661696C757265210A00000080
:03180300000000E2
:101E3200752340E4F522FB7A0079227F0402122303
:03001F00021E328C
:041E83007F05DFFEFA
:011E87002238
:0D1E42000000000000000000000000002271
:061477008B358A3689372F
:10147D00E4F53AF53BC2C67F14121E22D2C6E4F53E
:10148D003AF53B30C618C3E53B9428E53A94005035
:10149D000D121E42053BE53B70E9053A80E5C3E5BB
:1014AD003B9408E53A9400400BD3E53B9425E53A8F
:1014BD009400401E7BFF7A177973853A3F853B4038
:1014CD00754100754208754300754425120E167F4F
:1014DD00FF22E4F53AF53B20C60D121E42053BE511
:1014ED003B70F4053A80F0C3E53B944EE53A940029
:1014FD00400BD3E53B9458E53A94004024853A3FA0
:10150D00853B407541FF7542177543C075440075A5
:10151D00454E7546007547587BFF7A1779A0120E18
:10152D0016E4F53AF53B30C60D121E42053BE53B80
:10153D0070F4053A80F0C3E53B9450E53A940040D1
:10154D000BD3E53B945CE53A94004024853A3F8506
:10155D003B407541FF7542177543CF754400754586
:10156D005075460075475C7BFF7A1779A0120E16F1
:10157D00E4F538753907E4F53AF53B20C60D121E32
:10158D0042053BE53B70F4053A80F0C3E53B9430F2
:10159D00E53A9400400BD3E53B9440E53A94004086
:1015AD0024853A3F853B407541FF7542177543DEF3
:1015BD007544007545307546007547407BFF7A17B9
:1015CD0079A0120E16E4F53AF53B30C60D121E4207
:1015DD00053BE53B70F4053A80F0C3E53B9417E518
:1015ED003A9400400BD3E53B944AE53A94004024ED
:1015FD00853A3F853B407541FF7542177543DE7552
:10160D00440075451775460075474A7BFF7A177973
:10161D00A0120E16D3E53B9432E53A94004026AB6A
:10162D0035AF38EF3395E0FEE5372FF9E5363EFA65
:10163D00120654FFAE39A8067401088002C333D8D0
:10164D00FC4F12069A1539C3E53964809480400326
:10165D000215830538C3E53864809485500302155F
:10166D0080D2C6AB35AA36A93790000112066DFFA0
:10167D001206542FFFE433FE90000212066D7C001B
:10168D002FFFEC3EFE90000312066D2FFFEC3EFE89
:10169D0090000412066D6F7001EE60097BFF7A17E2
:0716AD0079F1120E167F0017
:0116B4002213
:0616B5008B2A8A2B892C10
:1016BB0078307C007D007BFF7A1879017E007F05F6
:1016CB0012062E7B007A007930121477EF6001221C
:1016DB00AC31E412029E7BCD7ACC79CC783D1201F1
:1016EB008EC004C005C006C007AC30E412029ED009
:1016FB0003D002D001D00012009DAB2AAA2BA92C3B
:10170B001207CCE533547FFCE412029E7BCD7ACCDE
:10171B0079CC783D12018EC004C005C006C007AC61
:10172B0032E412029ED003D002D001D00012009DF1
:10173B00AB2DAA2EA92F1207CCE533C413131354C8
:10174B00016022AB2DAA2EA92FC003C002C001122B
:10175B0007ACE4FBFA798078BF12018ED001D0027E
:07176B00D0031207CC7F0040
:011772002254
:10009600020307E86480F8E933E83360110460F08E
:1000A600ED33EC337009E8FCE9FDEAFEEBFF2204D0
:1000B60060DED3EB9FEA9EE99DE8C2E78CF0C2F7CB
:1000C60095F0400CE8CCF8E9CDF9EACEFAEBCFFB97
:1000D6001202D285D0F05804700320D5B3E804701C
:1000E600075002B2D502031192D5EC0460F7E4CCB6
:1000F600C0E0C398F8603B94186008400DD0E0FB60
:100106000202E9E4FBFAC9FC8028E830E406E4C907
:10011600FBE4CAFCE830E305E4C9CACBFCE85407B3
:100126006010F8C3E913F9EA13FAEB13FBEC13FCBE
:10013600D8F130F52FC3E49CFCEF9BFFEE9AFEED61
:1001460099FDD0E0FBEF4E4D4C701222DB0302030B
:100156000EEC2CFCEF33FFEE33FEED33FDED30E716
:10016600EB0202E9EF2BFFEE3AFEED39FDD0E0FBA4
:1001760050130BBB0003020311ED13FDEE13FEEF4C
:0801860013FFEC13FC0202E977
:10018E00EC4D6011E8497017ED33EC3304600DE46B
:10019E00FCFFFEFD22E933E8330470F80203071278
:1001AE0002D258046009E4CC24815006285009027A
:1001BE00031128400302030EC0E0EB4A7044B980DD
:1001CE0006D0E0FB0202FDEF4E701CBD8008EBFF77
:1001DE00EAFEE9FD80EBE98DF0A4FEE5F002027780
:1001EE00E9CDF9EAFEEBFFEF89F0A4FCE5F0CE894C
:1001FE00F0A42EFFE435F0CD89F0A42DFEE435F009
:10020E008067EF4E7005BD80D780C3EF8BF0A4AC36
:10021E00F0EE8BF0A42CFCE435F0F8EF8AF0A42C71
:10022E00E5F038FCE433CB8DF0A42CFCE5F03BF884
:10023E00EE8AF0A42CFCE5F038F8E433CF89F0A474
:10024E002CFCE5F038CF3400CE89F0A42FFFE5F07A
:10025E003EFEE433C98DF0A42EFEE5F039CD8AF0D2
:10026E00A42FFFE5F03EFEE43DFD33D0E0FB50074A
:10027E000BBB000F020311EC2CFCEF33FFEE33FE31
:06028E00ED33FD0202E960
:1002940075F020800E75F010800575F0087D007EE5
:1002A400007F003392D530D50312077AEC33401027
:1002B400EF33FFEE33FEED33FDEC33FCD5F0ED22EE
:0E02C400E5F0247EA2D513CC92E7CDCEFF222A
:100DB400E553243FF8E6055322783C300702783F98
:100DC400E475F0011208160206542000EB7F2ED2BF
:100DD400008018EF540F2490D43440D4FF30040B17
:100DE400EF24BFB41A0050032461FFE554600215D8
:100DF400540557E5577002055630070D783CE475E5
:100E0400F001120816EF02069A02008E7403D2074C
:100E14008003E4C207F5538B3C8A3D893EE4F554D4
:100E2400F556F557E55460077F20120DEF80F575F0
:100E340055FFC201C200C202C203C205C206C208F3
:100E4400120DBDFF700D3007057F00120E00AF5765
:100E5400AE5622B4255FC2D5C204120DBDFF24D004
:100E6400B40A00501A75F00A785430D50508B6FF54
:100E74000106C6A426F620D5047002D20380D92424
:100E8400CFB41A00EF5004C2E5D2040210EDD2012F
:100E940080C6D20080C0D20280BCD2D580BAD2052E
:100EA40080B47F20120DEF2002077401B554004076
:100EB400F1120DB4FF120DEF020E28D208D20680F3
:100EC40095120DB4FB120DB4FA120DB4F94A4B701D
:100ED4000679E47A117BFF20022EE554602A7E0015
:100EE4008E8275830012066D60060EEE655570F0F5
:100EF400C2D5EBC0E0EAC0E0E9C0E0EE12114DD08B
:100F0400E0F9D0E0FAD0E0FB120654FF60AAEBC08F
:100F1400E0EAC0E0E9C0E0120DEFD0E02401F9D02E
:100F2400E03400FAD0E0FBE5550460DCD555D98007
:100F340087D20280A212113060F7E55570010412C5
:100F4400031CA955600DE555600914F5551211D718
:100F5400EF60F3EA30E702F404C3995077EAF4252A
:100F6400550430E701E404F555800D12113060C1D9
:100F7400EA0555255512031CEA7852F630E701E4D8
:100F8400255504D555042005011412114DE4C0E083
:100F94001211D77852E6601320E70714F6120DD722
:100FA400802204F6D0E014C0E07F00120DD7E5558E
:100FB4006007120DCE1555800B300503120DCED0EF
:100FC400E0020E28D0E00480C512113060A0E5557F
:100FD4000412031C7852EAF6E55520050260010468
:050FE400240412114D70
:100FE90074FF04C0E01211D7120DD7E55520050290
:100FF9006003120DCED0E0B555E87F45120DE178BA
:1010090052E67F2B30E7047F2DF404C0E0120DEF88
:10101900D0E075F00A84C0F0120DD8D0E0120DD8D6
:10102900020E28791080027908C206C2088008D207
:10103900D5790A8004790AC2D5E555047002F555B7
:10104900E4FAFDFEFF120DB4FC7B08200113120D1A
:10105900B4FD7B1030000A120DB4FE120DB4FF7BF3
:1010690020EC3382D592D55013C3E43000069FFF9C
:10107900E49EFEE42001039DFDE49CFCE4CBF8C260
:1010890001EC700CCFCECDCCE824F8F870F38017C2
:10109900C3EF33FFEE33FEED33FDEC33FCEB33FBF3
:1010A900994002FB0FD8E9EB300105F8D0E0C448BC
:1010B900B201C0E00AEC4D4E4F78207B0070C2EAC5
:1010C900B5550040BCC0E012114FD0F0D0E020016E
:1010D90004C4C0E0C4B201C0F0120DD8D0F0D5F0FC
:1010E900EB020E281208260EC553102C580E964CEA
:1010F9000E924210304F1038441038490EAB43104D
:101109003E550F6F460FCD450F39471204500E9AC1
:101119002D0E9E2E0EC12B0EA2230EBF2011ED2ADD
:101129000E5A4800000EB9E555B4FF03755506126D
:101139000DB4FC120DB4FD120DB4FE120DB4FF78FE
:101149004B02034B790AA2D5200314300509B910C3
:10115900020404B9080104A2D520060250010420A2
:1011690002689202B554005034C0E07F2030031960
:101179007F30A20272067205500F1211A6C202C276
:1011890006C205C2087F30800F300503E9C0E012AE
:101199000DEF300503D0E0F9D0E0B554CC30051798
:1011A9007F30B9100C120DEF7F583004077F78801B
:1011B90003B90803120DEF3002057F2D020DEF7FF1
:1011C900202008F87F2B2006F322920280CF7F008F
:1011D900B407005005244BF8E6FF22286E756C6CA5
:1011E9002900D201120DB43001F8C201785430D56A
:1011F9000108F6020E5A2D50434958120DB4240322
:10120900B405004001E49011FF93120DE0743A1205
:0A1219000DE0D20375540402102CFE
:1002D200E9D2E7C933E833F892D5EDD2E7CD33EC72
:0702E20033FC5002B2D522EB
:1002E900EC30E7100FBF000C0EBE00080DBD000476
:1002F9000BEB6014A2D5EB13FCED92E7FD2274FF22
:10030900FCFDFEFF22E480F8A2D574FF13FC7D807A
:03031900E480EF8E
:10031C00F920E72824F950037907E4F42402FB18A8
:10032C00DBFDE624FB5014E9600DE4F618E604F658
:0F033C00B40A08E4F6D9F57401F60A22C2D522F4
:10034B00ED33EC3392D5FA602AB4FF33EDC2E77B81
:10035B00FF60067A037970E4227A03797920D50459
:10036B007A037974224E614E002B494E46002D497B
:10037B004E4600E47A08F608DAFC7B00740722E8A4
:10038B00C0E0ECC0E0EDC0E0EEC0E0EFC0E0EA752D
:10039B00F010A4CAABF075F04DA42BFBE435F0FCC8
:1003AB00EA2410FAEB34C5FBEC34D9FCEDC2E7FFC1
:1003BB0075F056A4F42411C5F0F434C58FF0A42ABB
:1003CB00E5F03BE43CF620E71412051ED0E0FFD02D
:1003DB00E0FED0E0FDD0E0FC1204518014F40412D6
:1003EB00051ED0E0FFD0E0FED0E0FDD0E0FC120116
:1003FB008ED0E0F8E6FAEDD2E7CD33EC332482FB76
:10040B00E4C3CF33CFCE33CECD33CD33DBF37B074A
:10041B0075F00A846004F6081B0AE5F0F6088FF005
:10042B00740AA4FFACF08EF0740AA42CFEACF0504E
:10043B00010C8DF0740AA42CFDE435F0F608DBDE1C
:03044B0074072211
:10044E00020311EC5D046005E85904700302030712
:10045E001202D2580460F6EC4860F2EC7004FDFE15
:10046E00FF22C860DB2481C85009C3986002500681
:10047E0002030E9850CAF582E9294B4A7005AB82E9
:10048E000202FD75F0007C1A7880C3EF9BEE9AEDA8
:10049E0099400DC3EF9BFFEE9AFEED99FDE842F0F9
:1004AE00DC23ACF0D0E0FFD0E0FED0E0FDAB82204C
:1004BE00E7101BEB60BAEC2CFCEF33FFEE33FEEDD6
:1004CE0033FD0202E9E803F830E705C0F075F000ED
:1004DE00EF2FFFEE33FEED33FD40B830E7C280AABA
:1004EE003F8000004120000042C80000447A000016
:1004FE00461C400047C35000497424004B18968098
:10050E004CBEBC205A0E1BCA6753C21C749DC5AE8E
:10051E00FB60065407601C232312054CEB54386015
:10052E000912053812054712018EECF8EDF9EEFAB4
:10053E00EFCB22EB12054780F1543803241C9004B4
:10054E00EEFE93FC0EEE93FD0EEE930ECE93FF2277
:03000000021E4F8E
:0C1E4F00787FE4F6D8FD758157021D1560
:10055E00E709F608DFFA8046E709F208DFFA803E7F
:10056E0088828C83E709F0A3DFFA8032E309F6086C
:10057E00DFFA8078E309F208DFFA807088828C83D4
:10058E00E309F0A3DFFA806489828A83E0A3F60888
:10059E00DFFA805889828A83E0A3F208DFFA804C62
:1005AE0080D280FA80C680D4806980F28033801039
:1005BE0080A680EA809A80A880DA80E280CA8033A2
:1005CE0089828A83ECFAE493A3C8C582C8CCC5831A
:1005DE00CCF0A3C8C582C8CCC583CCDFE9DEE780EA
:1005EE000D89828A83E493A3F608DFF9ECFAA9F069
:1005FE00EDFB2289828A83ECFAE0A3C8C582C8CCBF
:10060E00C583CCF0A3C8C582C8CCC583CCDFEADED7
:10061E00E880DB89828A83E493A3F208DFF980CC39
:10062E0088F0EF60010E4E60C388F0ED2402B40432
:10063E000050B9F582EB2402B4040050AF232345D9
:06064E0082239005AE734B
:10065400BB010689828A83E0225002E722BBFE02A4
:09066400E32289828A83E49322D7
:10066D00BB010CE58229F582E5833AF583E0225042
:10067D0006E92582F8E622BBFE06E92582F8E2228C
:0D068D00E58229F582E5833AF583E49322A6
:10069A00BB010689828A83F0225002F722BBFE013F
:0206AA00F32239
:1006AC0075F008758200EF2FFFEE33FECD33CDCC05
:1006BC0033CCC58233C5829BED9AEC99E582984088
:1006CC000CF582EE9BFEED9AFDEC99FC0FD5F0D665
:1006DC00E4CEFBE4CDFAE4CCF9A88222B800C1B98F
:1006EC000059BA002DEC8BF084CFCECDFCE5F0CBCD
:1006FC00F97818EF2FFFEE33FEED33FDEC33FCEB06
:10070C0033FB10D703994004EB99FB0FD8E5E4F9C0
:10071C00FA227818EF2FFFEE33FEED33FDEC33FCAD
:10072C00C933C910D7059BE99A4007EC9BFCE99AA1
:10073C00F90FD8E0E4C9FAE4CCFB2275F010EF2FE6
:10074C00FFEE33FEED33FDCC33CCC833C810D707E6
:10075C009BEC9AE899400AED9BFDEC9AFCE899F821
:0E076C000FD5F0DAE4CDFBE4CCFAE4C8F922B4
:0E077A00C3E49FFFE49EFEE49DFDE49CFC2290
:10078800EB9FF5F0EA9E42F0E99D42F0E89C45F0C7
:01079800223E
:10079900E8600FECC313FCED13FDEE13FEEF13FF3E
:0307A900D8F12262
:1007AC00BB010789828A830208585005E9F80208C0
:1007BC004CBBFE05E9F802086489828A8302087042
:1007CC00BB010789828A830208C25005E9F8020836
:0A07DC00B6BBFE05E9F80208CE22C4
:1007E600BB010DE58229F582E5833AF58302088D82
:1007F6005007E92582F8020880BBFE07E92582F842
:10080600020899E58229F582E5833AF5830208A66E
:10081600FAE6FB0808E6F925F0F618E6CA3AF622E3
:10082600D083D082F8E4937012740193700DA3A361
:1008360093F8740193F5828883E473740293686075
:06084600EFA3A3A380DF75
:0C084C00E6FC08E6FD08E6FE08E6FF22D8
:0C085800E0FCA3E0FDA3E0FEA3E0FF2213
:0C086400E2FC08E2FD08E2FE08E2FF22D0
:10087000E493FC740193FD740293FE740393FF22CE
:0D088000E6FB08E6F908E6FA08E6CBF822E8
:0C088D00E0F8A3E0F9A3E0FAA3E0FB22EE
:0D089900E2FB08E2F908E2FA08E2CBF822DF
:1008A600E493F8740193F9740293FA740393FB22A8
:0C08B600ECF608EDF608EEF608EFF6226E
:0C08C200ECF0A3EDF0A3EEF0A3EFF022A9
:0C08CE00ECF208EDF208EEF208EFF22266
:00000001FF
