:03001E00013002AC
:1012CB00751E20751D037B007A00791D7F041207A4
:1012DB00E7751ECFE4F51DFB7A00791D7F0212071F
:1012EB00E7751E30E4F51DFB7A00791D7F010207BF
:0112FB00E70B
:1012FC00751D40751E017522007521C27520017582
:10130C001F00752401E4F525FB7A00791D7F01127D
:0C131C0000A67D017F0112121B53A23FAE
:0113280022A2
:10139400E4F51D751E01F51F7520A2752140752306
:1013A40001FB7A00791DFF120580E4FD7F01021024
:0113B400E553
:10132900E50CD39400401FD50C1CE50BD394004069
:1013390015900000E0FF7004F5308007EFB4010359
:07134900753001E4F50B22F1
:100C11001212CB1212FC121394D2AFC2C58063E53B
:100C2100307071753002F51CE51C7004C2A7803D5F
:100C3100E51CB40104C2A68034E51CB40204C295CB
:100C4100802BE51CB40304C2948022E51CB4040487
:100C5100C2A38019E51CB40504C2A28010E51CB42E
:100C61000604C2A18007E51CB40702C2A07F64127A
:100C71001419051CD3E51C6480948840AB7FFA12DB
:100C81001419D2A0D2A1D2A2D2A3D294D295D2A623
:100C9100D2A7808BE53064017085753002751C0721
:100CA100C3E51C6480947F404EE51C7004C2A7809C
:100CB1003DE51CB40104C2A68034E51CB40204C2A3
:100CC10095802BE51CB40304C2948022E51CB40476
:100CD10004C2A38019E51CB40504C2A28010E51C5E
:100CE100B40604C2A18007E51CB40702C2A07F6458
:100CF100121419151C80A97FFA121419D2A0D2A1BD
:0F0D0100D2A2D2A3D294D295D2A6D2A7020C200E
:1007E700EFD3940740037FFF22120A3BFED3940303
:1007F70040037FFF22EF7041EE700B900001120A59
:1008070054F452935294120A3BB4010B9000011214
:100817000A544293F45294120A3BFEB4020A90001F
:1008270001120A5442934294EEB4030D9000011250
:100837000A54FEF45293EE4294EF64017043120A95
:100847003BFE700B900001120A54F452915292EE43
:10085700B4010B900001120A544291F45292120A09
:100867003BB4020A900001120A5442914292120AC2
:100877003BB4030D900001120A54FEF45291EE426C
:1008870092EF64027043120A3BFE700B9000011254
:100897000A54F452955296EEB4010B900001120AD5
:1008A700544295F45296120A3BB4020A9000011280
:1008B7000A5442954296120A3BB4030D9000011266
:1008C7000A54FEF45295EE4296EF64037043120AFF
:1008D7003BFE700B900001120A54F452B152B2EE73
:1008E700B4010B900001120A5442B1F452B2120A39
:1008F7003BB4020A900001120A5442B142B2120AF2
:100907003BB4030D900001120A54FEF452B1EE42BB
:10091700B2EF64047043120A3BFE700B90000112A1
:100927000A54F452B352B4EEB4010B900001120A08
:100937005442B3F452B4120A3BB4020A90000112B3
:100947000A5442B342B4120A3BB4030D9000011299
:100957000A54FEF452B3EE42B4EF64057043120A30
:100967003BFE700B900001120A54F452C952CAEEB2
:10097700B4010B900001120A5442C9F452CA120A78
:100987003BB4020A900001120A5442C942CA120A31
:100997003BB4030D900001120A54FEF452C9EE4213
:1009A700CAEF64067043120A3BFE700B90000112F7
:1009B7000A54F452CB52CCEEB4010B900001120A48
:1009C7005442CBF452CC120A3BB4020A90000112F3
:1009D7000A5442CB42CC120A3BB4030D90000112D9
:1009E7000A54FEF452CBEE42CCEF64077043120A6E
:1009F7003BFF700B900001120A54F452E152E2EFF0
:100A0700B4010B900001120A5442E1F452E2120AB7
:100A17003BB4020A900001120A5442E142E2120A70
:100A27003BB4030D900001120A54FFF452E1EF4268
:040A3700E27F002238
:03000B0002125985
:10125900C0E0C0F0C083C082C0D075D000C000C05B
:1012690001C002C003C004C005C006C0071213298B
:10127900D007D006D005D004D003D002D001D000C9
:0B128900D0D0D082D083D0F0D0E03273
:03001B00020008D8
:03000800B2EE3223
:0300630002001880
:03001800B2ED3214
:03009B0002004020
:03004000B2EC32ED
:0300A30002005FF9
:03005F00B2EB32CF
:10058000AD07ED7079C28C120A3BFED39403400391
:100590007FFF22E58954FC4EF589900001120A5430
:1005A000FED3940240037FFF22EE7006538E7F53EA
:1005B00089FB900001120A54B40106438E805389CE
:1005C000FB900001120A54B4020343890490000214
:1005D000120A54FFE58F54FE4FF58F900003120A64
:1005E00081E5F0F58C900003120A81F58A900006EF
:1005F000120A547004C28C8002D28C7F0022ED64F7
:10060000016003020686C28E120A3BFED3940340A9
:10061000037FFF22EEC454F0FFE58954CF4FF589E4
:10062000900001120A54FED3940240037FFF22EE91
:100630007006538EBF5389BF900001120A54B40153
:1006400006438E405389BF900001120A54B402033E
:10065000438940900002120A5425E0FFE58F54FDC3
:100660004FF58F900003120A81E5F0F58D9000039D
:10067000120A81F58B900006120A547004C28E8013
:1006800002D28E7F0022ED64027065538EEF9000DF
:1006900001120A54FF7006538EFB538EF7EFB4011C
:1006A00006438E04538EF7EFB40203438E08900086
:1006B00002120A5425E025E0FFE58F54FB4FF58F29
:1006C000900003120A81E5F0F5D6900003120A812A
:1006D000F5D7900005120A5490FEA2F09000061281
:1006E0000A54C454F0FFE58E54EF4FF58E7F00227C
:1006F000ED6403707253D1F7900001120A54FED3D7
:10070000940240037FFF22EE700653D1FD53D1FBCC
:10071000900001120A54B4010643D10253D1FB9058
:100720000001120A54B4020343D104900002120AD9
:1007300054FFE5D154FE4FF5D1900003120A81E534
:10074000F0F5D4900003120A81F5D5900005120A45
:100750005490FEA3F0900006120A5433333354F839
:10076000FFE5D154F78077ED6404707853D17F9022
:100770000001120A54FED3940240037FFF22EE7060
:100780000653D1DF53D1BF900001120A54B40106C1
:1007900043D12053D1BF900001120A54B402034345
:1007A000D140900002120A54C454F0FFE5D154EF36
:1007B0004FF5D1900003120A81FDACF0ECF5D2AFF9
:1007C000058FD3900005120A5490FEA4F090000605
:1007D000120A54C43333335480FFE5D1547F4FF5AC
:0707E000D17F00227FFF2200
:1010E500EFD3940140037FFF22EDD3940340037FA8
:1010F500FF22EF7004C2A98002D2A9ED700553B793
:10110500FDC2B9BD010553B7FDD2B9BD020543B74F
:0E11150002C2B9BD030543B702D2B97F002262
:10112300EFD3940140037FFF22EDD3940340037F69
:10113300FF22EF7004C2AB8002D2ABED700553B750
:10114300F7C2BBBD010553B7F7D2BBBD020543B719
:0E11530008C2BBBD030543B708D2BB7F002214
:10135000EFD3940140037FFF22EDD3940340037F3A
:10136000FF22EF25E025E0FFE5AF54FB4FF5AFE4AA
:02137000FF225A
:10137200EFD3940140037FFF22EDD3940340037F18
:10138200FF22EFC43354E0FFE5AF54DF4FF5AFE483
:02139200FF2238
:10006600EFD3940140037FFF22EDD3940340037F37
:10007600FF22EFC4333354C0FFE5AF54BF4FF5AF93
:03008600E4FF2272
:10116100EFD3940140037FFF22EDD3940340037F2B
:10117100FF22EF7004C2A88002D2A8ED700553B718
:10118100FEC2B8BD010553B7FED2B8BD020543B7D3
:0E11910001C2B8BD030543B701D2B87F0022EA
:10119F00EFD3940140037FFF22EDD3940340037FED
:1011AF00FF22EF7004C2AA8002D2AAED700553B7D6
:1011BF00FBC2BABD010553B7FBD2BABD020543B797
:0E11CF0004C2BABD030543B704D2BA7F0022A2
:1013B500EFD3940140037FFF22EFC454F0FFE58F84
:0813C50054EF4FF58FE4FF2205
:10004600EFD3940140037FFF22EFC43354E0FFE572
:090056008F54DF4FF58FE4FF2207
:10002600EFD3940140037FFF22EFC4333354C0FF64
:0A003600E58F54BF4FF58FE4FF2261
:1011DD00EFD3940140037FFF22EDD3940340037FAF
:1011ED00FF22EF7004C2AD8002D2ADED700553B792
:1011FD00DFC2BDBD010553B7DFD2BDBD020543B78B
:0E120D0020C2BDBD030543B720D2BD7F002225
:100F4A00EDD3940340037FFF22EF30E10543E6200F
:100F5A00800353E6DFEF30E00543E610800353E6F3
:100F6A00EFED700653B6DF53B5DFBD010653B6DFAA
:100F7A0043B520BD020643B62053B5DFBD03064381
:080F8A00B62043B5207F0022D0
:100E1600EFD3940140037FFF22EBD3940340037F7B
:100E2600FF22BF0112ED90FE817006E0547FF08034
:100E360011E04480F0800BEF700890FE83E0548749
:100E46004DF0EB700653B6DF53B5DFBB010653B664
:100E5600DF43B520BB020643B62053B5DFBB03060E
:090E660043B62043B5207F0022B1
:10121B00EFD3940140037FFF22EDD3940340037F70
:10122B00FF22EF7004C2AC8002D2ACED700553B755
:10123B00EFC2BCBD010553B7EFD2BCBD020543B72E
:0E124B0010C2BCBD030543B710D2BC7F002209
:1010A500EFD3940140037FFF22EDD3940340037FE8
:1010B500FF22E5AF54FE4FF5AFED700653B6FE5374
:1010C500B5FEBD010653B6FE43B501BD020643B6E6
:1010D5000153B5FEBD030643B60143B5017F0022AA
:100F9200EFD3940140037FFF22EDD3940340037FFC
:100FA200FF22EF33333354F8FFE5AF54F74FF5AF79
:100FB200ED700653EEFE53DFFEBD010653EEFE4317
:100FC200DF01BD020643EE0153DFFEBD030643EE21
:070FD2000143DF017F002253
:100FD900EFD3940140037FFF22EDD3940340037FB5
:100FE900FF22EFC454F0FFE5AF54EF4FF5AFED70BA
:100FF9000653EEFD53DFFDBD010653EEFD43DF024F
:10100900BD020643EE0253DFFDBD030643EE024374
:05101900DF027F002250
:10101E00EFD3940140037FFF22EDD3940340037F6F
:10102E00FF22EF25E0FFE5AF54FD4FF5AFED700663
:10103E0053B6FD53B5FDBD010653B6FD43B502BD16
:10104E00020643B60253B5FDBD030643B60243B5D1
:04105E00027F0022EB
:100D9C00EFD3948140037FFF22EBD3940340037F76
:100DAC00FF22EF247F603004705890FEC4EDF0EB0E
:100DBC00700653B6FB53B5FBBB010653B6FB43B5EC
:100DCC0004BB020643B60453B5FBEB640370384313
:100DDC00B60443B504803090FEE4EDF0EB7006539E
:100DEC00B6F753B5F7BB010653B6F743B508BB02CC
:100DFC000643B60853B5F7BB030D43B60843B50815
:0A0E0C00800590FEE4EDF07F002267
:10129400EDD394035026ED700653EEFB53DFFBBDF4
:1012A400010653EEFB43DF04BD020643EE0453DFA5
:1012B400FBBD030B43EE0443DF0480037FFF229056
:0712C400FE62EFF07F002243
:0F1419007D607C09ED1D70011C144C70F7DFF134
:0114280022A1
:0800A6008F268B278A28892987
:1000AE00E5266401600302021CF508F509F50AF560
:1000BE000BF50CF52AF52B7440252BF582740135C2
:1000CE002AF583E4F0052BE52B7002052A648045A2
:1000DE002A70E4E4F52AF52B7400252BF5827400C2
:1000EE00352AF583E4F0052BE52B7002052A648092
:1000FE00452A70E4AB27AA28A929120A3BFFE598E6
:10010E00543F4FF598EF64C06008EF6440600302FF
:10011E0001D1900002120BAB7F807E8D7D5B7C0047
:10012E00120AF58F2F8E2E8D2D8C2CE4FFFE7D0165
:10013E00FCAB2FAA2EA92DA82CC3120B8740037F30
:10014E00FF22C3E4952FF52FE4952EF52E7401951D
:10015E002DF52DE4952CF52CAB27AA28A929900076
:10016E0001120A54FB6401702CC28E538EFE538909
:10017E00BF5389CF438E40AF2FAE2EAD2DAC2C7812
:10018E0008120B988F8D852F8BC2AB5389BF538F5F
:10019E00FDD28E8062EB64027026538EEF438E0189
:1001AE00538EF7438E04AF2FAE2EAD2DAC2C7808A8
:1001BE00120B988FD6852FD753AFFB438E108037F7
:1001CE007FFF22AB27AA28A929120A3BFF701390A2
:1001DE000008120A54B40105438E20801A538EDF94
:1001EE008015EFB48011900008120A54B401054333
:1001FE008780800353877FAB27AA28A92990000701
:10020E00120A547004C29C8002D29C7F0022E52602
:10021E0064026003020315F50DF50EF50FF510F5EA
:10022E0011F52AF52B74E0252BF5827401352AF58C
:10023E0083E4F0052BE52B7002052A6480452A70B5
:10024E00E4E4F52AF52B7480252BF5827400352A0B
:10025E00F583E4F0052BE52B7002052A6480452A10
:10026E0070E4AB27AA28A929120A3BFF64C06005D7
:10027E00EF64407075EFB4C005439A808003539AC3
:10028E007F900002120BAB7F807E8D7D5B7C001217
:10029E000AF58F2F8E2E8D2D8C2CE4FFFE7D01FC0A
:1002AE00AB2FAA2EA92DA82CC3120B8740037FFFBC
:1002BE0022C3E4952FF52FE4952EF52E7401952D7E
:1002CE00F52DE4952CF52C538EEF538EF7438E04BB
:1002DE00AF2FAE2EAD2DAC2C7808120B988FD68585
:1002EE002FD753AFFB438E1080037FFF22AB27AA7D
:1002FE0028A929900007120A54C454F0FFE59A5415
:10030E00EF4FF59A7F0022E526640360030204494D
:10031E00F512F513F514F515F516F52AF52B74608F
:10032E00252BF5827402352AF583E4F0052BE52B97
:10033E007002052A6440452A70E4E4F52AF52B7410
:10034E0000252BF5827401352AF583E4F0052BE5A3
:10035E002B7002052A6440452A70E4AB27AA28A90F
:10036E0029120A3BFF64C06008EF64406003020478
:10037E002CEFB4C00543AC80800353AC7F900002D9
:10038E00120BAB7F807E8D7D5B7C00120AF58F2F6A
:10039E008E2E8D2D8C2CE4FFFE7D01FCAB2FAA2E14
:1003AE00A92DA82CC3120B8740037FFF22C3E4950F
:1003BE002FF52FE4952EF52E7401952DF52DE49540
:1003CE002CF52CAB27AA28A929900001120A54FB60
:1003DE00B4031D43AC40AF2FAE2EAD2DAC2C780820
:1003EE00120B988FD4852FD553D1F043D10A80317B
:1003FE00EB64027026538EEF53ACBF538EF7438ED1
:10040E0004AF2FAE2EAD2DAC2C7808120B988FD6D4
:10041E00852FD753AFFB438E1080067FFF227FFFC1
:10042E0022AB27AA28A929900007120A54C454F017
:10043E00FFE5AC54EF4FF5AC7F0022E52664046077
:10044E000302057DF517F518F519F51AF51BF52AB2
:10045E00F52B74A0252BF5827402352AF583E4F072
:10046E00052BE52B7002052A6420452A70E4E4F57D
:10047E002AF52B74C0252BF5827401352AF583E4F9
:10048E00F0052BE52B7002052A6420452A70E4AB9B
:10049E0027AA28A929120A3BFF64C06008EF64400E
:1004AE006003020560EFB4C005438480800353846B
:1004BE007F900002120BAB7F807E8D7D5B7C0012E5
:1004CE000AF58F2F8E2E8D2D8C2CE4FFFE7D01FCD8
:1004DE00AB2FAA2EA92DA82CC3120B8740037FFF8A
:1004EE0022C3E4952FF52FE4952EF52E7401952D4C
:1004FE00F52DE4952CF52CAB27AA28A929900001FF
:10050E00120A54FBB4041D438440AF2FAE2EAD2D02
:10051E00AC2C7808120B988FD2852FD353D10F4362
:10052E00D1A08031EB64027026538EEF5384BF53FB
:10053E008EF7438E04AF2FAE2EAD2DAC2C78081255
:10054E000B988FD6852FD753AFFB438E1080067F27
:10055E00FF227FFF22AB27AA28A929900007120AA3
:10056E0054C454F0FFE58454EF4FF5847F00227F8E
:01057E00FF7D
:01057F002259
:0A000E008F99750A01E50A70FC22C3
:1013CD00120A3BFF600C12000E740129F9E43AFA7F
:0313DD0080EE227D
:0A1429008F9B750F01E50F70FC2288
:1013E000120A3BFF600C121429740129F9E43AFA3D
:0313F00080EE226A
:0A1433008FAD751401E51470FC2262
:1013F300120A3BFF600C121433740129F9E43AFA20
:0314030080EE2256
:0A143D008F85751901E51970FC2276
:10140600120A3BFF600C12143D740129F9E43AFA02
:0314160080EE2243
:05000300AE0702000E33
:0300230002106266
:10106200C0E0C083C082C0D075D000C007309820D5
:10107200C298E50BC394804003750B00AF0B050BC0
:1010820074002FF582E43400F583E599F0750C05C0
:10109200309905C299750A00D007D0D0D082D0838A
:0310A200D0E03269
:03004300020E6F3B
:100E6F00C0E0C083C082C0D075D000C007E59A3003
:100E7F00E021539AFEE510C394804003751000AF34
:100E8F0010051074802FF582E43400F583E59BF094
:100E9F00751105E59A30E106539AFD750F00D007DD
:090EAF00D0D0D082D083D0E03213
:03008B00020EB8AA
:100EB800C0E0C083C082C0D075D000C007E5AC30A8
:100EC800E02153ACFEE515C394404003751500AF0F
:100ED80015051574002FF582E43401F583E5ADF0AE
:100EE800751605E5AC30E10653ACFD751400D00766
:090EF800D0D0D082D083D0E032CA
:03009300020F0158
:100F0100C0E0C083C082C0D075D000C007E5843086
:100F1100E0215384FEE51AC394204003751A00AF03
:100F21001A051A74C02FF582E43401F583E585F0C2
:100F3100751B05E58430E1065384FD751900D00762
:090F4100D0D0D082D083D0E03280
:03000000020D10DE
:0C0D1000787FE4F6D8FD758130020D57A5
:100A3B00BB010689828A83E0225002E722BBFE02B9
:090A4B00E32289828A83E49322EC
:100A5400BB010CE58229F582E5833AF583E0225057
:100A640006E92582F8E622BBFE06E92582F8E222A1
:0D0A7400E58229F582E5833AF583E49322BB
:100A8100BB0110E58229F582E5833AF583E0F5F0B3
:100A9100A3E0225009E92582F886F008E622BBFE90
:100AA1000AE92582F8E2F5F008E222E5832AF583D6
:080AB100E993F5F0A3E993229B
:100AB90075F008758200EF2FFFEE33FECD33CDCCF4
:100AC90033CCC58233C5829BED9AEC99E582984077
:100AD9000CF582EE9BFEED9AFDEC99FC0FD5F0D654
:100AE900E4CEFBE4CDFAE4CCF9A88222B800C1B97E
:100AF9000059BA002DEC8BF084CFCECDFCE5F0CBBC
:100B0900F97818EF2FFFEE33FEED33FDEC33FCEBF4
:100B190033FB10D703994004EB99FB0FD8E5E4F9AF
:100B2900FA227818EF2FFFEE33FEED33FDEC33FC9C
:100B3900C933C910D7059BE99A4007EC9BFCE99A90
:100B4900F90FD8E0E4C9FAE4CCFB2275F010EF2FD5
:100B5900FFEE33FEED33FDCC33CCC833C810D707D5
:100B69009BEC9AE899400AED9BFDEC9AFCE899F810
:0E0B79000FD5F0DAE4CDFBE4CCFAE4C8F922A3
:100B8700EB9FF5F0EA9E42F0E99D42F0E89C45F0C4
:010B9700223B
:100B9800E8600FECC313FCED13FDEE13FEEF13FF3B
:030BA800D8F1225F
:100BAB00BB010DE58229F582E5833AF583020BE85B
:100BBB005007E92582F8020BDBBBFE07E92582F81B
:100BCB00020BF4E58229F582E5833AF583020C01E9
:100D1C00020C11E493A3F8E493A34003F68001F2D0
:100D2C0008DFF48029E493A3F85407240CC8C333D8
:100D3C00C4540F4420C8834004F456800146F6DFA7
:100D4C00E4800B010204081020408090001EE47E19
:100D5C00019360BCA3FF543F30E509541FFEE4939C
:100D6C00A360010ECF54C025E060A840B8E493A363
:100D7C00FAE493A3F8E493A3C8C582C8CAC583CA8E
:100D8C00F0A3C8C582C8CAC583CADFE9DEE780BE46
:0100210000DE
:0D0BDB00E6FB08E6F908E6FA08E6CBF8228A
:0C0BE800E0F8A3E0F9A3E0FAA3E0FB2290
:0D0BF400E2FB08E2F908E2FA08E2CBF82281
:100C0100E493F8740193F9740293FA740393FB2249
:00000001FF
