:10131600B5DA2564D0D0B5DA2564C1D0B0B4C5A598
:10132600646F776D0A00B5DA20256420D0D02025B9
:0D1336006420C1D0B0B4C5A55570210A00D7
:101422000146011036010101010101010101010121
:051432000101010101B0
:1000260053933753943753917F53927F53B1CF53A2
:09003600B2CF53B3FC53B4FC2219
:1012E900750840750901750D00750CC2750B0175FE
:1012F9000A00750F01E4F510FB7A0079087F0112E5
:0C13090000967D017F0112127453A23F78
:0113150022B5
:10134300EF7003C38001D392B4BF0103C38001D301
:1013530092B5BF0203C38001D392C0BF0303C3800E
:0513630001D392C1223C
:10138B00EF7005A28333FF22BF0104A286800CBF3E
:10139B000204A2878005BF0306A297E433FF227FD6
:0213AB0000221E
:100D0600E4F508AF08121343E4F509AF0912138B93
:100D1600EF703AE50825E025E025092436F8E66077
:100D26002C7BFF7A137916E5082401F50EE433F5DA
:100D36000DE5092401F510E433F50F1205D2E50897
:100D460025E025E025092436F8E4F68042AF0912AD
:100D5600138BEF64017038E50825E025E0250924AA
:100D660036F8E6702A7BFF7A13792CE5082401F51C
:100D76000EE433F50DE5092401F510E433F50F1201
:100D860005D2E50825E025E025092436F876010593
:100D960009E509C394045003020D110508E508C3CB
:070DA60094045003020D0943
:010DAD002223
:0D1494001200261212E9D2AF120D0680FBE5
:0F1484007D607C09ED1D70011C144C70F7DFF1C9
:011493002236
:1008CC00EFD3940740037FFF22120B20FED3940337
:1008DC0040037FFF22EF7041EE700B900001120B72
:1008EC0039F452935294120B20B4010B9000011264
:1008FC000B394293F45294120B20FEB4020A90006E
:10090C0001120B3942934294EEB4030D9000011284
:10091C000B39FEF45293EE4294EF64017043120BC8
:10092C0020FE700B900001120B39F452915292EE92
:10093C00B4010B900001120B394291F45292120B3C
:10094C0020B4020A900001120B3942914292120B10
:10095C0020B4030D900001120B39FEF45291EE42BB
:10096C0092EF64027043120B20FE700B9000011288
:10097C000B39F452955296EEB4010B900001120B08
:10098C00394295F45296120B20B4020A90000112CF
:10099C000B3942954296120B20B4030D90000112B4
:1009AC000B39FEF45295EE4296EF64037043120B32
:1009BC0020FE700B900001120B39F452B152B2EEC2
:1009CC00B4010B900001120B3942B1F452B2120B6C
:1009DC0020B4020A900001120B3942B142B2120B40
:1009EC0020B4030D900001120B39FEF452B1EE420B
:1009FC00B2EF64047043120B20FE700B90000112D6
:100A0C000B39F452B352B4EEB4010B900001120B3B
:100A1C003942B3F452B4120B20B4020A9000011202
:100A2C000B3942B342B4120B20B4030D90000112E7
:100A3C000B39FEF452B3EE42B4EF64057043120B63
:100A4C0020FE700B900001120B39F452C952CAEE01
:100A5C00B4010B900001120B3942C9F452CA120BAB
:100A6C0020B4020A900001120B3942C942CA120B7F
:100A7C0020B4030D900001120B39FEF452C9EE4262
:100A8C00CAEF64067043120B20FE700B900001122B
:100A9C000B39F452CB52CCEEB4010B900001120B7B
:100AAC003942CBF452CC120B20B4020A9000011242
:100ABC000B3942CB42CC120B20B4030D9000011227
:100ACC000B39FEF452CBEE42CCEF64077043120BA1
:100ADC0020FF700B900001120B39F452E152E2EF3F
:100AEC00B4010B900001120B3942E1F452E2120BEB
:100AFC0020B4020A900001120B3942E142E2120BBF
:100B0C0020B4030D900001120B39FFF452E1EF42B7
:040B1C00E27F002252
:10113E00EFD3940140037FFF22EDD3940340037F4E
:10114E00FF22EF7004C2A98002D2A9ED700553B739
:10115E00FDC2B9BD010553B7FDD2B9BD020543B7F6
:0E116E0002C2B9BD030543B702D2B97F002209
:10117C00EFD3940140037FFF22EDD3940340037F10
:10118C00FF22EF7004C2AB8002D2ABED700553B7F7
:10119C00F7C2BBBD010553B7F7D2BBBD020543B7C0
:0E11AC0008C2BBBD030543B708D2BB7F0022BB
:1013AD00EFD3940140037FFF22EDD3940340037FDD
:1013BD00FF22EF25E025E0FFE5AF54FB4FF5AFE44D
:0213CD00FF22FD
:1013CF00EFD3940140037FFF22EDD3940340037FBB
:1013DF00FF22EFC43354E0FFE5AF54DF4FF5AFE426
:0213EF00FF22DB
:10136800EFD3940140037FFF22EDD3940340037F22
:10137800FF22EFC4333354C0FFE5AF54BF4FF5AF7E
:03138800E4FF225D
:1011BA00EFD3940140037FFF22EDD3940340037FD2
:1011CA00FF22EF7004C2A88002D2A8ED700553B7BF
:1011DA00FEC2B8BD010553B7FED2B8BD020543B77A
:0E11EA0001C2B8BD030543B701D2B87F002291
:1011F800EFD3940140037FFF22EDD3940340037F94
:10120800FF22EF7004C2AA8002D2AAED700553B77C
:10121800FBC2BABD010553B7FBD2BABD020543B73D
:0E12280004C2BABD030543B704D2BA7F002248
:10140A00EFD3940140037FFF22EFC454F0FFE58F2E
:08141A0054EF4FF58FE4FF22AF
:1013F100EFD3940140037FFF22EFC43354E0FFE5B4
:091401008F54DF4FF58FE4FF2248
:10000300EFD3940140037FFF22EFC4333354C0FF87
:0A001300E58F54BF4FF58FE4FF2284
:10123600EFD3940140037FFF22EDD3940340037F55
:10124600FF22EF7004C2AD8002D2ADED700553B738
:10125600DFC2BDBD010553B7DFD2BDBD020543B731
:0E12660020C2BDBD030543B720D2BD7F0022CC
:100FE800EDD3940340037FFF22EF30E10543E62071
:100FF800800353E6DFEF30E00543E610800353E655
:10100800EFED700653B6DF53B5DFBD010653B6DF0B
:1010180043B520BD020643B62053B5DFBD030643E2
:08102800B62043B5207F002231
:100EB400EFD3940140037FFF22EBD3940340037FDD
:100EC400FF22BF0112ED90FE817006E0547FF08096
:100ED40011E04480F0800BEF700890FE83E05487AB
:100EE4004DF0EB700653B6DF53B5DFBB010653B6C6
:100EF400DF43B520BB020643B62053B5DFBB030670
:090F040043B62043B5207F002212
:10127400EFD3940140037FFF22EDD3940340037F17
:10128400FF22EF7004C2AC8002D2ACED700553B7FC
:10129400EFC2BCBD010553B7EFD2BCBD020543B7D5
:0E12A40010C2BCBD030543B710D2BC7F0022B0
:1010FE00EFD3940140037FFF22EDD3940340037F8F
:10110E00FF22E5AF54FE4FF5AFED700653B6FE531A
:10111E00B5FEBD010653B6FE43B501BD020643B68C
:10112E000153B5FEBD030643B60143B5017F002250
:10103000EFD3940140037FFF22EDD3940340037F5D
:10104000FF22EF33333354F8FFE5AF54F74FF5AFDA
:10105000ED700653EEFE53DFFEBD010653EEFE4378
:10106000DF01BD020643EE0153DFFEBD030643EE82
:071070000143DF017F0022B4
:10004600EFD3940140037FFF22EDD3940340037F57
:10005600FF22EFC454F0FFE5AF54EF4FF5AFED705C
:100066000653EEFD53DFFDBD010653EEFD43DF02F1
:10007600BD020643EE0253DFFDBD030643EE024317
:05008600DF027F0022F3
:10107700EFD3940140037FFF22EDD3940340037F16
:10108700FF22EF25E0FFE5AF54FD4FF5AFED70060A
:1010970053B6FD53B5FDBD010653B6FD43B502BDBD
:1010A700020643B60253B5FDBD030643B60243B578
:0410B700027F002292
:100E3A00EFD3948140037FFF22EBD3940340037FD7
:100E4A00FF22EF247F603004705890FEC4EDF0EB6F
:100E5A00700653B6FB53B5FBBB010653B6FB43B54D
:100E6A0004BB020643B60453B5FBEB640370384374
:100E7A00B60443B504803090FEE4EDF0EB700653FF
:100E8A00B6F753B5F7BB010653B6F743B508BB022D
:100E9A000643B60853B5F7BB030D43B60843B50876
:0A0EAA00800590FEE4EDF07F0022C9
:1012B200EDD394035026ED700653EEFB53DFFBBDD6
:1012C200010653EEFB43DF04BD020643EE0453DF87
:1012D200FBBD030B43EE0443DF0480037FFF229038
:0712E200FE62EFF07F002225
:080096008F118B128A138914EB
:10009E00E5116401600302020CF522F523F524F547
:1000AE0025F526F515F51674402516F582740135DD
:1000BE0015F583E4F00516E5167002051564804506
:1000CE001570E4E4F515F51674002516F582740026
:1000DE003515F583E4F00516E516700205156480F6
:1000EE00451570E4AB12AA13A914120B20FFE59864
:1000FE00543F4FF598EF64C06008EF644060030210
:10010E0001C1900002120C587F807E8D7D5B7C00B9
:10011E00120BA28F1A8E198D188C17E4FFFE7D011B
:10012E00FCAB1AAA19A918A817C3120C3440037FE6
:10013E00FF22C3E4951AF51AE49519F51974019581
:10014E0018F518E49517F517AB12AA13A914900019
:10015E0001120B39FB6401702CC28E538EFE538933
:10016E00BF5389CF438E40AF1AAE19AD18AC177876
:10017E0008120C458F8D851A8BC2AB5389BF538FD6
:10018E00FDD28E8062EB64027026538EEF438E0199
:10019E00538EF7438E04AF1AAE19AD18AC1778080C
:1001AE00120C458FD6851AD753AFFB438E1080376E
:1001BE007FFF22AB12AA13A914120B20FF7013900B
:1001CE000008120B39B40105438E20801A538EDFBE
:1001DE008015EFB48011900008120B39B40105435D
:1001EE008780800353877FAB12AA13A91490000750
:1001FE00120B397004C29C8002D29C7F0022E51142
:10020E0064026003020305F527F528F529F52AF5A2
:10021E002BF515F51674E02516F58274013515F5D6
:10022E0083E4F00516E51670020515648045157019
:10023E00E4E4F515F51674802516F582740035156F
:10024E00F583E4F00516E516700205156480451574
:10025E0070E4AB12AA13A914120B20FF64C0600540
:10026E00EF64407075EFB4C005439A808003539AD3
:10027E007F900002120C587F807E8D7D5B7C001279
:10028E000BA28F1A8E198D188C17E4FFFE7D01FCC0
:10029E00AB1AAA19A918A817C3120C3440037FFF72
:1002AE0022C3E4951AF51AE49519F51974019518F7
:1002BE00F518E49517F517538EEF538EF7438E040A
:1002CE00AF1AAE19AD18AC177808120C458FD6853B
:1002DE001AD753AFFB438E1080037FFF22AB12AAB7
:1002EE0013A914900007120B39C454F0FFE59A5469
:1002FE00EF4FF59A7F0022E5116403600302043983
:10030E00F52CF52DF52EF52FF530F515F516746047
:10031E002516F58274023515F583E4F00516E516FB
:10032E00700205156440451570E4E4F515F5167474
:10033E00002516F58274013515F583E4F00516E5F2
:10034E0016700205156440451570E4AB12AA13A988
:10035E0014120B20FF64C06008EF644060030204B7
:10036E001CEFB4C00543AC80800353AC7F900002F9
:10037E00120C587F807E8D7D5B7C00120BA28F1A33
:10038E008E198D188C17E4FFFE7D01FCAB1AAA198D
:10039E00A918A817C3120C3440037FFF22C3E4959B
:1003AE001AF51AE49519F51974019518F518E495CE
:1003BE0017F517AB12AA13A914900001120B39FBF3
:1003CE00B4031D43AC40AF1AAE19AD18AC17780884
:1003DE00120C458FD4851AD553D1F043D10A8031F2
:1003EE00EB64027026538EEF53ACBF538EF7438EE1
:1003FE0004AF1AAE19AD18AC177808120C458FD68B
:10040E00851AD753AFFB438E1080067FFF227FFFE6
:10041E0022AB12AA13A914900007120B39C454F080
:10042E00FFE5AC54EF4FF5AC7F0022E5116404609C
:10043E000302056DF531F532F533F534F535F51565
:10044E00F51674A02516F58274023515F583E4F0C1
:10045E000516E516700205156420451570E4E4F5E1
:10046E0015F51674C02516F58274013515F583E45D
:10047E00F00516E516700205156420451570E4ABFF
:10048E0012AA13A914120B20FF64C06008EF644077
:10049E006003020550EFB4C005438480800353848B
:1004AE007F900002120C587F807E8D7D5B7C001247
:1004BE000BA28F1A8E198D188C17E4FFFE7D01FC8E
:1004CE00AB1AAA19A918A817C3120C3440037FFF40
:1004DE0022C3E4951AF51AE49519F51974019518C5
:1004EE00F518E49517F517AB12AA13A9149000018D
:1004FE00120B39FBB4041D438440AF1AAE19AD186C
:10050E00AC177808120C458FD2851AD353D10F43EE
:10051E00D1A08031EB64027026538EEF5384BF530B
:10052E008EF7438E04AF1AAE19AD18AC17780812B9
:10053E000C458FD6851AD753AFFB438E1080067F9E
:10054E00FF227FFF22AB12AA13A914900007120BF1
:10055E0039C454F0FFE58454EF4FF5847F00227FB9
:01056E00FF8D
:01056F002269
:0A14A1008F99752401E52470FC22E8
:10143800120B20FF600C1214A1740129F9E43AFA86
:0314480080EE2211
:0A14AB008F9B752901E52970FC22D2
:10144B00120B20FF600C1214AB740129F9E43AFA69
:03145B0080EE22FE
:0A14B5008FAD752E01E52E70FC22AC
:10145E00120B20FF600C1214B5740129F9E43AFA4C
:03146E0080EE22EB
:0A14BF008F85753301E53370FC22C0
:10147100120B20FF600C1214BF740129F9E43AFA2F
:0314810080EE22D8
:05001D00AE070214A172
:030023000210BB0D
:1010BB00C0E0C083C082C0D075D000C0073098207C
:1010CB00C298E525C394804003752500AF250525FF
:1010DB0074002FF582E43400F583E599F07526054D
:1010EB00309905C299752400D007D0D0D082D08317
:0310FB00D0E03210
:03004300020F0D9C
:100F0D00C0E0C083C082C0D075D000C007E59A3064
:100F1D00E021539AFEE52AC394804003752A00AF61
:100F2D002A052A74802FF582E43400F583E59BF0C1
:100F3D00752B05E59A30E106539AFD752900D0070A
:090F4D00D0D0D082D083D0E03274
:03008B00020F560B
:100F5600C0E0C083C082C0D075D000C007E5AC3009
:100F6600E02153ACFEE52FC394404003752F00AF3C
:100F76002F052F74002FF582E43401F583E5ADF0DB
:100F8600753005E5AC30E10653ACFD752E00D00793
:090F9600D0D0D082D083D0E0322B
:03009300020F9FBA
:100F9F00C0E0C083C082C0D075D000C007E58430E8
:100FAF00E0215384FEE534C394204003753400AF31
:100FBF0034053474C02FF582E43401F583E585F0F0
:100FCF00753505E58430E1065384FD753300D00790
:090FDF00D0D0D082D083D0E032E2
:03000000020DAE40
:0C0DAE00787FE4F6D8FD758146020DF553
:100B2000BB010689828A83E0225002E722BBFE02D3
:090B3000E32289828A83E4932206
:100B3900BB010CE58229F582E5833AF583E0225071
:100B490006E92582F8E622BBFE06E92582F8E222BB
:0D0B5900E58229F582E5833AF583E49322D5
:100B660075F008758200EF2FFFEE33FECD33CDCC46
:100B760033CCC58233C5829BED9AEC99E5829840C9
:100B86000CF582EE9BFEED9AFDEC99FC0FD5F0D6A6
:100B9600E4CEFBE4CDFAE4CCF9A88222B800C1B9D0
:100BA6000059BA002DEC8BF084CFCECDFCE5F0CB0E
:100BB600F97818EF2FFFEE33FEED33FDEC33FCEB47
:100BC60033FB10D703994004EB99FB0FD8E5E4F902
:100BD600FA227818EF2FFFEE33FEED33FDEC33FCEF
:100BE600C933C910D7059BE99A4007EC9BFCE99AE3
:100BF600F90FD8E0E4C9FAE4CCFB2275F010EF2F28
:100C0600FFEE33FEED33FDCC33CCC833C810D70727
:100C16009BEC9AE899400AED9BFDEC9AFCE899F862
:0E0C26000FD5F0DAE4CDFBE4CCFAE4C8F922F5
:100C3400EB9FF5F0EA9E42F0E99D42F0E89C45F016
:010C4400228D
:100C4500E8600FECC313FCED13FDEE13FEEF13FF8D
:030C5500D8F122B1
:100C5800BB010DE58229F582E5833AF583020CA7ED
:100C68005007E92582F8020C9ABBFE07E92582F8AD
:100C7800020CB3E58229F582E5833AF583020CC0BC
:10057000E519240DF8E6051922780A300702780DEE
:10058000E475F001120CD0020B202000EB7F2ED27C
:10059000008018EF540F2490D43440D4FF30040B63
:1005A000EF24BFB41A0050032461FFE51A6002155E
:1005B0001A051DE51D7002051C30070D780AE4754B
:1005C000F001120CD0EF020C8802001D7403D20758
:1005D0008003E4C207F5198B0A8A0B890CE4F51A2B
:1005E000F51CF51DE51A60077F201205AB80F57537
:1005F0001BFFC201C200C202C203C205C206C2087A
:10060000120579FF700D3007057F001205BCAF1D84
:10061000AE1C22B4255FC2D5C204120579FF24D0D6
:10062000B40A00501A75F00A781A30D50508B6FFDA
:100630000106C6A426F620D5047002D20380D92470
:10064000CFB41A00EF5004C2E5D2040207BCD201B5
:1006500080C6D20080C0D20280BCD2D580BAD2057A
:1006600080B47F201205AB2002077401B51A004048
:10067000F1120570FF1205AB0205E4D208D2068024
:1006800095120570FB120570FA120570F94A4B704D
:1006900006798D7A087BFF20022EE51A602A7E00FB
:1006A0008E82758300120B3960060EEE651B70F0AA
:1006B000C2D5EBC0E0EAC0E0E9C0E0EE120803D02A
:1006C000E0F9D0E0FAD0E0FB120B20FF60AAEBC00B
:1006D000E0EAC0E0E9C0E01205ABD0E02401F9D0C7
:1006E000E03400FAD0E0FBE51B0460DCD51BD980C8
:1006F000877BFF7A0779FFD202809C79108002798C
:1007000008C206C2088008D2D5790A8004790AC2D4
:10071000D5E51B047002F51BE4FAFDFEFF1205701F
:10072000FC7B08200113120570FD7B1030000A12BB
:100730000570FE120570FF7B20EC3382D592D550F8
:1007400013C3E43000069FFFE49EFEE42001039DF6
:10075000FDE49CFCE4CBF8C201EC700CCFCECDCC18
:10076000E824F8F870F38017C3EF33FFEE33FEEDA3
:1007700033FDEC33FCEB33FB994002FB0FD8E9EB84
:10078000300105F8D0E0C448B201C0E00AEC4D4E9B
:100790004F78207B0070C2EAB51B0040BCC0E0125D
:1007A0000805D0F0D0E0200104C4C0E0C4B201C00C
:1007B000F0120594D0F0D5F0EB0205E4120CE0063F
:1007C000815306FB5806524C064E4206FF4F070760
:0F07D00044070749066743070D5506F14606F132
:1007DF004506F14708AD5006562D065A2E067D2BBD
:1007EF00065E23067B2008962A061648000006752B
:1007FF003F3F3F00790AA2D5200314300509B910F5
:10080F00020404B9080104A2D520060250010420F5
:10081F0002689202B51A005034C0E07F20300319ED
:10082F007F30A20272067205500F12085CC202C21C
:10083F0006C205C2087F30800F300503E9C0E01201
:10084F0005AB300503D0E0F9D0E0B51ACC30051771
:10085F007F30B9100C1205AB7F583004077F7880BA
:10086F0003B908031205AB3002057F2D0205AB7FDC
:10087F00202008F87F2B2006F322920280CF286ECB
:10088F00756C6C2900D2011205703001F8C2017825
:10089F001A30D50108F60206162D50434958120595
:1008AF00702403B405004001E49008A89312059C3E
:0D08BF00743A12059CD203751A040206FB60
:100DBA00021494E493A3F8E493A34003F68001F2A7
:100DCA0008DFF48029E493A3F85407240CC8C3333A
:100DDA00C4540F4420C8834004F456800146F6DF09
:100DEA00E4800B0102040810204080901422E47E63
:100DFA00019360BCA3FF543F30E509541FFEE493FE
:100E0A00A360010ECF54C025E060A840B8E493A3C4
:100E1A00FAE493A3F8E493A3C8C582C8CAC583CAEF
:100E2A00F0A3C8C582C8CAC583CADFE9DEE780BEA7
:0114370000B4
:100C8800BB010689828A83F0225002F722BBFE014B
:020C9800F32245
:0D0C9A00E6FB08E6F908E6FA08E6CBF822CA
:0C0CA700E0F8A3E0F9A3E0FAA3E0FB22D0
:0D0CB300E2FB08E2F908E2FA08E2CBF822C1
:100CC000E493F8740193F9740293FA740393FB228A
:100CD000FAE6FB0808E6F925F0F618E6CA3AF62225
:100CE000D083D082F8E4937012740193700DA3A3A3
:100CF00093F8740193F5828883E4737402936860B7
:060D0000EFA3A3A380DFB6
:00000001FF
