:0603F900040800020005EB
:1003B200120400E4F50CE50C25E02408F808E6FF39
:1003C200AD0C1203D2050CE50CC3940840E880E39F
:10000300EFD3940740037FFF2212034AFED39403E6
:1000130040037FFF22EF7041EE700B90000112034B
:1000230063F45293529412034AB4010B90000112E9
:1000330003634293F4529412034AFEB4020A9000FB
:100043000112036342934294EEB4030D9000011234
:100053000363FEF45293EE4294EF64017043120380
:100063004AFE700B900001120363F452915292EE18
:10007300B4010B9000011203634291F452921203F4
:100083004AB4020A9000011203634291429212039E
:100093004AB4030D900001120363FEF45291EE4241
:1000A30092EF6402704312034AFE700B9000011238
:1000B3000363F452955296EEB4010B9000011203C0
:1000C300634295F4529612034AB4020A9000011255
:1000D30003634295429612034AB4030D9000011242
:1000E3000363FEF45295EE4296EF640370431203EA
:1000F3004AFE700B900001120363F452B152B2EE48
:10010300B4010B90000112036342B1F452B2120323
:100113004AB4020A90000112036342B142B21203CD
:100123004AB4030D900001120363FEF452B1EE4290
:10013300B2EF6404704312034AFE700B9000011285
:100143000363F452B352B4EEB4010B9000011203F3
:100153006342B3F452B412034AB4020A9000011288
:10016300036342B342B412034AB4030D9000011275
:100173000363FEF452B3EE42B4EF6405704312031B
:100183004AFE700B900001120363F452C952CAEE87
:10019300B4010B90000112036342C9F452CA120363
:1001A3004AB4020A90000112036342C942CA12030D
:1001B3004AB4030D900001120363FEF452C9EE42E8
:1001C300CAEF6406704312034AFE700B90000112DB
:1001D3000363F452CB52CCEEB4010B900001120333
:1001E3006342CBF452CC12034AB4020A90000112C8
:1001F300036342CB42CC12034AB4030D90000112B5
:100203000363FEF452CBEE42CCEF64077043120358
:100213004AFF700B900001120363F452E152E2EFC4
:10022300B4010B90000112036342E1F452E21203A2
:100233004AB4020A90000112036342E142E212034C
:100243004AB4030D900001120363FFF452E1EF423D
:04025300E27F002224
:10039000C0F9A4B0999282F8809040792430191263
:1003A000027800107FBF8883C6A1868E89F1C78C32
:0203B00098C1F2
:0704000053B3E353B4E32200
:0202E300A90769
:1002E5007B077E007401A803088005C333CE33CE97
:1002F500D8F9FFE9F582EF558224FF92C4C2C20006
:1003050000D2C200001BC3EB6480948050D47B07ED
:100315007E007401A803088005C333CE33CED8F917
:10032500FFEDF582EF558224FF92C4C2C20000D2D0
:10033500C200001BC3EB6480948050D4C2C300008C
:04034500D2C300001F
:010349002291
:1003D200EF90039093FFAE05A8067401088002C354
:0703E20033D8FCFD0202E329
:0F03E9007D607C09ED1D70011C144C70F7DFF175
:0103F80022E2
:03000000020257A2
:0C025700787FE4F6D8FD75810C02029E51
:10034A00BB010689828A83E0225002E722BBFE02B1
:09035A00E32289828A83E49322E4
:10036300BB010CE58229F582E5833AF583E022504F
:1003730006E92582F8E622BBFE06E92582F8E22299
:0D038300E58229F582E5833AF583E49322B3
:100263000203B2E493A3F8E493A34003F68001F2FC
:1002730008DFF48029E493A3F85407240CC8C3339C
:10028300C4540F4420C8834004F456800146F6DF6B
:10029300E4800B01020408102040809003F9E47EFF
:1002A300019360BCA3FF543F30E509541FFEE49360
:1002B300A360010ECF54C025E060A840B8E493A327
:1002C300FAE493A3F8E493A3C8C582C8CAC583CA52
:1002D300F0A3C8C582C8CAC583CADFE9DEE780BE0A
:0103FF0000FD
:00000001FF
