:0F1A2F007D607C09ED1D70011C144C70F7DFF118
:011A3E002285
:100CDE00EFD3940740037FFF22120F32FED394030B
:100CEE0040037FFF22EF7041EE700B900001120F58
:100CFE004BF452935294120F32B4010B9000011226
:100D0E000F4B4293F45294120F32FEB4020A90002B
:100D1E0001120F4B42934294EEB4030D9000011258
:100D2E000F4BFEF45293EE4294EF64017043120F98
:100D3E0032FE700B900001120F4BF452915292EE54
:100D4E00B4010B900001120F4B4291F45292120F0C
:100D5E0032B4020A900001120F4B42914292120FCE
:100D6E0032B4030D900001120F4BFEF45291EE427D
:100D7E0092EF64027043120F32FE700B900001125C
:100D8E000F4BF452955296EEB4010B900001120FD8
:100D9E004B4295F45296120F32B4020A9000011291
:100DAE000F4B42954296120F32B4030D9000011272
:100DBE000F4BFEF45295EE4296EF64037043120F02
:100DCE0032FE700B900001120F4BF452B152B2EE84
:100DDE00B4010B900001120F4B42B1F452B2120F3C
:100DEE0032B4020A900001120F4B42B142B2120FFE
:100DFE0032B4030D900001120F4BFEF452B1EE42CD
:100E0E00B2EF64047043120F32FE700B90000112A9
:100E1E000F4BF452B352B4EEB4010B900001120F0B
:100E2E004B42B3F452B4120F32B4020A90000112C4
:100E3E000F4B42B342B4120F32B4030D90000112A5
:100E4E000F4BFEF452B3EE42B4EF64057043120F33
:100E5E0032FE700B900001120F4BF452C952CAEEC3
:100E6E00B4010B900001120F4B42C9F452CA120F7B
:100E7E0032B4020A900001120F4B42C942CA120F3D
:100E8E0032B4030D900001120F4BFEF452C9EE4224
:100E9E00CAEF64067043120F32FE700B90000112FF
:100EAE000F4BF452CB52CCEEB4010B900001120F4B
:100EBE004B42CBF452CC120F32B4020A9000011204
:100ECE000F4B42CB42CC120F32B4030D90000112E5
:100EDE000F4BFEF452CBEE42CCEF64077043120F71
:100EEE0032FF700B900001120F4BF452E152E2EF01
:100EFE00B4010B900001120F4B42E1F452E2120FBB
:100F0E0032B4020A900001120F4B42E142E2120F7C
:100F1E0032B4030D900001120F4BFFF452E1EF4279
:040F2E00E27F00223C
:1014F3004B4559302055700A004B45593020446FF5
:10150300776D0A004B4559312055700A004B4559F8
:101513003120446F776D0A004B4559322055700ACC
:10152300004B45593220446F776D0A004B455933C0
:101533002055700A004B45593320446F776D0A00DC
:03003F00011C0F92
:1019B3007523027522037B007A007922E4FF120C5F
:0719C300DE53C9E153CAE144
:0119CA0022FA
:10191F007522407523017527007526C2752501753F
:10192F002400752901E4F52AFB7A0079227F011240
:0C193F0000967D017F011218AA53A23F00
:01194B002279
:1012C8001219B312191FD2AF30C915E51C20E0104E
:1012D8007BFF7A1479F31209E4C281431C01801A56
:1012E80020C917E51C5401D39400400E7BFF7A14E3
:1012F80079FC1209E4D281531CFE30CA13E51C2084
:10130800E10E7BFF7A1579071209E4431C02801865
:1013180020CA15E51C5402D39400400C7BFF7A15B3
:1013280079101209E4531CFD30CB13E51C20E20EA2
:101338007BFF7A15791B1209E4431C04801820CB23
:1013480015E51C5404D39400400C7BFF7A157924CE
:101358001209E4531CFB30CC13E51C20E30E7BFF81
:101368007A15792F1209E4431C08801820CC15E55A
:101378001C5408D39400400C7BFF7A157938120965
:0C138800E4531CF77F0A121A2F0212D047
:10177400EFD3940140037FFF22EDD3940340037F12
:10178400FF22EF7004C2A98002D2A9ED700553B7FD
:10179400FDC2B9BD010553B7FDD2B9BD020543B7BA
:0E17A40002C2B9BD030543B702D2B97F0022CD
:1017B200EFD3940140037FFF22EDD3940340037FD4
:1017C200FF22EF7004C2AB8002D2ABED700553B7BB
:1017D200F7C2BBBD010553B7F7D2BBBD020543B784
:0E17E20008C2BBBD030543B708D2BB7F00227F
:10196F00EFD3940140037FFF22EDD3940340037F15
:10197F00FF22EF25E025E0FFE5AF54FB4FF5AFE485
:02198F00FF2235
:10199100EFD3940140037FFF22EDD3940340037FF3
:1019A100FF22EFC43354E0FFE5AF54DF4FF5AFE45E
:0219B100FF2213
:10194C00EFD3940140037FFF22EDD3940340037F38
:10195C00FF22EFC4333354C0FFE5AF54BF4FF5AF94
:03196C00E4FF2273
:1017F000EFD3940140037FFF22EDD3940340037F96
:10180000FF22EF7004C2A88002D2A8ED700553B782
:10181000FEC2B8BD010553B7FED2B8BD020543B73D
:0E18200001C2B8BD030543B701D2B87F002254
:10182E00EFD3940140037FFF22EDD3940340037F57
:10183E00FF22EF7004C2AA8002D2AAED700553B740
:10184E00FBC2BABD010553B7FBD2BABD020543B701
:0E185E0004C2BABD030543B704D2BA7F00220C
:1019CB00EFD3940140037FFF22EFC454F0FFE58F68
:0819DB0054EF4FF58FE4FF22E9
:10002600EFD3940140037FFF22EFC43354E0FFE592
:090036008F54DF4FF58FE4FF2227
:10000300EFD3940140037FFF22EFC4333354C0FF87
:0A001300E58F54BF4FF58FE4FF2284
:10186C00EFD3940140037FFF22EDD3940340037F19
:10187C00FF22EF7004C2AD8002D2ADED700553B7FC
:10188C00DFC2BDBD010553B7DFD2BDBD020543B7F5
:0E189C0020C2BDBD030543B720D2BD7F002290
:10161E00EDD3940340037FFF22EF30E10543E62034
:10162E00800353E6DFEF30E00543E610800353E618
:10163E00EFED700653B6DF53B5DFBD010653B6DFCF
:10164E0043B520BD020643B62053B5DFBD030643A6
:08165E00B62043B5207F0022F5
:10149A00EFD3940140037FFF22EBD3940340037FF1
:1014AA00FF22BF0112ED90FE817006E0547FF080AA
:1014BA0011E04480F0800BEF700890FE83E05487BF
:1014CA004DF0EB700653B6DF53B5DFBB010653B6DA
:1014DA00DF43B520BB020643B62053B5DFBB030684
:0914EA0043B62043B5207F002227
:1018AA00EFD3940140037FFF22EDD3940340037FDB
:1018BA00FF22EF7004C2AC8002D2ACED700553B7C0
:1018CA00EFC2BCBD010553B7EFD2BCBD020543B799
:0E18DA0010C2BCBD030543B710D2BC7F002274
:10173400EFD3940140037FFF22EDD3940340037F52
:10174400FF22E5AF54FE4FF5AFED700653B6FE53DE
:10175400B5FEBD010653B6FE43B501BD020643B650
:101764000153B5FEBD030643B60143B5017F002214
:10166600EFD3940140037FFF22EDD3940340037F21
:10167600FF22EF33333354F8FFE5AF54F74FF5AF9E
:10168600ED700653EEFE53DFFEBD010653EEFE433C
:10169600DF01BD020643EE0153DFFEBD030643EE46
:0716A6000143DF017F002278
:10004600EFD3940140037FFF22EDD3940340037F57
:10005600FF22EFC454F0FFE5AF54EF4FF5AFED705C
:100066000653EEFD53DFFDBD010653EEFD43DF02F1
:10007600BD020643EE0253DFFDBD030643EE024317
:05008600DF027F0022F3
:1016AD00EFD3940140037FFF22EDD3940340037FDA
:1016BD00FF22EF25E0FFE5AF54FD4FF5AFED7006CE
:1016CD0053B6FD53B5FDBD010653B6FD43B502BD81
:1016DD00020643B60253B5FDBD030643B60243B53C
:0416ED00027F002256
:10142000EFD3948140037FFF22EBD3940340037FEB
:10143000FF22EF247F603004705890FEC4EDF0EB83
:10144000700653B6FB53B5FBBB010653B6FB43B561
:1014500004BB020643B60453B5FBEB640370384388
:10146000B60443B504803090FEE4EDF0EB70065313
:10147000B6F753B5F7BB010653B6F743B508BB0241
:101480000643B60853B5F7BB030D43B60843B5088A
:0A149000800590FEE4EDF07F0022DD
:1018E800EDD394035026ED700653EEFB53DFFBBD9A
:1018F800010653EEFB43DF04BD020643EE0453DF4B
:10190800FBBD030B43EE0443DF0480037FFF2290FB
:07191800FE62EFF07F0022E8
:10057000AD07ED6401707A90FECCE054FEF0E054DB
:10058000FBF090FEC8E054FCF0120F32FF90FEC862
:10059000E0548F4FF0900006120F4BFF90FECC30CE
:1005A000E00DE04401F090FEB1E04401F0800BE08A
:1005B00054FEF090FEB1E054FEF0EF90FECC30E13E
:1005C0000DE04404F090FEB1E04402F0800BE054F2
:1005D000FBF090FEB1E054FDF0900003120FA3E594
:1005E000F090FED5F0900003120FA390FED6020902
:1005F0002AED6402707A90FECCE054EFF0E054BF34
:10060000F090FEC9E054FCF0120F32FF90FEC9E0FA
:10061000548F4FF0900006120F4BFF90FECC30E24B
:100620000DE04410F090FEB1E04404F0800BE05483
:10063000EFF090FEB1E054FBF0EF90FECC30E30D14
:10064000E04440F090FEB1E04408F0800BE054BF7D
:10065000F090FEB1E054F7F0900003120FA3E5F024
:1006600090FED7F0900003120FA390FED802092A43
:10067000ED6403707A90FECDE054FEF0E054FBF0A0
:1006800090FECAE054FCF0120F32FF90FECAE05414
:100690008F4FF0900006120F4BFF90FECD30E40D0F
:1006A000E04401F090FEB1E04410F0800BE054FE15
:1006B000F090FEB1E054EFF0EF90FECD30E50DE0AC
:1006C0004404F090FEB1E04420F0800BE054FBF0D5
:1006D00090FEB1E054DFF0900003120FA3E5F0901C
:1006E000FED9F0900003120FA390FEDA02092AED62
:1006F0006404707A90FECDE054EFF0E054BFF090C7
:10070000FECBE054FCF0120F32FF90FECBE0548F92
:100710004FF0900006120F4BFF90FECD30E60DE03B
:100720004410F090FEB1E04440F0800BE054EFF054
:1007300090FEB1E054BFF0EF90FECD30E70DE04405
:1007400040F090FEB1E04480F0800BE054BFF090A8
:10075000FEB1E0547FF0900003120FA3E5F090FE8D
:10076000DBF0900003120FA390FEDC02092AED6477
:1007700080704F900005120F4B90FEDEF09000014C
:10078000120FA3E5F090FED2F0900001120FA3909B
:10079000FED3F0900008120F4B90FEDDB40106E08E
:1007A0004480F08004E0547FF0900007120F4B90DB
:1007B000FEC0B40106E04401F08004E054FEF07F86
:1007C0000022ED6405705690FEECE054FEF090FEC1
:1007D000E8E054FCF0120F32FF90FEE8E0548F4F37
:1007E000F0900006120F4B90FEEC30E00DE044015B
:1007F000F090FEB5E04401F0800BE054FEF090FE76
:10080000B5E054FEF0900003120FA3E5F090FEF562
:10081000F0900003120FA390FEF602092AED640681
:10082000705690FEECE054EFF090FEE9E054FCF0DE
:10083000120F32FF90FEE9E0548F4FF09000061245
:100840000F4B90FEEC30E20DE04410F090FEB5E06E
:100850004404F0800BE054EFF090FEB5E054FBF060
:10086000900003120FA3E5F090FEF7F09000031242
:100870000FA390FEF802092AED6407705590FEED73
:10088000E054FEF090FEEAE054FCF0120F32FF90CC
:10089000FEEAE0548F4FF0900006120F4B90FEEDF1
:1008A00030E40DE04401F090FEB5E04410F0800B20
:1008B000E054FEF090FEB5E054EFF0900003120F0C
:1008C000A3E5F090FEF9F0900003120FA390FEFA5A
:1008D0008058ED6408705790FEEDE054EFF090FE04
:1008E000EBE054FCF0120F32FF90FEEBE0548F4F20
:1008F000F0900006120F4B90FEED30E60DE0441034
:10090000F090FEB5E04440F0800BE054EFF090FE34
:10091000B5E054BFF0900003120FA3E5F090FEFB8A
:10092000F0900003120FA390FEFCF07F0022ED6414
:1009300081704C900005120F4B90FEFEF09000016C
:10094000120FA3FDACF0EC90FEF2F0AF05A3EFF0B8
:10095000900008120F4B90FEFDB40106E04480F0B9
:100960008004E0547FF0900007120F4B90FEE0B43B
:100970000106E04401F08004E054FEF07F00227F95
:02098000FF2254
:10117B00EF2480700302123614700302127B24805A
:10118B00B4080040030212C79011A175F003A4C567
:10119B008325F0C583730211B90211C60211D60261
:1011AB0011E60211F6021206021216021226120F95
:1011BB0078FDACF0EC90FED50212C1900002120F3C
:1011CB00A3FDACF0EC90FED70212C1900004120FFD
:1011DB00A3FDACF0EC90FED90212C1900006120FE9
:1011EB00A3FDACF0EC90FEDB0212C1900008120FD5
:1011FB00A3FDACF0EC90FEF50212C190000A120FA9
:10120B00A3FDACF0EC90FEF70212C190000C120F94
:10121B00A3FDACF0EC90FEF90212C190000E120F80
:10122B00A3FDACF0EC90FEFB0212C1120F78FDACEB
:10123B00F0EC90FED5F0AF05A3EFF0900002120F8B
:10124B00A3FDACF0EC90FED7F0AF05A3EFF0900050
:10125B0004120FA3FDACF0EC90FED9F0AF05A3EF99
:10126B00F0900006120FA3FDACF0EC90FEDB804675
:10127B00900008120FA3FDACF0EC90FEF5F0AF055B
:10128B00A3EFF090000A120FA3FDACF0EC90FEF769
:10129B00F0AF05A3EFF090000C120FA3FDACF0EC38
:1012AB0090FEF9F0AF05A3EFF090000E120FA3FD27
:0D12BB00ACF0EC90FEFBF0AF05A3EFF022CD
:080096008F2B8B2C8A2D892E83
:10009E00E52B6401600302020CF508F509F50AF57B
:1000AE000BF50CF52FF53074402530F582740135C3
:1000BE002FF583E4F00530E5307002052F6480459E
:1000CE002F70E4E4F52FF53074002530F5827400BE
:1000DE00352FF583E4F00530E5307002052F64808E
:1000EE00452F70E4AB2CAA2DA92E120F32FFE598E6
:1000FE00543F4FF598EF64C06008EF644060030210
:10010E0001C19000021210CD7F807E8D7D5B7C0040
:10011E001210178F348E338D328C31E4FFFE7D0139
:10012E00FCAB34AA33A932A831C31210A940037F05
:10013E00FF22C3E49534F534E49533F53374019519
:10014E0032F532E49531F531AB2CAA2DA92E900063
:10015E0001120F4BFB6401702CC28E538EFE53891D
:10016E00BF5389CF438E40AF34AE33AD32AC31780E
:10017E00081210BA8F8D85348BC2AB5389BF538F43
:10018E00FDD28E8062EB64027026538EEF438E0199
:10019E00538EF7438E04AF34AE33AD32AC317808A4
:1001AE001210BA8FD68534D753AFFB438E108037DB
:1001BE007FFF22AB2CAA2DA92E120F32FF701390A7
:1001CE000008120F4BB40105438E20801A538EDFA8
:1001DE008015EFB48011900008120F4BB401054347
:1001EE008780800353877FAB2CAA2DA92E90000702
:1001FE00120F4B7004C29C8002D29C7F0022E52B12
:10020E0064026003020305F50DF50EF50FF510F50A
:10021E0011F52FF53074E02530F5827401352FF588
:10022E0083E4F00530E5307002052F6480452F70B1
:10023E00E4E4F52FF53074802530F5827400352F07
:10024E00F583E4F00530E5307002052F6480452F0C
:10025E0070E4AB2CAA2DA92E120F32FF64C06005DC
:10026E00EF64407075EFB4C005439A808003539AD3
:10027E007F9000021210CD7F807E8D7D5B7C001200
:10028E0010178F348E338D328C31E4FFFE7D01FCDE
:10029E00AB34AA33A932A831C31210A940037FFF91
:1002AE0022C3E49534F534E49533F5337401953275
:1002BE00F532E49531F531538EEF538EF7438E04BC
:1002CE00AF34AE33AD32AC3178081210BA8FD6855A
:1002DE0034D753AFFB438E1080037FFF22AB2CAA83
:1002EE002DA92E900007120F4BC454F0FFE59A541F
:1002FE00EF4FF59A7F0022E52B6403600302043969
:10030E00F512F513F514F515F516F52FF530746095
:10031E002530F5827402352FF583E4F00530E53093
:10032E007002052F6440452F70E4E4F52FF530740C
:10033E00002530F5827401352FF583E4F00530E5A4
:10034E00307002052F6440452F70E4AB2CAA2DA906
:10035E002E120F32FF64C06008EF64406003020487
:10036E001CEFB4C00543AC80800353AC7F900002F9
:10037E001210CD7F807E8D7D5B7C001210178F3426
:10038E008E338D328C31E4FFFE7D01FCAB34AA330B
:10039E00A932A831C31210A940037FFF22C3E495EE
:1003AE0034F534E49533F53374019532F532E49532
:1003BE0031F531AB2CAA2DA92E900001120F4BFB5B
:1003CE00B4031D43AC40AF34AE33AD32AC3178081C
:1003DE001210BA8FD48534D553D1F043D10A80315F
:1003EE00EB64027026538EEF53ACBF538EF7438EE1
:1003FE0004AF34AE33AD32AC3178081210BA8FD6AA
:10040E008534D753AFFB438E1080067FFF227FFFCC
:10041E0022AB2CAA2DA92E900007120F4BC454F01C
:10042E00FFE5AC54EF4FF5AC7F0022E52B64046082
:10043E000302056DF517F518F519F51AF51BF52FCD
:10044E00F53074A02530F5827402352FF583E4F073
:10045E000530E5307002052F6420452F70E4E4F579
:10046E002FF53074C02530F5827401352FF583E4F5
:10047E00F00530E5307002052F6420452F70E4AB97
:10048E002CAA2DA92E120F32FF64C06008EF644013
:10049E006003020550EFB4C005438480800353848B
:1004AE007F9000021210CD7F807E8D7D5B7C0012CE
:1004BE0010178F348E338D328C31E4FFFE7D01FCAC
:1004CE00AB34AA33A932A831C31210A940037FFF5F
:1004DE0022C3E49534F534E49533F5337401953243
:1004EE00F532E49531F531AB2CAA2DA92E900001F1
:1004FE00120F4BFBB4041D438440AF34AE33AD3208
:10050E00AC3178081210BA8FD28534D353D10F4341
:10051E00D1A08031EB64027026538EEF5384BF530B
:10052E008EF7438E04AF34AE33AD32AC3178081251
:10053E0010BA8FD68534D753AFFB438E1080067F0B
:10054E00FF227FFF22AB2CAA2DA92E900007120F9F
:10055E004BC454F0FFE58454EF4FF5847F00227FA7
:01056E00FF8D
:01056F002269
:0A1A3F008F99750A01E50A70FC2278
:1019E300120F32FF600C121A3F740129F9E43AFA1C
:0319F30080EE2261
:0A1A49008F9B750F01E50F70FC2262
:1019F600120F32FF600C121A49740129F9E43AFAFF
:031A060080EE224D
:0A1A53008FAD751401E51470FC223C
:101A0900120F32FF600C121A53740129F9E43AFAE1
:031A190080EE223A
:0A1A5D008F85751901E51970FC2250
:101A1C00120F32FF600C121A5D740129F9E43AFAC4
:031A2C0080EE2227
:05001D00AE07021A3FCE
:030023000216F1D1
:1016F100C0E0C083C082C0D075D000C00730982040
:10170100C298E50BC394804003750B00AF0B050B2A
:1017110074002FF582E43400F583E599F0750C052A
:10172100309905C299750A00D007D0D0D082D083F4
:03173100D0E032D3
:0300430002154360
:10154300C0E0C083C082C0D075D000C007E59A3028
:10155300E021539AFEE510C394804003751000AF59
:1015630010051074802FF582E43400F583E59BF0B9
:10157300751105E59A30E106539AFD750F00D00702
:09158300D0D0D082D083D0E03238
:03008B0002158CCF
:10158C00C0E0C083C082C0D075D000C007E5AC30CD
:10159C00E02153ACFEE515C394404003751500AF34
:1015AC0015051574002FF582E43401F583E5ADF0D3
:1015BC00751605E5AC30E10653ACFD751400D0078B
:0915CC00D0D0D082D083D0E032EF
:030093000215D57E
:1015D500C0E0C083C082C0D075D000C007E58430AC
:1015E500E0215384FEE51AC394204003751A00AF29
:1015F5001A051A74C02FF582E43401F583E585F0E8
:10160500751B05E58430E1065384FD751900D00787
:09161500D0D0D082D083D0E032A5
:0300000002139454
:0C139400787FE4F6D8FD7581350213DB8C
:100F3200BB010689828A83E0225002E722BBFE02BD
:090F4200E32289828A83E49322F0
:100F4B00BB010CE58229F582E5833AF583E022505B
:100F5B0006E92582F8E622BBFE06E92582F8E222A5
:0D0F6B00E58229F582E5833AF583E49322BF
:100F7800BB010A89828A83E0F5F0A3E02250068744
:100F8800F009E71922BBFE07E3F5F009E319228906
:0B0F9800828A83E493F5F07401932239
:100FA300BB0110E58229F582E5833AF583E0F5F08C
:100FB300A3E0225009E92582F886F008E622BBFE69
:100FC3000AE92582F8E2F5F008E222E5832AF583AF
:080FD300E993F5F0A3E9932274
:100FDB0075F008758200EF2FFFEE33FECD33CDCCCD
:100FEB0033CCC58233C5829BED9AEC99E582984050
:100FFB000CF582EE9BFEED9AFDEC99FC0FD5F0D62D
:10100B00E4CEFBE4CDFAE4CCF9A88222B800C1B956
:10101B000059BA002DEC8BF084CFCECDFCE5F0CB94
:10102B00F97818EF2FFFEE33FEED33FDEC33FCEBCD
:10103B0033FB10D703994004EB99FB0FD8E5E4F988
:10104B00FA227818EF2FFFEE33FEED33FDEC33FC75
:10105B00C933C910D7059BE99A4007EC9BFCE99A69
:10106B00F90FD8E0E4C9FAE4CCFB2275F010EF2FAE
:10107B00FFEE33FEED33FDCC33CCC833C810D707AE
:10108B009BEC9AE899400AED9BFDEC9AFCE899F8E9
:0E109B000FD5F0DAE4CDFBE4CCFAE4C8F9227C
:1010A900EB9FF5F0EA9E42F0E99D42F0E89C45F09D
:0110B9002214
:1010BA00E8600FECC313FCED13FDEE13FEEF13FF14
:0310CA00D8F12238
:1010CD00BB010DE58229F582E5833AF58302111CFA
:1010DD005007E92582F802110FBBFE07E92582F8BA
:1010ED00021128E58229F582E5833AF5830211354F
:10098200E5312425F8E60531227822300702782560
:10099200E475F001121145020F322000EB7F2ED2D6
:1009A200008018EF540F2490D43440D4FF30040B4D
:1009B200EF24BFB41A0050032461FFE53260021530
:1009C200320535E5357002053430070D7822E475BD
:1009D200F001121145EF0210FD02001D7403D2074F
:1009E2008003E4C207F5318B228A238924E4F5329D
:1009F200F534F535E53260077F201209BD80F575C3
:100A020033FFC201C200C202C203C205C206C2084B
:100A120012098BFF700D3007057F001209CEAF352A
:100A2200AE3422B4255FC2D5C20412098BFF24D092
:100A3200B40A00501A75F00A783230D50508B6FFAC
:100A42000106C6A426F620D5047002D20380D9245A
:100A5200CFB41A00EF5004C2E5D204020BCED20189
:100A620080C6D20080C0D20280BCD2D580BAD20564
:100A720080B47F201209BD2002077401B532004004
:100A8200F1120982FF1209BD0209F6D208D20680CC
:100A920095120982FB120982FA120982F94A4B70F5
:100AA20006799F7A0C7BFF20022EE532602A7E00B7
:100AB2008E82758300120F4B60060EEE653370F066
:100AC200C2D5EBC0E0EAC0E0E9C0E0EE120C15D0FE
:100AD200E0F9D0E0FAD0E0FB120F32FF60AAEBC0DF
:100AE200E0EAC0E0E9C0E01209BDD0E02401F9D09B
:100AF200E03400FAD0E0FBE5330460DCD533D98082
:100B0200877BFF7A0C7911D202809C79108002795E
:100B120008C206C2088008D2D5790A8004790AC2BE
:100B2200D5E533047002F533E4FAFDFEFF120982C3
:100B3200FC7B08200113120982FD7B1030000A128F
:100B42000982FE120982FF7B20EC3382D592D550B6
:100B520013C3E43000069FFFE49EFEE42001039DE0
:100B6200FDE49CFCE4CBF8C201EC700CCFCECDCC02
:100B7200E824F8F870F38017C3EF33FFEE33FEED8D
:100B820033FDEC33FCEB33FB994002FB0FD8E9EB6E
:100B9200300105F8D0E0C448B201C0E00AEC4D4E85
:100BA2004F78207B0070C2EAB5330040BCC0E0122F
:100BB2000C17D0F0D0E0200104C4C0E0C4B201C0E0
:100BC200F01209A6D0F0D5F0EB0209F61211550A7F
:100BD20093530B0D580A644C0A60420B114F0B19C8
:0F0BE200440B19490A79430B1F550B03460B03AC
:100BF100450B03470CBF500A682D0A6C2E0A8F2B38
:100C01000A70230A8D200CA82A0A284800000A87A6
:100C11003F3F3F00790AA2D5200314300509B910DE
:100C2100020404B9080104A2D520060250010420DF
:100C310002689202B532005034C0E07F20300319BF
:100C41007F30A20272067205500F120C6EC202C2F0
:100C510006C205C2087F30800F300503E9C0E012EB
:100C610009BD300503D0E0F9D0E0B532CC3005172D
:100C71007F30B9100C1209BD7F583004077F78808E
:100C810003B908031209BD3002057F2D0209BD7F9A
:100C9100202008F87F2B2006F322920280CF286EB5
:100CA100756C6C2900D2011209823001F8C20178F9
:100CB1003230D50108F6020A282D5043495812094D
:100CC100822403B405004001E4900CBA931209AEEA
:0D0CD100743A1209AED203753204020B0D05
:1013A0000212C8E493A3F8E493A34003F68001F289
:1013B00008DFF48029E493A3F85407240CC8C3334E
:1013C000C4540F4420C8834004F456800146F6DF1D
:1013D000E4800B010204081020408090003FE47E6E
:1013E000019360BCA3FF543F30E509541FFEE49312
:1013F000A360010ECF54C025E060A840B8E493A3D9
:10140000FAE493A3F8E493A3C8C582C8CAC583CA03
:10141000F0A3C8C582C8CAC583CADFE9DEE780BEBB
:0100420000BD
:1010FD00BB010689828A83F0225002F722BBFE01D2
:02110D00F322CB
:0D110F00E6FB08E6F908E6FA08E6CBF82250
:0C111C00E0F8A3E0F9A3E0FAA3E0FB2256
:0D112800E2FB08E2F908E2FA08E2CBF82247
:10113500E493F8740193F9740293FA740393FB2210
:10114500FAE6FB0808E6F925F0F618E6CA3AF622AB
:10115500D083D082F8E4937012740193700DA3A329
:1011650093F8740193F5828883E47374029368603D
:06117500EFA3A3A380DF3D
:00000001FF
