:10000000020E2F8CC3AF058FC4A2AF92D5C2AF75BD
:0C001000C65A75C6A50000A2D592AF220A
:10002300020CB9AD07AC0675C78075F51875C50325
:10003300120003020E218F99752201E52270FC2222
:10004300020B9774002DF582E43400F583E0FFEF93
:10005300C39430400CEFD394395006C3EF9430FF70
:1000630022EFC39441400BEFD394465005EF24C9CC
:10007300FF22EFC39461400BEFD394665005EF2446
:06008300A9FF227FFF220D
:03008B00020BE085
:10009300020C298F168B178A188919E516640160DB
:1000A3000302020CF520F521F522F523F524F51AB8
:1000B300F51B7440251BF5827401351AF583E4F0B2
:1000C300051BE51B7002051A6480451A70E4E4F50C
:1000D3001AF51B7400251BF5827400351AF583E4A9
:1000E300F0051BE51B7002051A6480451A70E4AB2A
:1000F30017AA18A9191209D1FFE598543F4FF5988B
:10010300EF64C06008EF644060030201C190000225
:10011300120B317F807E8D7D5B7C00120A658F1F01
:100123008E1E8D1D8C1CE4FFFE7D01FCAB1FAA1EE1
:10013300A91DA81CC3120B0D40037FFF22C3E49526
:100143001FF51FE4951EF51E7401951DF51DE4951D
:100153001CF51CAB17AA18A9199000011209EAFB98
:100163006401702CC28E538EFE5389BF5389CF43D3
:100173008E40AF1FAE1EAD1DAC1C7808120B1E8F38
:100183008D851F8BC2AB5389BF538FFDD28E806287
:10019300EB64027026538EEF438E01538EF7438E2A
:1001A30004AF1FAE1EAD1DAC1C7808120B1E8FD6FC
:1001B300851FD753AFFB438E1080377FFF22AB17CA
:1001C300AA18A9191209D1FF70139000081209EA9D
:1001D300B40105438E20801A538EDF8015EFB4805F
:1001E300119000081209EAB4010543878080035384
:1001F300877FAB17AA18A9199000071209EA7004A0
:10020300C29C8002D29C7F0022E516640260030236
:100213000305F525F526F527F528F529F51AF51B28
:1002230074E0251BF5827401351AF583E4F0051B90
:10023300E51B7002051A6480451A70E4E4F51AF5AB
:100243001B7480251BF5827400351AF583E4F005D1
:100253001BE51B7002051A6480451A70E4AB17AAEC
:1002630018A9191209D1FF64C06005EF64407075C5
:10027300EFB4C005439A808003539A7F9000021223
:100283000B317F807E8D7D5B7C00120A658F1F8E14
:100293001E8D1D8C1CE4FFFE7D01FCAB1FAA1EA955
:1002A3001DA81CC3120B0D40037FFF22C3E4951F3F
:1002B300F51FE4951EF51E7401951DF51DE4951CAF
:1002C300F51C538EEF538EF7438E04AF1FAE1EAD56
:1002D3001DAC1C7808120B1E8FD6851FD753AFFB9E
:1002E300438E1080037FFF22AB17AA18A919900031
:1002F300071209EAC454F0FFE59A54EF4FF59A7FC9
:100303000022E51664036003020439F52AF52BF590
:100313002CF52DF52EF51AF51B7460251BF582744B
:1003230002351AF583E4F0051BE51B7002051A6418
:1003330040451A70E4E4F51AF51B7400251BF58299
:100343007401351AF583E4F0051BE51B7002051AE9
:100353006440451A70E4AB17AA18A9191209D1FF12
:1003630064C06008EF6440600302041CEFB4C0057E
:1003730043AC80800353AC7F900002120B317F802B
:100383007E8D7D5B7C00120A658F1F8E1E8D1D8CFA
:100393001CE4FFFE7D01FCAB1FAA1EA91DA81CC304
:1003A300120B0D40037FFF22C3E4951FF51FE49555
:1003B3001EF51E7401951DF51DE4951CF51CAB1768
:1003C300AA18A9199000011209EAFBB4031D43AC52
:1003D30040AF1FAE1EAD1DAC1C7808120B1E8FD490
:1003E300851FD553D1F043D10A8031EB64027026C7
:1003F300538EEF53ACBF538EF7438E04AF1FAE1E25
:10040300AD1DAC1C7808120B1E8FD6851FD753AFBA
:10041300FB438E1080067FFF227FFF22AB17AA18B3
:10042300A9199000071209EAC454F0FFE5AC54EF90
:100433004FF5AC7F0022E5166404600302056DF5F9
:100443002FF530F531F532F533F51AF51B74A02588
:100453001BF5827402351AF583E4F0051BE51B7066
:1004630002051A6420451A70E4E4F51AF51B74C0FA
:10047300251BF5827401351AF583E4F0051BE51B92
:100483007002051A6420451A70E4AB17AA18A9195B
:100493001209D1FF64C06008EF6440600302055095
:1004A300EFB4C005438480800353847F900002121D
:1004B3000B317F807E8D7D5B7C00120A658F1F8EE2
:1004C3001E8D1D8C1CE4FFFE7D01FCAB1FAA1EA923
:1004D3001DA81CC3120B0D40037FFF22C3E4951F0D
:1004E300F51FE4951EF51E7401951DF51DE4951C7D
:1004F300F51CAB17AA18A9199000011209EAFBB45D
:10050300041D438440AF1FAE1EAD1DAC1C78081202
:100513000B1E8FD2851FD353D10F43D1A08031EB54
:1005230064027026538EEF5384BF538EF7438E04B9
:10053300AF1FAE1EAD1DAC1C7808120B1E8FD685E7
:100543001FD753AFFB438E1080067FFF227FFF220E
:10055300AB17AA18A9199000071209EAC454F0FFAF
:10056300E58454EF4FF5847F00227FFF22EFD3947D
:100573000740037FFF221209D1FED3940340037F78
:10058300FF22EF7041EE700B9000011209EAF45262
:100593009352941209D1B4010B9000011209EA425B
:1005A30093F452941209D1FEB4020A900001120985
:1005B300EA42934294EEB4030D9000011209EAFE5D
:1005C300F45293EE4294EF640170431209D1FE702A
:1005D3000B9000011209EAF452915292EEB4010B0E
:1005E3009000011209EA4291F452921209D1B40225
:1005F3000A9000011209EA429142921209D1B4030E
:100603000D9000011209EAFEF45291EE4292EF645A
:100613000270431209D1FE700B9000011209EAF433
:1006230052955296EEB4010B9000011209EA4295DD
:10063300F452961209D1B4020A9000011209EA4257
:100643009542961209D1B4030D9000011209EAFEF6
:10065300F45295EE4296EF640370431209D1FE7093
:100663000B9000011209EAF452B152B2EEB4010B3D
:100673009000011209EA42B1F452B21209D1B40254
:100683000A9000011209EA42B142B21209D1B4033D
:100693000D9000011209EAFEF452B1EE42B2EF648A
:1006A3000470431209D1FE700B9000011209EAF4A1
:1006B30052B352B4EEB4010B9000011209EA42B3F3
:1006C300F452B41209D1B4020A9000011209EA42A9
:1006D300B342B41209D1B4030D9000011209EAFE2A
:1006E300F452B3EE42B4EF640570431209D1FE70C5
:1006F3000B9000011209EAF452C952CAEEB4010B7D
:100703009000011209EA42C9F452CA1209D1B40293
:100713000A9000011209EA42C942CA1209D1B4037C
:100723000D9000011209EAFEF452C9EE42CAEF64C9
:100733000670431209D1FE700B9000011209EAF40E
:1007430052CB52CCEEB4010B9000011209EA42CB1A
:10075300F452CC1209D1B4020A9000011209EA4200
:10076300CB42CC1209D1B4030D9000011209EAFE69
:10077300F452CBEE42CCEF640770431209D1FF7001
:100783000B9000011209EAF452E152E2EFB4010BBB
:100793009000011209EA42E1F452E21209D1B402D3
:1007A3000A9000011209EA42E142E21209D1B403BC
:1007B3000D9000011209EAFFF452E1EF42E27F00DB
:1007C3002243BA80120E01120DA2D2AF7BFF7A0E22
:1007D300793B120DEE7BFF7A0E796D120DEE7BFFE6
:1007E3007A0E79A6120DEE7BFF7A0E79E1120DEEE9
:1007F3007F01120E11E524D3940040F4D524F1E4D3
:10080300F508E508C39523501474002508F582E420
:100813003400F583E0FF120039050880E5750CFF0D
:10082300E523C3940850030209BE900001E064204D
:1008330060030209BEF50874002508F582E434005C
:10084300F583E0FFC394614017EFD3947A5011EF1F
:1008530024E0FF74002508F582E43400F583EFF00B
:100863000508E508B408D0120C728E0A8F0BE4FC5D
:10087300FDFB7AF8F9F8D3120AF750030209BE9088
:100883000000E0B44510AF0BAE0A1200267BFF7ADE
:100893000F791A020922900000E0645760030209ED
:1008A30028900008E06420707CE52324F7F509D341
:1008B300946440037509647B017A00790975120019
:1008C300850913AF0BAE0A120D3A7BFF7A0F792716
:1008D300120DEEE509C394644015E50975F06484CF
:1008E3002430FF120039E50975F0648485F009E5C9
:1008F30009C3940A4015E50975F00A842430FF12F0
:100903000039E50975F00A8485F009E50975F00AEF
:1009130084E5F02430FF1200397BFF7A0F792E1221
:100923000DEE0209BB900000E0645260030209BEB1
:10093300900008E0642060030209BE120DCB8F090A
:10094300E509D394644003750964E509D394004031
:100953006A7BFF7A0F7937120DEEE50975F00A8489
:100963002430FF120039E50975F00A84E5F02430DC
:10097300FF1200397BFF7A0F793C120DEE7B017A6F
:100983000279C0751200850913AF0BAE0A120D71FF
:10099300E4F508E508C39509501474C02508F582E9
:1009A300E43402F583E0FF120039050880E57F0D8A
:1009B3001200397F0A120039E4F50CE50C60097B5B
:1009C300FF7A0F794F120DEEE4F5230207F3BB0113
:1009D3000689828A83E0225002E722BBFE02E322D9
:1009E30089828A83E49322BB010CE58229F582E59F
:1009F300833AF583E0225006E92582F8E622BBFE1E
:100A030006E92582F8E222E58229F582E5833AF5B3
:100A130083E49322BB010689828A83F0225002F782
:100A230022BBFE01F32275F008758200EF2FFFEE63
:100A330033FECD33CDCC33CCC58233C5829BED9A07
:100A4300EC99E58298400CF582EE9BFEED9AFDEC65
:100A530099FC0FD5F0D6E4CEFBE4CDFAE4CCF9A8AB
:100A63008222B800C1B90059BA002DEC8BF084CFB3
:100A7300CECDFCE5F0CBF97818EF2FFFEE33FEED8A
:100A830033FDEC33FCEB33FB10D703994004EB99B4
:100A9300FB0FD8E5E4F9FA227818EF2FFFEE33FEC7
:100AA300ED33FDEC33FCC933C910D7059BE99A40FC
:100AB30007EC9BFCE99AF90FD8E0E4C9FAE4CCFB14
:100AC3002275F010EF2FFFEE33FEED33FDCC33CC68
:100AD300C833C810D7079BEC9AE899400AED9BFDF1
:100AE300EC9AFCE899F80FD5F0DAE4CDFBE4CCFA04
:100AF300E4C8F922EB9FF5F0EA9E42F0E99D42F04B
:100B0300EC6480C864809845F022EB9FF5F0EA9E80
:100B130042F0E99D42F0E89C45F022E8600FECC307
:100B230013FCED13FDEE13FEEF13FFD8F122BB010F
:100B33000DE58229F582E5833AF583020B6E5007B2
:100B4300E92582F8020B61BBFE07E92582F8020B57
:100B53007AE58229F582E5833AF583020B87E6FB82
:100B630008E6F908E6FA08E6CBF822E0F8A3E0F98C
:100B7300A3E0FAA3E0FB22E2FB08E2F908E2FA08A9
:100B8300E2CBF822E493F8740193F9740293FA74B4
:100B93000393FB22C0E0C083C082C0D075D000C0E5
:100BA30007E59A30E021539AFEE528C39480400379
:100BB300752800AF28052874802FF582E43400F5EA
:100BC30083E59BF0752905E59A30E106539AFD7597
:100BD3002700D007D0D0D082D083D0E032C0E0C08D
:100BE30083C082C0D075D000C007E5AC30E021538C
:100BF300ACFEE52DC394404003752D00AF2D052DAC
:100C030074002FF582E43401F583E5ADF0752E050C
:100C1300E5AC30E10653ACFD752C00D007D0D0D045
:100C230082D083D0E032C0E0C083C082C0D075D010
:100C330000C007E58430E0215384FEE532C39420ED
:100C43004003753200AF32053274C02FF582E434AD
:100C530001F583E585F0753305E58430E1065384BA
:100C6300FD753100D007D0D0D082D083D0E032E4FC
:100C7300FBFA900002E064307037A3E064587031EF
:100C83007C0474002C120049AD07EDC3941040029C
:100C9300801FEBC4F8540FC868FFEAC454F048FE41
:100CA300ED7A002FFBEA3EFA0CBC08D6AE02AF0386
:100CB300227EFF7FFF22C0E0C083C082C0D075D0F8
:100CC30000C007309820C298E523C3948040037581
:100CD3002300AF23052374002FF582E43400F5834A
:100CE300E599F0752405309905C299752200D0075E
:100CF300D0D0D082D083D0E032EFD3940140037FB1
:100D0300FF22EDD3940340037FFF22EF7004C2ACB4
:100D13008002D2ACED700553B7EFC2BCBD010553E1
:100D2300B7EFD2BCBD020543B710C2BCBD03054338
:100D3300B710D2BC7F0022AD07AC0675C78075F52E
:100D43001875C5028CC3AF058FC41209D1F5C21241
:100D530000090DBD00010C740129F9E43AFAE51309
:100D630015137002151214451270D9020E21AD0726
:100D7300AC0675C78075F51875C501120003E5C289
:100D8300120A170DBD00010C740129F9E43AFAE5C2
:100D93001315137002151214451270DF020E21751C
:100DA3000D40750E017512007511C2751001750F96
:100DB30000751401E4F515FB7A00790D7F0112002B
:100DC300967D017F01020CFCE4FE7D09EDC39523B2
:100DD3005016120046EFC3940A500D120046EE75EA
:100DE300F00AA42FFE0D80E4AF06221209D1FF60A2
:100DF3000C120039740129F9E43AFA80EE22750ED7
:100E030003E4F50DFB7A00790D7F030205707D6025
:100E13007C09ED1D70011C144C70F7DFF122E4F521
:100E2300C7F5C5F5C675C3FF75C4FF22787FE4F621
:100E3300D8FD7581330207C453544338CFB5C1D0AD
:100E4300B5A5C6ACBBFA454550524F4DB2E2CAD424
:100E5300B3CCD0F2A3ACB4AEBFDAC3FCC1EEC9E8E5
:100E6300D6C3C8E7CFC23A0D0A00452030783030E8
:100E73003430202020202020202020202020202D3E
:100E83002D3E20B6D4307830303430B5D8D6B7C9FB
:100E9300C8C7F8C4DAC8DDBDF8D0D0B2C1B3FD2EDF
:100EA3000D0A00572030783030343020313233345B
:100EB30035363738393020202D2D3E20B6D43078C2
:100EC30030303430B5D8D6B7D0B4C8EBD7D6B7FBAB
:100ED300313233343536373839302E0D0A0052204B
:100EE3003078303034302031302020202020202032
:100EF3002020202D2D3E20B6D4307830303430B52C
:100F0300D8D6B7B6C1B3F63130B8F6D7D6BDDAC442
:100F1300DAC8DD2E0D0A00B2C1B3FDB3C9B9A6A369
:100F2300A10D0A00D2D1D0B4C8EB00D7D6BDDAA345
:100F3300A10D0A00B6C1B3F600B8F6D7D6BDDAC420
:100F4300DAC8DDC8E7CFC2A3BA0D0A00C3FCC1EEFD
:090F5300B4EDCEF3A3A10D0A00D8
:00000001FF
