:10196800416C61726D0A00253032642D2530326475
:101978002D253032642000253032643A2530326417
:101988003A2530326420007765656B2D3E25640A60
:01199800004E
:101B5100754D80E4F54CFB7A00794C7F03020CDF74
:10009600754C40754D017551007550C2754F01750F
:1000A6004E00755301E4F554FB7A00794C7F01123A
:0C00B60000C67D017F0112184953A23FD3
:0100C200221B
:101ACD00754C017B007A00794C7F03121936E4FDC9
:051ADD007F01021A9CCC
:101A36007BFF7A1979681209E5121A13784C7C0033
:101A46007D007B007A0079237E007F0812067002F3
:021A5600101C62
:1010F10043BA80121B51120096121ACD121BF2D262
:10110100AF7FC8121B617546077547E875450875BD
:10111100430C75440175421775413A754037784C57
:101121007C007D007B007A0079407E007F081206FA
:101131007012101CE4F548F549754A0D754B02789B
:101141004C7C00FDFB7A007948FE7F041206701288
:1011510013DF1219CA7B007A007940120F337BFF2B
:101161007A19796F85464F854750755100854552EB
:101171007553008543541209E57BFF7A19797F7510
:101181004F0085425075510085415275530085408D
:10119100541209E57BFF7A19798F754F0085445008
:1011A1001209E57FFA121B617FFA121B617FFA12A5
:0911B1001B617FFA121B61809C96
:0F1B61007D607C09ED1D70011C144C70F7DFF1E5
:011B70002252
:100CDF00EFD3940740037FFF22120696FED39403AF
:100CEF0040037FFF22EF7041EE700B900001120660
:100CFF00AFF452935294120696B4010B9000011266
:100D0F0006AF4293F45294120696FEB4020A900074
:100D1F00011206AF42934294EEB4030D90000112FC
:100D2F0006AFFEF45293EE4294EF64017043120645
:100D3F0096FE700B9000011206AFF452915292EE94
:100D4F00B4010B9000011206AF4291F452921206B9
:100D5F0096B4020A9000011206AF42914292120617
:100D6F0096B4030D9000011206AFFEF45291EE42BD
:100D7F0092EF64027043120696FE700B9000011200
:100D8F0006AFF452955296EEB4010B900001120685
:100D9F00AF4295F45296120696B4020A90000112D1
:100DAF0006AF42954296120696B4030D90000112BB
:100DBF0006AFFEF45295EE4296EF640370431206AF
:100DCF0096FE700B9000011206AFF452B152B2EEC4
:100DDF00B4010B9000011206AF42B1F452B21206E9
:100DEF0096B4020A9000011206AF42B142B2120647
:100DFF0096B4030D9000011206AFFEF452B1EE420D
:100E0F00B2EF64047043120696FE700B900001124D
:100E1F0006AFF452B352B4EEB4010B9000011206B8
:100E2F00AF42B3F452B4120696B4020A9000011204
:100E3F0006AF42B342B4120696B4030D90000112EE
:100E4F0006AFFEF452B3EE42B4EF640570431206E0
:100E5F0096FE700B9000011206AFF452C952CAEE03
:100E6F00B4010B9000011206AF42C9F452CA120628
:100E7F0096B4020A9000011206AF42C942CA120686
:100E8F0096B4030D9000011206AFFEF452C9EE4264
:100E9F00CAEF64067043120696FE700B90000112A3
:100EAF0006AFF452CB52CCEEB4010B9000011206F8
:100EBF00AF42CBF452CC120696B4020A9000011244
:100ECF0006AF42CB42CC120696B4030D900001122E
:100EDF0006AFFEF452CBEE42CCEF6407704312061E
:100EEF0096FF700B9000011206AFF452E152E2EF41
:100EFF00B4010B9000011206AF42E1F452E2120668
:100F0F0096B4020A9000011206AF42E142E21206C5
:100F1F0096B4030D9000011206AFFFF452E1EF42B9
:040F2F00E27F00223B
:1012E9009000021206AF6401702A90FE80E044402B
:1012F900F090FE82E4F0120696543FFF90FE80E0E3
:1013090054C04FF09000031206AF90FE88B401025A
:101319008031802990FE80E054BFF090FE84E4F093
:101329009000041206AF25E0FF90FE85E054014FBE
:10133900F09000051206AF90FE85B40106E054FE58
:10134900F08004E04401F09000011206AF90FE80A5
:0C1359007005E0547FF022E04480F02298
:081BEA0090FE82E05480FF220E
:0C00160090FE82E030E6F9E054BFF022DA
:091BD80090FE817401F002001678
:0E1B9E0090FE86EFF090FE817402F0020016B9
:061B7100121BD8121B9E9E
:091B770090FE817403F0020016D7
:0F1B800090FE817404F012001690FE87E0FF22A1
:0E1BAC0090FE82E4F090FE817405F0020016B7
:0F1B8F0090FE827401F090FE817405F002001642
:091BE10090FE817406F00200166A
:0D00060090FE86EDF090FE81EFF0020016F6
:101999008B5D8A5E895FAE05121B71AF06121B9EB5
:1019A900121B77AB5D055FE55FAA5E7002055E14E9
:1019B900F9120696FF121B9E121B77D560E5021BD2
:0119C900E13C
:1018C500AE07121B71AF05121B9E121B77121BD898
:1018D500EE4401FF121B9E121B77121B80EF1206AE
:1018E500DC740129F9E43AFAE55C64016003121B32
:0A18F500ACD55CE6121B8F021BE16C
:0300C3000211BA6D
:1011BA00C0E0C083C082C0D075D000C006C007900E
:1011CA00FE84E030E606E054BFF0807A90FE84E0C8
:1011DA0030E535E054DFF0E51D6005751D008066D9
:1011EA00E51C600D751C0090FE87E0F51E24C0808A
:1011FA003490FE87E0FFAE1E051E74C02EF582E411
:10120A003402F583EFF0803E90FE84E030E424E07F
:10121A0054EFF0E030E10890FE8674FFF080270575
:10122A001E74C0251EF582E43402F583E090FE8622
:10123A00F0801390FE84E030E30CE054F7F0751D63
:10124A0001751C01D212D007D006D0D0D082D0832B
:03125A00D0E032AF
:10171300EFD3940140037FFF22EDD3940340037F73
:10172300FF22EF7004C2A98002D2A9ED700553B75E
:10173300FDC2B9BD010553B7FDD2B9BD020543B71B
:0E17430002C2B9BD030543B702D2B97F00222E
:10175100EFD3940140037FFF22EDD3940340037F35
:10176100FF22EF7004C2AB8002D2ABED700553B71C
:10177100F7C2BBBD010553B7F7D2BBBD020543B7E5
:0E17810008C2BBBD030543B708D2BB7F0022E0
:101A5800EFD3940140037FFF22EDD3940340037F2B
:101A6800FF22EF25E025E0FFE5AF54FB4FF5AFE49B
:021A7800FF224B
:101A7A00EFD3940140037FFF22EDD3940340037F09
:101A8A00FF22EFC43354E0FFE5AF54DF4FF5AFE474
:021A9A00FF2229
:1019F000EFD3940140037FFF22EDD3940340037F94
:101A0000FF22EFC4333354C0FFE5AF54BF4FF5AFEF
:031A1000E4FF22CE
:10178F00EFD3940140037FFF22EDD3940340037FF7
:10179F00FF22EF7004C2A88002D2A8ED700553B7E4
:1017AF00FEC2B8BD010553B7FED2B8BD020543B79F
:0E17BF0001C2B8BD030543B701D2B87F0022B6
:1017CD00EFD3940140037FFF22EDD3940340037FB9
:1017DD00FF22EF7004C2AA8002D2AAED700553B7A2
:1017ED00FBC2BABD010553B7FBD2BABD020543B763
:0E17FD0004C2BABD030543B704D2BA7F00226E
:101AB500EFD3940140037FFF22EFC454F0FFE58F7D
:081AC50054EF4FF58FE4FF22FE
:101A9C00EFD3940140037FFF22EFC43354E0FFE502
:091AAC008F54DF4FF58FE4FF2297
:10002600EFD3940140037FFF22EFC4333354C0FF64
:0A003600E58F54BF4FF58FE4FF2261
:10180B00EFD3940140037FFF22EDD3940340037F7A
:10181B00FF22EF7004C2AD8002D2ADED700553B75D
:10182B00DFC2BDBD010553B7DFD2BDBD020543B756
:0E183B0020C2BDBD030543B720D2BD7F0022F1
:10157800EDD3940340037FFF22EF30E10543E620DB
:10158800800353E6DFEF30E00543E610800353E6BF
:10159800EFED700653B6DF53B5DFBD010653B6DF76
:1015A80043B520BD020643B62053B5DFBD0306434D
:0815B800B62043B5207F00229C
:10144400EFD3940140037FFF22EBD3940340037F47
:10145400FF22BF0112ED90FE817006E0547FF08000
:1014640011E04480F0800BEF700890FE83E0548715
:101474004DF0EB700653B6DF53B5DFBB010653B630
:10148400DF43B520BB020643B62053B5DFBB0306DA
:0914940043B62043B5207F00227D
:10184900EFD3940140037FFF22EDD3940340037F3C
:10185900FF22EF7004C2AC8002D2ACED700553B721
:10186900EFC2BCBD010553B7EFD2BCBD020543B7FA
:0E18790010C2BCBD030543B710D2BC7F0022D5
:1016D300EFD3940140037FFF22EDD3940340037FB4
:1016E300FF22E5AF54FE4FF5AFED700653B6FE5340
:1016F300B5FEBD010653B6FE43B501BD020643B6B2
:101703000153B5FEBD030643B60143B5017F002275
:1015C000EFD3940140037FFF22EDD3940340037FC8
:1015D000FF22EF33333354F8FFE5AF54F74FF5AF45
:1015E000ED700653EEFE53DFFEBD010653EEFE43E3
:1015F000DF01BD020643EE0153DFFEBD030643EEED
:071600000143DF017F00221E
:10160700EFD3940140037FFF22EDD3940340037F80
:10161700FF22EFC454F0FFE5AF54EF4FF5AFED7085
:101627000653EEFD53DFFDBD010653EEFD43DF021A
:10163700BD020643EE0253DFFDBD030643EE024340
:05164700DF027F00221C
:10164C00EFD3940140037FFF22EDD3940340037F3B
:10165C00FF22EF25E0FFE5AF54FD4FF5AFED70062F
:10166C0053B6FD53B5FDBD010653B6FD43B502BDE2
:10167C00020643B60253B5FDBD030643B60243B59D
:04168C00027F0022B7
:10136500EFD3948140037FFF22EBD3940340037FA7
:10137500FF22EF247F603004705890FEC4EDF0EB3F
:10138500700653B6FB53B5FBBB010653B6FB43B51D
:1013950004BB020643B60453B5FBEB640370384344
:1013A500B60443B504803090FEE4EDF0EB700653CF
:1013B500B6F753B5F7BB010653B6F743B508BB02FD
:1013C5000643B60853B5F7BB030D43B60843B50846
:0A13D500800590FEE4EDF07F002299
:1018FF00EDD394035026ED700653EEFB53DFFBBD83
:10190F00010653EEFB43DF04BD020643EE0453DF33
:10191F00FBBD030B43EE0443DF0480037FFF2290E4
:07192F00FE62EFF07F0022D1
:0800C6008F558B568A578958AB
:1000CE00E5556401600302023CF508F509F50AF5F1
:1000DE000BF50CF559F55A7440255AF58274013515
:1000EE0059F583E4F0055AE55A70020559648045C6
:1000FE005970E4E4F559F55A7400255AF5827400E6
:10010E003559F583E4F0055AE55A700205596480B5
:10011E00455970E4AB56AA57A958120696FFE598B2
:10012E00543F4FF598EF64C06008EF6440600302DF
:10013E0001F19000021208D17F807E8D7D5B7C00E4
:10014E0012081B8F5E8E5D8D5C8C5BE4FFFE7D0165
:10015E00FCAB5EAA5DA95CA85BC31208AD40037F31
:10016E00FF22C3E4955EF55EE4955DF55D74019541
:10017E005CF55CE4955BF55BAB56AA57A95890000D
:10018E00011206AFFB6401702CC28E538EFE538992
:10019E00BF5389CF438E40AF5EAE5DAD5CAC5B7836
:1001AE00081208BE8F8D855E8BC2AB5389BF538FED
:1001BE00FDD28E8062EB64027026538EEF438E0169
:1001CE00538EF7438E04AF5EAE5DAD5CAC5B7808CC
:1001DE001208BE8FD6855ED753AFFB438E10803785
:1001EE007FFF22AB56AA57A958120696FF7013909E
:1001FE0000081206AFB40105438E20801A538EDF1D
:10020E008015EFB480119000081206AFB4010543BB
:10021E008780800353877FAB56AA57A95890000753
:10022E001206AF7004C29C8002D29C7F0022E5555C
:10023E0064026003020335F50DF50EF50FF510F5AA
:10024E0011F559F55A74E0255AF58274013559F5B0
:10025E0083E4F0055AE55A700205596480455970D9
:10026E00E4E4F559F55A7480255AF582740035592F
:10027E00F583E4F0055AE55A700205596480455934
:10028E0070E4AB56AA57A958120696FF64C06005D3
:10029E00EF64407075EFB4C005439A808003539AA3
:1002AE007F9000021208D17F807E8D7D5B7C0012D4
:1002BE00081B8F5E8E5D8D5C8C5BE4FFFE7D01FC0A
:1002CE00AB5EAA5DA95CA85BC31208AD40037FFFBD
:1002DE0022C3E4955EF55EE4955DF55D7401955C73
:1002EE00F55CE4955BF55B538EEF538EF7438E040E
:1002FE00AF5EAE5DAD5CAC5B78081208BE8FD68586
:10030E005ED753AFFB438E1080037FFF22AB56AAFE
:10031E0057A9589000071206AFC454F0FFE59A543F
:10032E00EF4FF59A7F0022E55564036003020469DE
:10033E00F512F513F514F515F516F559F55A746011
:10034E00255AF58274023559F583E4F0055AE55ABB
:10035E00700205596440455970E4E4F559F55A7434
:10036E0000255AF58274013559F583E4F0055AE5F6
:10037E005A700205596440455970E4AB56AA57A904
:10038E0058120696FF64C06008EF644060030204D2
:10039E004CEFB4C00543AC80800353AC7F90000299
:1003AE001208D17F807E8D7D5B7C0012081B8F5ED4
:1003BE008E5D8D5C8C5BE4FFFE7D01FCAB5EAA5D09
:1003CE00A95CA85BC31208AD40037FFF22C3E4956E
:1003DE005EF55EE4955DF55D7401955CF55CE49506
:1003EE005BF55BAB56AA57A9589000011206AFFBFE
:1003FE00B4031D43AC40AF5EAE5DAD5CAC5B780844
:10040E001208BE8FD4855ED553D1F043D10A803108
:10041E00EB64027026538EEF53ACBF538EF7438EB0
:10042E0004AF5EAE5DAD5CAC5B78081208BE8FD6D5
:10043E00855ED753AFFB438E1080067FFF227FFF72
:10044E0022AB56AA57A9589000071206AFC454F013
:10045E00FFE5AC54EF4FF5AC7F0022E55564046028
:10046E000302059DF517F518F519F51AF51BF55943
:10047E00F55A74A0255AF58274023559F583E4F0C5
:10048E00055AE55A700205596420455970E4E4F5A1
:10049E0059F55A74C0255AF58274013559F583E41D
:1004AE00F0055AE55A700205596420455970E4ABBF
:1004BE0056AA57A958120696FF64C06008EF64400A
:1004CE006003020580EFB4C005438480800353842B
:1004DE007F9000021208D17F807E8D7D5B7C0012A2
:1004EE00081B8F5E8E5D8D5C8C5BE4FFFE7D01FCD8
:1004FE00AB5EAA5DA95CA85BC31208AD40037FFF8B
:10050E0022C3E4955EF55EE4955DF55D7401955C40
:10051E00F55CE4955BF55BAB56AA57A958900001C4
:10052E001206AFFBB4041D438440AF5EAE5DAD5CFE
:10053E00AC5B78081208BE8FD2855ED353D10F43C1
:10054E00D1A08031EB64027026538EEF5384BF53DB
:10055E008EF7438E04AF5EAE5DAD5CAC5B78081279
:10056E0008BE8FD6855ED753AFFB438E1080067FB5
:10057E00FF227FFF22AB56AA57A9589000071206FA
:10058E00AFC454F0FFE58454EF4FF5847F00227F13
:01059E00FF5D
:01059F002239
:0A0046008F99750A01E50A70FC228B
:101AE200120696FF600C120046740129F9E43AFAD4
:031AF20080EE2261
:0A1BBA008F9B750F01E50F70FC22F0
:101AF500120696FF600C121BBA740129F9E43AFA32
:031B050080EE224D
:0A1BC4008FAD751401E51470FC22CA
:101B0800120696FF600C121BC4740129F9E43AFA14
:031B180080EE223A
:0A1BCE008F85751901E51970FC22DE
:101B1B00120696FF600C121BCE740129F9E43AFAF7
:031B2B0080EE2227
:05005600AE07020046A8
:0300230002169032
:10169000C0E0C083C082C0D075D000C007309820A1
:1016A000C298E50BC394804003750B00AF0B050B8C
:1016B00074002FF582E43400F583E599F0750C058C
:1016C000309905C299750A00D007D0D0D082D08356
:0316D000D0E03235
:0300430002149D07
:10149D00C0E0C083C082C0D075D000C007E59A30CF
:1014AD00E021539AFEE510C394804003751000AF00
:1014BD0010051074802FF582E43400F583E59BF060
:1014CD00751105E59A30E106539AFD750F00D007A9
:0914DD00D0D0D082D083D0E032DF
:03008B000214E676
:1014E600C0E0C083C082C0D075D000C007E5AC3074
:1014F600E02153ACFEE515C394404003751500AFDB
:1015060015051574002FF582E43401F583E5ADF079
:10151600751605E5AC30E10653ACFD751400D00731
:09152600D0D0D082D083D0E03295
:0300930002152F24
:10152F00C0E0C083C082C0D075D000C007E5843052
:10153F00E0215384FEE51AC394204003751A00AFCF
:10154F001A051A74C02FF582E43401F583E585F08E
:10155F00751B05E58430E1065384FD751900D0072E
:09156F00D0D0D082D083D0E0324C
:10193600EFD3940140037FFF22EF7010C289120695
:10194600967004C2888002D2887F0022BF0110C22E
:101956008B1206967004C28A8002D28A7F00227F8A
:02196600FF225E
:031BFC00011F00C6
:03000300020022D6
:0100220032AB
:0300130002008662
:04008600751F0232AE
:0300530002008E1A
:04008E00751F0332A5
:03005B0002188701
:10188700C0E0C0F0C083C082C0D075D000C000C027
:1018970001C002C003C004C005C006C007751F040D
:1018A700121A36D007D006D005D004D003D002D004
:0E18B70001D000D0D0D082D083D0F0D0E0326B
:03008300021BF865
:041BF800751F05321E
:101B2E0000000000000000000000000000000000A7
:021B3E000000A5
:101B4000754D0C754C027B007A00794C7F03020CBA
:011B5000DFB5
:10005E00754E01754D01E4F54F754C0DFB7A007927
:10006E004C1212E9E4FBFD7F01121444E5BA54CFA1
:04007E004430F5BA5B
:01008200225B
:061BF200121B4002005E20
:10101C0078547C007D007BFF7A1B792E7E007F0745
:10102C00120670E54C75F00A84C454F0FFE54C755B
:10103C00F00A84E5F04FF554E54D75F00A84C4547C
:10104C00F0FFE54D75F00A84E5F04FF555E54E756A
:10105C00F00A84C454F0FFE54E75F00A84E5F04FB5
:10106C00F556E54F75F00A84C454F0FFE54F75F062
:10107C000A84E5F04FF557855058C3E5539434E591
:10108C0052940840047F0180027F00E55175F00AFC
:10109C0084C454F0FEEFC433333354804EFFE55117
:1010AC0075F00A84E5F04FF559AE52AF537C007DD4
:1010BC00641207107E007F0ACFCDCFCECCCE1207A4
:1010CC0010EFC454F0FBAE52AF537C007D0A1207F4
:1010DC0010EB4DF55A7B007A0079547560077D0250
:0510EC007FA20219992A
:060F33008B4C8A4D894E33
:100F3900784F7C007D007BFF7A1B79357E007F0727
:100F49001206707B007A00794F755C077D027FA2DB
:100F59001218C5E54FC4540775F00AA4FFE54F54AC
:100F69000F2FAB4CAA4DA94E1206DCE550C454070D
:100F790075F00AA4FFE550540F2FAB4CAA4DA94EAA
:100F89009000011206EEE551C4540375F00AA4FF5E
:100F9900E551540F2F9000021206EEE552C4540396
:100FA90075F00AA4FFE552540F2F9000031206EEC4
:100FB900E55354079000041206EEE554C454017534
:100FC900F00AA4FFE554540F2F9000051206EEE530
:100FD90054C41313135401F556E555C4540F75F051
:100FE9000AA4FFE555540F7C002FFFEC35F0900063
:100FF900068FF01207B2E55670067E077FD080048F
:101009007E087F34AB4CAA4DA94E900006EE8FF0B6
:0310190002076566
:1013DF0078507C007D007BFF7A1B793C7E007F0478
:1013EF00120670E54C75F00A84C454F0FFE54C7595
:1013FF00F00A84E5F02FF550E54D75F00A84C454DA
:10140F00F0FFE54D75F00A84E5F02FF551E54E75C7
:10141F00F00A84C454F0FFE54E75F00A84E5F02F0E
:10142F00F552854F537B007A0079507560047D0922
:05143F007FA2021999D3
:101A13007B007A00792B755C017D017FA21218C5CA
:101A2300532BF77B007A00792B7560017D017FA230
:031A3300021999FC
:1019CA007B007A00794C755C017D017FA21218C5F3
:1019DA00534CF7434C027B007A00794C7560017DC9
:0619EA00017FA202199921
:0300000002125D8C
:0C125D00787FE4F6D8FD7581600212A4D1
:1005A000E709F608DFFA8046E709F208DFFA803E3D
:1005B00088828C83E709F0A3DFFA8032E309F6082A
:1005C000DFFA8078E309F208DFFA807088828C8392
:1005D000E309F0A3DFFA806489828A83E0A3F60846
:1005E000DFFA805889828A83E0A3F208DFFA804C20
:1005F00080D280FA80C680D4806980F280338010F7
:1006000080A680EA809A80A880DA80E280CA80335F
:1006100089828A83ECFAE493A3C8C582C8CCC583D7
:10062000CCF0A3C8C582C8CCC583CCDFE9DEE780A7
:100630000D89828A83E493A3F608DFF9ECFAA9F026
:10064000EDFB2289828A83ECFAE0A3C8C582C8CC7C
:10065000C583CCF0A3C8C582C8CCC583CCDFEADE95
:10066000E880DB89828A83E493A3F208DFF980CCF7
:1006700088F0EF60010E4E60C388F0ED2402B404F0
:100680000050B9F582EB2402B4040050AF23234597
:0606900082239005F073C7
:10069600BB010689828A83E0225002E722BBFE0262
:0906A600E32289828A83E4932295
:1006AF00BB010CE58229F582E5833AF583E0225000
:1006BF0006E92582F8E622BBFE06E92582F8E2224A
:0D06CF00E58229F582E5833AF583E4932264
:1006DC00BB010689828A83F0225002F722BBFE01FD
:0206EC00F322F7
:1006EE00F8BB010DE58229F582E5833AF583E8F042
:1006FE00225006E92582C8F622BBFE05E92582C8EE
:02070E00F222D5
:10071000BC000BBE0029EF8DF084FFADF022E4CCCD
:10072000F875F008EF2FFFEE33FEEC33FCEE9DEC96
:10073000984005FCEE9DFE0FD5F0E9E4CEFD22EDDC
:10074000F8F5F0EE8420D21CFEADF075F008EF2F26
:10075000FFED33FD4007985006D5F0F222C398FD17
:050760000FD5F0EA22B4
:10076500BB010DC58229C582C5833AC5830209012E
:100775005011C58229F808E5F026F618F5F0E5824E
:1007850036F622BBFE11C58229F808E225F0F5F000
:10079500F218E23582F222F8E58229F582E5832A0C
:0D07A500F58374019325F0F5F0E4933822FC
:1007B200F8BB0111E58229F582E5833AF583E8F079
:1007C200E5F0A3F0225009E92582C8F608A6F02236
:0D07D200BBFE09E92582C8F2E5F008F2221D
:1007DF0075F008758200EF2FFFEE33FECD33CDCCD1
:1007EF0033CCC58233C5829BED9AEC99E582984054
:1007FF000CF582EE9BFEED9AFDEC99FC0FD5F0D631
:10080F00E4CEFBE4CDFAE4CCF9A88222B800C1B95A
:10081F000059BA002DEC8BF084CFCECDFCE5F0CB98
:10082F00F97818EF2FFFEE33FEED33FDEC33FCEBD1
:10083F0033FB10D703994004EB99FB0FD8E5E4F98C
:10084F00FA227818EF2FFFEE33FEED33FDEC33FC79
:10085F00C933C910D7059BE99A4007EC9BFCE99A6D
:10086F00F90FD8E0E4C9FAE4CCFB2275F010EF2FB2
:10087F00FFEE33FEED33FDCC33CCC833C810D707B2
:10088F009BEC9AE899400AED9BFDEC9AFCE899F8ED
:0E089F000FD5F0DAE4CDFBE4CCFAE4C8F92280
:1008AD00EB9FF5F0EA9E42F0E99D42F0E89C45F0A1
:0108BD002218
:1008BE00E8600FECC313FCED13FDEE13FEEF13FF18
:0308CE00D8F1223C
:1008D100BB010DE58229F582E5833AF583020924FE
:1008E1005007E92582F8020917BBFE07E92582F8BE
:1008F100020930E58229F582E5833AF58302093D53
:10098300E55B244FF8E6055B22784C301002784F84
:10099300E475F00112094D0206962009EB7F2ED271
:1009A300098018EF540F2490D43440D4FF300D0B3A
:1009B300EF24BFB41A0050032461FFE55C60021505
:1009C3005C055FE55F7002055E30100D784CE475E1
:1009D300F00112094DEF0206DC0200567403D21037
:1009E3008003E4C210F55B8B4C8A4D894EE4F55CC1
:1009F300F55EF55FE55C60077F201209BE80F57543
:100A03005DFFC20AC209C20BC20CC20EC20FC211E1
:100A130012098CFF700D3010057F001209CFAF5FF4
:100A2300AE5E22B4255FC2D5C20D12098CFF24D05D
:100A3300B40A00501A75F00A785C30D50508B6FF81
:100A43000106C6A426F620D5047002D20C80D92450
:100A5300CFB41A00EF5004C2E5D20D020BCFD20A75
:100A630080C6D20980C0D20B80BCD2D580BAD20E48
:100A730080B47F201209BE200B077401B55C0040CF
:100A8300F1120983FF1209BE0209F7D211D20F80B6
:100A930095120983FB120983FA120983F94A4B70F1
:100AA3000679A07A0C7BFF200B2EE55C602A7E0082
:100AB3008E827583001206AF60060EEE655D70F0E0
:100AC300C2D5EBC0E0EAC0E0E9C0E0EE120C16D0FC
:100AD300E0F9D0E0FAD0E0FB120696FF60AAEBC083
:100AE300E0EAC0E0E9C0E01209BED0E02401F9D099
:100AF300E03400FAD0E0FBE55D0460DCD55DD9802D
:100B0300877BFF7A0C7912D20B809C791080027953
:100B130008C20FC2118008D2D5790A8004790AC2AB
:100B2300D5E55D047002F55DE4FAFDFEFF1209836D
:100B3300FC7B08200A13120983FD7B1030090A127B
:100B43000983FE120983FF7B20EC3382D592D550B3
:100B530013C3E43009069FFFE49EFEE4200A039DCD
:100B6300FDE49CFCE4CBF8C20AEC700CCFCECDCCF8
:100B7300E824F8F870F38017C3EF33FFEE33FEED8C
:100B830033FDEC33FCEB33FB994002FB0FD8E9EB6D
:100B9300300A05F8D0E0C448B20AC0E00AEC4D4E72
:100BA3004F78207B0070C2EAB55D0040BCC0E01204
:100BB3000C18D0F0D0E0200A04C4C0E0C4B20AC0CC
:100BC300F01209A7D0F0D5F0EB0209F712095D0A7C
:100BD30094530B0E580A654C0A61420B124F0B1AC1
:0F0BE300440B1A490A7A430B20550B04460B04A6
:100BF200450B04470CC0500A692D0A6D2E0A902B32
:100C02000A71230A8E200CA92A0A294800000A88A0
:100C12003F3F3F00790AA2D5200C14300E09B910CB
:100C2200020404B9080104A2D5200F0250010420D5
:100C32000B68920BB55C005034C0E07F20300C1979
:100C42007F30A20B720F720E500F120C6FC20BC2CA
:100C52000FC20EC2117F30800F300E03E9C0E012C6
:100C620009BE300E03D0E0F9D0E0B55CCC300E17EF
:100C72007F30B9100C1209BE7F58300D077F788083
:100C820003B908031209BE300B057F2D0209BE7F8E
:100C9200202011F87F2B200FF322920B80CF286E99
:100CA200756C6C2900D20A120983300AF8C20A78DC
:100CB2005C30D50108F6020A292D50434958120921
:100CC200832403B405004001E4900CBB931209AFE6
:0D0CD200743A1209AFD20C755C04020B0ECF
:101269000210F1E493A3F8E493A34003F68001F29A
:1012790008DFF48029E493A3F85407240CC8C33386
:10128900C4540F4420C8834004F456800146F6DF55
:10129900E4800B0102040810204080901BFCE47ECE
:1012A900019360BCA3FF543F30E509541FFEE4934A
:1012B900A360010ECF54C025E060A840B8E493A311
:1012C900FAE493A3F8E493A3C8C582C8CAC583CA3C
:1012D900F0A3C8C582C8CAC583CADFE9DEE780BEF4
:011BFF0000E5
:10090100C5F0F8A3E028F0C5F0F8E5821582700281
:060911001583E038F0221E
:0D091700E6FB08E6F908E6FA08E6CBF82250
:0C092400E0F8A3E0F9A3E0FAA3E0FB2256
:0D093000E2FB08E2F908E2FA08E2CBF82247
:10093D00E493F8740193F9740293FA740393FB2210
:10094D00FAE6FB0808E6F925F0F618E6CA3AF622AB
:10095D00D083D082F8E4937012740193700DA3A329
:10096D0093F8740193F5828883E47374029368603D
:06097D00EFA3A3A380DF3D
:00000001FF
