:06000300041C00020005D0
:10214000754001753F037B007A00793F7F030213DE
:01215000FA94
:101FE100753F407540017544007543C275420175E6
:101FF1004100754601E4F547FB7A00793F7F011204
:0C200100084A7D017F01121F6C53A23FB2
:01200D0022B0
:10200E0043BA80122140121FE11221A5E4F53EE5EC
:10201E003E25E0241CF808E6FFAD3E1220F0053EFA
:09202E00E53EC3940840E880E39C
:1013FA00EFD3940740037FFF2212061EFED3940305
:10140A0040037FFF22EF7041EE700B90000112063D
:10141A0037F45293529412061EB4010B9000011233
:10142A0006374293F4529412061EFEB4020A900042
:10143A000112063742934294EEB4030D9000011252
:10144A000637FEF45293EE4294EF6401704312069B
:10145A001EFE700B900001120637F452915292EE62
:10146A00B4010B9000011206374291F4529212060F
:10147A001EB4020A900001120637429142921206E5
:10148A001EB4030D900001120637FEF45291EE428B
:10149A0092EF6402704312061EFE700B9000011256
:1014AA000637F452955296EEB4010B9000011206DB
:1014BA00374295F4529612061EB4020A900001129F
:1014CA0006374295429612061EB4030D9000011289
:1014DA000637FEF45295EE4296EF64037043120605
:1014EA001EFE700B900001120637F452B152B2EE92
:1014FA00B4010B90000112063742B1F452B212063F
:10150A001EB4020A90000112063742B142B2120614
:10151A001EB4030D900001120637FEF452B1EE42DA
:10152A00B2EF6404704312061EFE700B90000112A3
:10153A000637F452B352B4EEB4010B90000112060E
:10154A003742B3F452B412061EB4020A90000112D2
:10155A00063742B342B412061EB4030D90000112BC
:10156A000637FEF452B3EE42B4EF64057043120636
:10157A001EFE700B900001120637F452C952CAEED1
:10158A00B4010B90000112063742C9F452CA12067E
:10159A001EB4020A90000112063742C942CA120654
:1015AA001EB4030D900001120637FEF452C9EE4232
:1015BA00CAEF6406704312061EFE700B90000112F9
:1015CA000637F452CB52CCEEB4010B90000112064E
:1015DA003742CBF452CC12061EB4020A9000011212
:1015EA00063742CB42CC12061EB4030D90000112FC
:1015FA000637FEF452CBEE42CCEF64077043120674
:10160A001EFF700B900001120637F452E152E2EF0E
:10161A00B4010B90000112063742E1F452E21206BD
:10162A001EB4020A90000112063742E142E2120693
:10163A001EB4030D900001120637FFF452E1EF4287
:04164A00E27F002219
:10203700C0F9A4B0999282F880904079243019129F
:10204700027800107FBF8883C6A1868E89F1C78C6E
:0220570098C12E
:0721A50053B3E353B4E3223E
:021AAB00A90789
:101AAD007B077E007401A803088005C333CE33CEB7
:101ABD00D8F9FFE9F582EF558224FF92C4C2C20026
:101ACD0000D2C200001BC3EB6480948050D47B070E
:101ADD007E007401A803088005C333CE33CED8F938
:101AED00FFEDF582EF558224FF92C4C2C20000D2F1
:101AFD00C200001BC3EB6480948050D4C2C30000AD
:041B0D00D2C300003F
:011B110022B1
:1020F000EF90203793FFAE05A8067401088002C355
:0721000033D8FCFD021AAB0D
:0F2162007D607C09ED1D70011C144C70F7DFF1DE
:01217100224B
:101B6B00900001120637FFE5DE54F04FF5DE9000D2
:101B7B0002120637C43354E0FFE5DE54DF4FF5DEC7
:101B8B0012061EFFD3941F502B900003120637FE34
:101B9B00D39401501F900004120637FDD3940350C9
:101BAB0013EDC43354E0FDEEC433333354804D4F47
:051BBB0090FEA8F022DD
:0B217200BF010443BC802253BC7F224D
:101A3E00EFD3940F40028060E4F5BDF5BEE5BC54D3
:101A4E00F044404FF5BC0000000000000000000014
:101A5E00E4FDE5BC30E53D53BCDFE5DEAFBD30E572
:101A6E000EEFFEACBEECFBEEF573EBF5748020755D
:101A7E0073008F74E5BEC4540FFBE574C4F8540FA5
:101A8E00C868FFE573C454F048F573EF4BF574AEB8
:0C1A9E0073AF74220DBDFABA7E107F00F9
:011AAA002219
:03002B00020026AA
:0400260053BCDF32B6
:10164E00CEC2B6C8A3BA20256420A1E60A00E3F2F2
:10165E00D8A8CDDAC380B99BB029A7259E8D965CFC
:10166E008E9087258017796373046CF8673B61CA87
:10167E005CA157BC53194EB44A8B469B42E03F586F
:10168E003C0138D735D9330530582DD02B6A292750
:10169E00270224FC231121411F8B1DEC1C631AF021
:1016AE0019911844170A15E114C713BD12C111D2AE
:1016BE0010F0101A0F500E900DDA0D2E0C8B0BF140
:1016CE000B5E0AD30A4F09D3095C08EC0881081C8B
:1016DE0007BA0761070A06B8066A062005D90596F5
:1016EE000556051A04E004A904750444041403E81D
:1016FE0003BD0394036D03480325030302E302C5F0
:10170E0002A7028C0271025802400228021201FD49
:10171E0001E901D601C401B201A101910182017357
:10172E0001660158014B013E01320127011C0112D5
:10173E00010800FE00F500EC00E400DC00D400CD52
:10174E0000C600BF00B800B200AC00A600A0009B0F
:10175E0000960091008C00870083007E007A007650
:10176E000073006F006B006800650061005E005B37
:10177E000059005600530051004E004C004A0047DD
:10178E00004500430041003F003D003C003A003858
:10179E0000370035003400320031002F002E002DAE
:1017AE00002B002A002900280027002600250024EF
:0817BE0000230022002100209D
:102151007576107575017B007A007975E4FF0213BD
:01216100FA83
:10205900756E1FE4F571757201756F0F757001FB6F
:102069007A00796E121B6B7F01122172E4FDFF0267
:022079001F2E18
:0621AC001220590221512E
:0817C6008F558E548D538C5297
:1017CE00E4F558F55990165C93FC740193FDE41200
:1017DE0003C2A804A905AA06AB07AF55AE54AD5374
:1017EE00AC521200A91203FB12000EAC06AD07ECB0
:1017FE001203C28F5D8E5C8D5B8C5A755E00755FB9
:10180E00B5E4F556F557C3E557955FE55E6480F888
:07181E00E556648098507349
:10182500E55725E0FFE55633FE745C2FF582741607
:101835003EF583E493FC740193FDE41203C2A8040E
:10184500A905AA06AB07AF55AE54AD53AC5212006D
:10185500A91203FB12000EAC06AD07EC1203C28FF2
:10186500638E628D618C60AB5DAA5CA95BA85A1220
:1018750003446014401285635D85625C85615B8508
:08188500605A85565885575939
:0F188D000557E55770810556021814AE58AF592C
:01189C002229
:10189D007F0C121A3EAD07AC06E41203C2E4FBFA4C
:1018AD007920784012019EE4FBFA79807845120286
:1018BD00A78F678E668D658C64AB67AA66A965A8D0
:1018CD00647F337E337D537C401200A9C004C00574
:1018DD00C006C007E4FFFE7D207C41AB67AA66A968
:1018ED0065A86412019ED003D002D001D00012026F
:1018FD00A78F6B8E6A8D698C68E4FFFE7DC87C4274
:10190D00AB6BAA6AA969A86812019E1217C6EF24CB
:10191D00C9F56DEE34FFF56C7BFF7A16794EF52522
:0A192D00856D26120D86AE6CAF6DBD
:01193700228D
:101E3600EFD3940140037FFF22EDD3940340037F49
:101E4600FF22EF7004C2A98002D2A9ED700553B734
:101E5600FDC2B9BD010553B7FDD2B9BD020543B7F1
:0E1E660002C2B9BD030543B702D2B97F002204
:101E7400EFD3940140037FFF22EDD3940340037F0B
:101E8400FF22EF7004C2AB8002D2ABED700553B7F2
:101E9400F7C2BBBD010553B7F7D2BBBD020543B7BB
:0E1EA40008C2BBBD030543B708D2BB7F0022B6
:10207B00EFD3940140037FFF22EDD3940340037F02
:10208B00FF22EF25E025E0FFE5AF54FB4FF5AFE472
:02209B00FF2222
:10209D00EFD3940140037FFF22EDD3940340037FE0
:1020AD00FF22EFC43354E0FFE5AF54DF4FF5AFE44B
:0220BD00FF2200
:10006600EFD3940140037FFF22EDD3940340037F37
:10007600FF22EFC4333354C0FFE5AF54BF4FF5AF93
:03008600E4FF2272
:101EB200EFD3940140037FFF22EDD3940340037FCD
:101EC200FF22EF7004C2A88002D2A8ED700553B7BA
:101ED200FEC2B8BD010553B7FED2B8BD020543B775
:0E1EE20001C2B8BD030543B701D2B87F00228C
:101EF000EFD3940140037FFF22EDD3940340037F8F
:101F0000FF22EF7004C2AA8002D2AAED700553B777
:101F1000FBC2BABD010553B7FBD2BABD020543B738
:0E1F200004C2BABD030543B704D2BA7F002243
:1020D800EFD3940140037FFF22EFC454F0FFE58F54
:0820E80054EF4FF58FE4FF22D5
:1020BF00EFD3940140037FFF22EFC43354E0FFE5D9
:0920CF008F54DF4FF58FE4FF226E
:10004600EFD3940140037FFF22EFC4333354C0FF44
:0A005600E58F54BF4FF58FE4FF2241
:101F2E00EFD3940140037FFF22EDD3940340037F50
:101F3E00FF22EF7004C2AD8002D2ADED700553B733
:101F4E00DFC2BDBD010553B7DFD2BDBD020543B72C
:0E1F5E0020C2BDBD030543B720D2BD7F0022C7
:101C9B00EDD3940340037FFF22EF30E10543E620B1
:101CAB00800353E6DFEF30E00543E610800353E695
:101CBB00EFED700653B6DF53B5DFBD010653B6DF4C
:101CCB0043B520BD020643B62053B5DFBD03064323
:081CDB00B62043B5207F002272
:101B1200EFD3940140037FFF22EBD3940340037F72
:101B2200FF22BF0112ED90FE817006E0547FF0802B
:101B320011E04480F0800BEF700890FE83E0548740
:101B42004DF0EB700653B6DF53B5DFBB010653B65B
:101B5200DF43B520BB020643B62053B5DFBB030605
:091B620043B62043B5207F0022A8
:101F6C00EFD3940140037FFF22EDD3940340037F12
:101F7C00FF22EF7004C2AC8002D2ACED700553B7F7
:101F8C00EFC2BCBD010553B7EFD2BCBD020543B7D0
:0E1F9C0010C2BCBD030543B710D2BC7F0022AB
:101DF600EFD3940140037FFF22EDD3940340037F8A
:101E0600FF22E5AF54FE4FF5AFED700653B6FE5315
:101E1600B5FEBD010653B6FE43B501BD020643B687
:101E26000153B5FEBD030643B60143B5017F00224B
:101CE300EFD3940140037FFF22EDD3940340037F9E
:101CF300FF22EF33333354F8FFE5AF54F74FF5AF1B
:101D0300ED700653EEFE53DFFEBD010653EEFE43B8
:101D1300DF01BD020643EE0153DFFEBD030643EEC2
:071D23000143DF017F0022F4
:101D2A00EFD3940140037FFF22EDD3940340037F56
:101D3A00FF22EFC454F0FFE5AF54EF4FF5AFED705B
:101D4A000653EEFD53DFFDBD010653EEFD43DF02F0
:101D5A00BD020643EE0253DFFDBD030643EE024316
:051D6A00DF027F0022F2
:101D6F00EFD3940140037FFF22EDD3940340037F11
:101D7F00FF22EF25E0FFE5AF54FD4FF5AFED700605
:101D8F0053B6FD53B5FDBD010653B6FD43B502BDB8
:101D9F00020643B60253B5FDBD030643B60243B573
:041DAF00027F00228D
:1019C400EFD3948140037FFF22EBD3940340037F42
:1019D400FF22EF247F603004705890FEC4EDF0EBDA
:1019E400700653B6FB53B5FBBB010653B6FB43B5B8
:1019F40004BB020643B60453B5FBEB6403703843DF
:101A0400B60443B504803090FEE4EDF0EB70065369
:101A1400B6F753B5F7BB010653B6F743B508BB0297
:101A24000643B60853B5F7BB030D43B60843B508E0
:0A1A3400800590FEE4EDF07F002233
:101FAA00EDD394035026ED700653EEFB53DFFBBDD1
:101FBA00010653EEFB43DF04BD020643EE0453DF82
:101FCA00FBBD030B43EE0443DF0480037FFF229033
:071FDA00FE62EFF07F002220
:10119300AD07ED7079C28C12061EFED39403400393
:1011A3007FFF22E58954FC4EF58990000112063732
:1011B300FED3940240037FFF22EE7006538E7F53CB
:1011C30089FB900001120637B40106438E805389D0
:1011D300FB900001120637B4020343890490000216
:1011E300120637FFE58F54FE4FF58F90000312066A
:1011F30076E5F0F58C900003120676F58A900006EA
:101203001206377004C28C8002D28C7F0022ED64F8
:10121300016003021299C28E12061EFED39403408C
:10122300037FFF22EEC454F0FFE58954CF4FF589C5
:10123300900001120637FED3940240037FFF22EE93
:101243007006538EBF5389BF900001120637B40155
:1012530006438E405389BF900001120637B4020340
:1012630043894090000212063725E0FFE58F54FDC5
:101273004FF58F900003120676E5F0F58D9000038D
:10128300120676F58B9000061206377004C28E8024
:1012930002D28E7F0022ED64027065538EEF9000C0
:1012A30001120637FF7006538EFB538EF7EFB4011E
:1012B30006438E04538EF7EFB40203438E08900067
:1012C3000212063725E025E0FFE58F54FB4FF58F2B
:1012D300900003120676E5F0F5D690000312067629
:1012E300F5D790000512063790FEA2F09000061283
:1012F3000637C454F0FFE58E54EF4FF58E7F00227E
:10130300ED6403707253D1F7900001120637FED3D8
:10131300940240037FFF22EE700653D1FD53D1FBAD
:10132300900001120637B4010643D10253D1FB905A
:101333000001120637B4020343D1049000021206DF
:1013430037FFE5D154FE4FF5D1900003120676E541
:10135300F0F5D4900003120676F5D5900005120639
:101363003790FEA3F090000612063733333354F858
:10137300FFE5D154F78077ED6404707853D17F9003
:101383000001120637FED3940240037FFF22EE7062
:101393000653D1DF53D1BF900001120637B40106C3
:1013A30043D12053D1BF900001120637B402034347
:1013B300D140900002120637C454F0FFE5D154EF38
:1013C3004FF5D1900003120676FDACF0ECF5D2AFE9
:1013D300058FD390000512063790FEA4F090000607
:1013E300120637C43333335480FFE5D1547F4FF5AE
:0713F300D17F00227FFF22E1
:03000B0002006090
:03006000B2EF32CA
:03001B0002008E52
:03008E00B2EE329D
:0300630002009602
:03009600B2ED3296
:03009B0002009EC2
:03009E00B2EC328F
:0300A3000221B285
:0321B200B2EB325B
:08084A008F488B498A4A894B53
:10085200E548640160030209C0F508F509F50AF5E7
:100862000BF50CF54CF54D7440254DF582740135B0
:100872004CF583E4F0054DE54D7002054C6480456E
:100882004C70E4E4F54CF54D7400254DF58274008E
:10089200354CF583E4F0054DE54D7002054C64805E
:1008A200454C70E4AB49AA4AA94B12061EFFE598D3
:1008B200543F4FF598EF64C06008EF644060030254
:1008C20009759000021207AE7F807E8D7D5B7C00F1
:1008D2001206EA8F518E508D4F8C4EE4FFFE7D0141
:1008E200FCAB51AA50A94FA84EC312078A40037FFE
:1008F200FF22C3E49551F551E49550F550740195EA
:100902004FF54FE4954EF54EAB49AA4AA94B9000DC
:1009120001120637FB6401702CC28E538EFE53897E
:10092200BF5389CF438E40AF51AE50AD4FAC4E78DE
:100932000812079B8F8D85518BC2AB5389BF538F92
:10094200FDD28E8062EB64027026538EEF438E01DD
:10095200538EF7438E04AF51AE50AD4FAC4E780874
:1009620012079B8FD68551D753AFFB438E1080372A
:100972007FFF22AB49AA4AA94B12061EFF701390B1
:100982000008120637B40105438E20801A538EDF09
:100992008015EFB48011900008120637B4010543A8
:1009A2008780800353877FAB49AA4AA94B900007EF
:1009B2001206377004C29C8002D29C7F0022E54856
:1009C20064026003020AB9F50DF50EF50FF510F594
:1009D20011F54CF54D74E0254DF5827401354CF559
:1009E20083E4F0054DE54D7002054C6480454C7082
:1009F200E4E4F54CF54D7480254DF5827400354CD8
:100A0200F583E4F0054DE54D7002054C6480454CDC
:100A120070E4AB49AA4AA94B12061EFF64C06005E6
:100A2200EF64407075EFB4C005439A808003539A17
:100A32007F9000021207AE7F807E8D7D5B7C00126C
:100A420006EA8F518E508D4F8C4EE4FFFE7D01FCE5
:100A5200AB51AA50A94FA84EC312078A40037FFF89
:100A620022C3E49551F551E49550F5507401954F28
:100A7200F54FE4954EF54E538EEF538EF7438E04A9
:100A8200AF51AE50AD4FAC4E780812079B8FD68552
:100A920051D753AFFB438E1080037FFF22AB49AA8D
:100AA2004AA94B900007120637C454F0FFE59A5446
:100AB200EF4FF59A7F0022E54864036003020BEDD5
:100AC200F512F513F514F515F516F54CF54D7460A0
:100AD200254DF5827402354CF583E4F0054DE54D64
:100AE2007002054C6440454C70E4E4F54CF54D74DD
:100AF20000254DF5827401354CF583E4F0054DE592
:100B02004D7002054C6440454C70E4AB49AA4AA9B9
:100B12004B12061EFF64C06008EF64406003020BC4
:100B2200D0EFB4C00543AC80800353AC7F90000289
:100B32001207AE7F807E8D7D5B7C001206EA8F51AC
:100B42008E508D4F8C4EE4FFFE7D01FCAB51AA50BE
:100B5200A94FA84EC312078A40037FFF22C3E49520
:100B620051F551E49550F5507401954FF54FE495C8
:100B72004EF54EAB49AA4AA94B900001120637FB2B
:100B8200B4031D43AC40AF51AE50AD4FAC4E7808EC
:100B920012079B8FD48551D553D1F043D10A8031AE
:100BA200EB64027026538EEF53ACBF538EF7438E25
:100BB20004AF51AE50AD4FAC4E780812079B8FD6A2
:100BC2008551D753AFFB438E1080067FFF227FFFF4
:100BD20022AB49AA4AA94B900007120637C454F027
:100BE200FFE5AC54EF4FF5AC7F0022E548640460AA
:100BF20003020D21F517F518F519F51AF51BF54C39
:100C0200F54D74A0254DF5827402354CF583E4F060
:100C1200054DE54D7002054C6420454C70E4E4F549
:100C22004CF54D74C0254DF5827401354CF583E4C5
:100C3200F0054DE54D7002054C6420454C70E4AB67
:100C420049AA4AA94B12061EFF64C06008EF64401D
:100C52006003020D04EFB4C0054384808003538413
:100C62007F9000021207AE7F807E8D7D5B7C00123A
:100C720006EA8F518E508D4F8C4EE4FFFE7D01FCB3
:100C8200AB51AA50A94FA84EC312078A40037FFF57
:100C920022C3E49551F551E49550F5507401954FF6
:100CA200F54FE4954EF54EAB49AA4AA94B90000187
:100CB200120637FBB4041D438440AF51AE50AD4F12
:100CC200AC4E780812079B8FD28551D353D10F4374
:100CD200D1A08031EB64027026538EEF5384BF5350
:100CE2008EF7438E04AF51AE50AD4FAC4E78081222
:100CF200079B8FD68551D753AFFB438E1080067F5B
:100D0200FF227FFF22AB49AA4AA94B900007120695
:100D120037C454F0FFE58454EF4FF5847F00227FFF
:010D2200FFD1
:010D230022AD
:0A217D008F99750A01E50A70FC2233
:10002E0012061EFF600C12217D740129F9E43AFAC2
:03003E0080EE222F
:0A2187008F9B750F01E50F70FC221D
:1021070012061EFF600C122187740129F9E43AFABE
:0321170080EE2235
:0A2191008FAD751401E51470FC22F7
:10211A0012061EFF600C122191740129F9E43AFAA1
:03212A0080EE2222
:0A219B008F85751901E51970FC220B
:10212D0012061EFF600C12219B740129F9E43AFA84
:03213D0080EE220F
:05001E00AE0702217D88
:03002300021DB308
:101DB300C0E0C083C082C0D075D000C00730982077
:101DC300C298E50BC394804003750B00AF0B050B62
:101DD30074002FF582E43400F583E599F0750C0562
:101DE300309905C299750A00D007D0D0D082D0832C
:031DF300D0E0320B
:03004300021BC0DD
:101BC000C0E0C083C082C0D075D000C007E59A30A5
:101BD000E021539AFEE510C394804003751000AFD6
:101BE00010051074802FF582E43400F583E59BF036
:101BF000751105E59A30E106539AFD750F00D0077F
:091C0000D0D0D082D083D0E032B4
:03008B00021C094B
:101C0900C0E0C083C082C0D075D000C007E5AC3049
:101C1900E02153ACFEE515C394404003751500AFB0
:101C290015051574002FF582E43401F583E5ADF04F
:101C3900751605E5AC30E10653ACFD751400D00707
:091C4900D0D0D082D083D0E0326B
:03009300021C52FA
:101C5200C0E0C083C082C0D075D000C007E5843028
:101C6200E0215384FEE51AC394204003751A00AFA5
:101C72001A051A74C02FF582E43401F583E585F064
:101C8200751B05E58430E1065384FD751900D00704
:091C9200D0D0D082D083D0E03222
:1000A600020467E86480F8E933E83360110460F01D
:1000B600ED33EC337009E8FCE9FDEAFEEBFF2204C0
:1000C60060DED3EB9FEA9EE99DE8C2E78CF0C2F7BB
:1000D60095F0400CE8CCF8E9CDF9EACEFAEBCFFB87
:1000E60012043285D0F05804700320D5B3E80470AA
:1000F600075002B2D502047192D5EC0460F7E4CC45
:10010600C0E0C398F8603B94186008400DD0E0FB4F
:10011600020449E4FBFAC9FC8028E830E406E4C995
:10012600FBE4CAFCE830E305E4C9CACBFCE85407A3
:100136006010F8C3E913F9EA13FAEB13FBEC13FCAE
:10014600D8F130F52FC3E49CFCEF9BFFEE9AFEED51
:1001560099FDD0E0FBEF4E4D4C701222DB030204FA
:100166006EEC2CFCEF33FFEE33FEED33FDED30E7A6
:10017600EB020449EF2BFFEE3AFEED39FDD0E0FB32
:1001860050130BBB0003020471ED13FDEE13FEEFDB
:0801960013FFEC13FC02044905
:10019E00EC4D6011E8497017ED33EC3304600DE45B
:1001AE00FCFFFEFD22E933E8330470F80204671207
:1001BE00043258046009E4CC248150062850090208
:1001CE00047128400302046EC0E0EB4A7044B9800B
:1001DE0006D0E0FB02045DEF4E701CBD8008EBFF05
:1001EE00EAFEE9FD80EBE98DF0A4FEE5F002028760
:1001FE00E9CDF9EAFEEBFFEF89F0A4FCE5F0CE893C
:10020E00F0A42EFFE435F0CD89F0A42DFEE435F0F8
:10021E008067EF4E7005BD80D780C3EF8BF0A4AC26
:10022E00F0EE8BF0A42CFCE435F0F8EF8AF0A42C61
:10023E00E5F038FCE433CB8DF0A42CFCE5F03BF874
:10024E00EE8AF0A42CFCE5F038F8E433CF89F0A464
:10025E002CFCE5F038CF3400CE89F0A42FFFE5F06A
:10026E003EFEE433C98DF0A42EFEE5F039CD8AF0C2
:10027E00A42FFFE5F03EFEE43DFD33D0E0FB50073A
:10028E000BBB000F020471EC2CFCEF33FFEE33FEC0
:06029E00ED33FD020449EE
:1002A400020471EC5D046005E859047003020467FC
:1002B400120432580460F6EC4860F2EC7004FDFE5F
:1002C400FF22C860DB2481C85009C398600250062D
:1002D40002046E9850CAF582E9294B4A7005AB8234
:1002E40002045D75F0007C1A7880C3EF9BEE9AEDF2
:1002F40099400DC3EF9BFFEE9AFEED99FDE842F0A5
:10030400DC23ACF0D0E0FFD0E0FED0E0FDAB8220F7
:10031400E7101BEB60BAEC2CFCEF33FFEE33FEED81
:1003240033FD020449E803F830E705C0F075F00036
:10033400EF2FFFEE33FEED33FD40B830E7C280AA65
:1003440074F8CC6480CCC86480C8F58204604FC360
:10035400EB9FF5F0EA9E42F0E99D42F0E89C45F0FF
:10036400603C501DE5825FFFE582D313CB5BCBF489
:100374002B5582FB50280ABA002409B900200880B2
:100384001DE5825BFBE582D313CF5FCFF4C3132F4C
:100394005582FF50090EBE00050DBD00010CC3EBD4
:1003A4009FF5F0EA9E42F0E99D42F0E89C45F0603A
:0903B40007CC4820E701B3EC225C
:1003BD0075F020800E75F010800575F0087D007EBB
:1003CD00007F003392D530D50312077CEC334010FB
:1003DD00EF33FFEE33FEED33FDEC33FCD5F0ED22C4
:0E03ED00E5F0247EA2D513CC92E7CDCEFF2200
:1003FB00EDD2E7CD33EC3392D524814006E4FFFEFA
:10040B00FDFC22FCE4CFCECDCC24E0501174FF8058
:10041B00EDC3CC13CCCD13CDCE13CECF13CF0470F5
:07042B00F030D5DE02077C72
:100D2400E5392425F8E605392278223007027825AA
:100D3400E475F0011207DE02061E2000EB7F2ED2BE
:100D4400008018EF540F2490D43440D4FF30040BA7
:100D5400EF24BFB41A0050032461FFE53A60021582
:100D64003A053DE53D7002053C30070D7822E475F7
:100D7400F0011207DEEF02066402001E7403D207BC
:100D84008003E4C207F5398B228A238924E4F53AE7
:100D9400F53CF53DE53A60077F20120D5F80F5755F
:100DA4003BFFC201C200C202C203C205C206C2089E
:100DB400120D2DFF700D3007057F00120D70AF3D31
:100DC400AE3C22B4255FC2D5C204120D2DFF24D03F
:100DD400B40A00501A75F00A783A30D50508B6FFFF
:100DE4000106C6A426F620D5047002D20380D924B5
:100DF400CFB41A00EF5004C2E5D20402105DD20150
:100E040080C6D20080C0D20280BCD2D580BAD205BE
:100E140080B47F20120D5F2002077401B53A0040B0
:100E2400F1120D24FF120D5F020D98D208D2068034
:100E340095120D24FB120D24FA120D24F94A4B705D
:100E44000679547A117BFF20022EE53A602A7E004F
:100E54008E8275830012063760060EEE653B70F0D5
:100E6400C2D5EBC0E0EAC0E0E9C0E0EE1210BDD0AC
:100E7400E0F9D0E0FAD0E0FB12061EFF60AAEBC056
:100E8400E0EAC0E0E9C0E0120D5FD0E02401F9D04F
:100E9400E03400FAD0E0FBE53B0460DCD53BD980CC
:100EA40087D20280A21210A060F7E53B7001041201
:100EB400047CA93B600DE53B600914F53B12114726
:100EC400EF60F3EA30E702F404C3995077EAF425BB
:100ED4003B0430E701E404F53B800D1210A060C12F
:100EE400EA053B253B12047CEA7838F630E701E456
:100EF400253B04D53B04200501141210BDE4C0E0D9
:100F04001211477838E6601320E70714F6120D47EC
:100F1400802204F6D0E014C0E07F00120D47E53BC8
:100F24006007120D3E153B800B300503120D3ED0B9
:100F3400E0020D98D0E00480C51210A060A0E53B4B
:100F44000412047C7838EAF6E53B200502600104CB
:050F540024041210BD91
:100F590074FF04C0E0121147120D47E53B2005025A
:100F69006003120D3ED0E0B53BE87F45120D517884
:100F790038E67F2B30E7047F2DF404C0E0120D5FC3
:100F8900D0E075F00A84C0F0120D48D0E0120D4887
:100F9900020D98791080027908C206C2088008D229
:100FA900D5790A8004790AC2D5E53B047002F53B7C
:100FB900E4FAFDFEFF120D24FC7B08200113120D3B
:100FC90024FD7B1030000A120D24FE120D24FF7B34
:100FD90020EC3382D592D55013C3E43000069FFF2D
:100FE900E49EFEE42001039DFDE49CFCE4CBF8C2F1
:100FF90001EC700CCFCECDCCE824F8F870F3801753
:10100900C3EF33FFEE33FEED33FDEC33FCEB33FB83
:10101900994002FB0FD8E9EB300105F8D0E0C4484C
:10102900B201C0E00AEC4D4E4F78207B0070C2EA55
:10103900B53B0040BCC0E01210BFD0F0D0E02001A9
:1010490004C4C0E0C4B201C0F0120D48D0F0D5F01C
:10105900EB020D981207EE0E35530F9C580E064CF5
:101069000E02420FA04F0FA8440FA8490E1B430FB1
:10107900AE550EDF460F3D450EA9471174500E0AB5
:101089002D0E0E2E0E312B0E12230E2F20115D2A3E
:101099000DCA4800000E29E53BB4FF03753B061253
:1010A9000D24FC120D24FD120D24FE120D24FF78CF
:1010B900310204AB790AA2D5200314300509B9100D
:1010C900020404B9080104A2D52006025001042033
:1010D90002689202B53A005034C0E07F203003190B
:1010E9007F30A20272067205500F121116C202C297
:1010F90006C205C2087F30800F300503E9C0E0123F
:101109000D5F300503D0E0F9D0E0B53ACC300517D2
:101119007F30B9100C120D5F7F583004077F78803B
:1011290003B90803120D5F3002057F2D020D5F7FA1
:10113900202008F87F2B2006F322920280CF7F001F
:10114900B4070050052431F8E6FF22286E756C6C4F
:101159002900D201120D243001F8C201783A30D5A4
:101169000108F6020DCA2D50434958120D242403D3
:10117900B405004001E490116F93120D50743A12B6
:0A1189000D50D203753A04020F9CCA
:10043200E9D2E7C933E833F892D5EDD2E7CD33EC10
:0704420033FC5002B2D52289
:10044900EC30E7100FBF000C0EBE00080DBD000414
:100459000BEB6014A2D5EB13FCED92E7FD2274FFC0
:10046900FCFDFEFF22E480F8A2D574FF13FC7D8019
:03047900E480EF2D
:10047C00F920E72824F950037907E4F42402FB1847
:10048C00DBFDE624FB5014E9600DE4F618E604F6F7
:0F049C00B40A08E4F6D9F57401F60A22C2D52293
:1004AB00ED33EC3392D5FA602AB4FF33EDC2E77B20
:1004BB00FF60067A0479D0E4227A0479D920D50436
:1004CB007A0479D4224E614E002B494E46002D49B9
:1004DB004E4600E47A08F608DAFC7B00740722E843
:1004EB00C0E0ECC0E0EDC0E0EEC0E0EFC0E0EA75CC
:1004FB00F010A4CAABF075F04DA42BFBE435F0FC67
:10050B00EA2410FAEB34C5FBEC34D9FCEDC2E7FF5F
:10051B0075F056A4F42411C5F0F434C58FF0A42A59
:10052B00E5F03BE43CF620E7141205DED0E0FFD00B
:10053B00E0FED0E0FDD0E0FC1202A78014F4041220
:10054B0005DED0E0FFD0E0FED0E0FDD0E0FC1201F4
:10055B009ED0E0F8E6FAEDD2E7CD33EC332482FB04
:10056B00E4C3CF33CFCE33CECD33CD33DBF37B07E9
:10057B0075F00A846004F6081B0AE5F0F6088FF0A4
:10058B00740AA4FFACF08EF0740AA42CFEACF050ED
:10059B00010C8DF0740AA42CFDE435F0F608DBDEBB
:0305AB00740722B0
:1005AE003F8000004120000042C80000447A000055
:1005BE00461C400047C35000497424004B189680D7
:1005CE004CBEBC205A0E1BCA6753C21C749DC5AECE
:1005DE00FB60065407601C232312060CEB54386094
:1005EE00091205F812060712019EECF8EDF9EEFA63
:1005FE00EFCB22EB12060780F1543803241C900532
:10060E00AEFE93FC0EEE93FD0EEE930ECE93FF22F6
:03000000021938AA
:0C193800787FE4F6D8FD75817602197FF7
:10061E00BB010689828A83E0225002E722BBFE02DA
:09062E00E32289828A83E493220D
:10063700BB010CE58229F582E5833AF583E0225078
:1006470006E92582F8E622BBFE06E92582F8E222C2
:0D065700E58229F582E5833AF583E49322DC
:10066400BB010689828A83F0225002F722BBFE0175
:02067400F3226F
:10067600BB0110E58229F582E5833AF583E0F5F0C2
:10068600A3E0225009E92582F886F008E622BBFE9F
:100696000AE92582F8E2F5F008E222E5832AF583E5
:0806A600E993F5F0A3E99322AA
:1006AE0075F008758200EF2FFFEE33FECD33CDCC03
:1006BE0033CCC58233C5829BED9AEC99E582984086
:1006CE000CF582EE9BFEED9AFDEC99FC0FD5F0D663
:1006DE00E4CEFBE4CDFAE4CCF9A88222B800C1B98D
:1006EE000059BA002DEC8BF084CFCECDFCE5F0CBCB
:1006FE00F97818EF2FFFEE33FEED33FDEC33FCEB04
:10070E0033FB10D703994004EB99FB0FD8E5E4F9BE
:10071E00FA227818EF2FFFEE33FEED33FDEC33FCAB
:10072E00C933C910D7059BE99A4007EC9BFCE99A9F
:10073E00F90FD8E0E4C9FAE4CCFB2275F010EF2FE4
:10074E00FFEE33FEED33FDCC33CCC833C810D707E4
:10075E009BEC9AE899400AED9BFDEC9AFCE899F81F
:0E076E000FD5F0DAE4CDFBE4CCFAE4C8F922B2
:0E077C00C3E49FFFE49EFEE49DFDE49CFC228E
:10078A00EB9FF5F0EA9E42F0E99D42F0E89C45F0C5
:01079A00223C
:10079B00E8600FECC313FCED13FDEE13FEEF13FF3C
:0307AB00D8F12260
:1007AE00BB010DE58229F582E5833AF58302082126
:1007BE005007E92582F8020814BBFE07E92582F8E6
:1007CE0002082DE58229F582E5833AF58302083A7F
:1007DE00FAE6FB0808E6F925F0F618E6CA3AF6221C
:1007EE00D083D082F8E4937012740193700DA3A39A
:1007FE0093F8740193F5828883E4737402936860AE
:06080E00EFA3A3A380DFAD
:0C000E00EE30E707C3E49FFFE49EFE22F3
:1019440002200EE493A3F8E493A34003F68001F28B
:1019540008DFF48029E493A3F85407240CC8C333A4
:10196400C4540F4420C8834004F456800146F6DF73
:10197400E4800B0102040810204080900003E47E00
:10198400019360BCA3FF543F30E509541FFEE49368
:10199400A360010ECF54C025E060A840B8E493A32F
:1019A400FAE493A3F8E493A3C8C582C8CAC583CA5A
:1019B400F0A3C8C582C8CAC583CADFE9DEE780BE12
:0100090000F6
:0D081400E6FB08E6F908E6FA08E6CBF82254
:0C082100E0F8A3E0F9A3E0FAA3E0FB225A
:0D082D00E2FB08E2F908E2FA08E2CBF8224B
:10083A00E493F8740193F9740293FA740393FB2214
:00000001FF
