:100003004144433A2564202000CAE4C8EBB5E7D154
:0B001300B9CEAAA3BA252E3366560012
:0D1A11004393205394DF53B1FC53B2FC22E9
:1019170075281FE4F52B752C0175290F752A01FB16
:101927007A0079281214967F01121A2AE4FDFF0221
:02193700181482
:1018C700752840752901752D00752CC2752B01757A
:1018D7002A00752F01E4F530FB7A0079287F011281
:0C18E70007527D017F0112185253A23FEE
:0118F30022D2
:1013D60043BA80121A111219171218C7D2AF7F0D0D
:1013E6001213698E228F237BFF7A00790385222BC5
:1013F60085232C120C8EAC22AD23E4120241E4FBB1
:10140600FA79207840120096E4FBFA798078451242
:10141600019F8F278E268D258C247BFF7A00790CE1
:101426008F2E8E2D8D2C8C2B120C8E7FFA121A017C
:071436007FFA121A0180A7E2
:10149600900001120577FFE5DE54F04FF5DE90006F
:1014A60002120577C43354E0FFE5DE54DF4FF5DE64
:1014B60012055EFFD3941F502B900003120577FE92
:1014C600D39401501F900004120577FDD394035066
:1014D60013EDC43354E0FDEEC433333354804D4F23
:0514E60090FEA8F022B9
:0B1A2A00BF010443BC802253BC7F229C
:10136900EFD3940F40028060E4F5BDF5BEE5BC54AF
:10137900F044404FF5BC00000000000000000000F0
:10138900E4FDE5BC30E53D53BCDFE5DEAFBD30E54E
:101399000EEFFEACBEECFBEEF528EBF529802075CF
:1013A90028008F29E5BEC4540FFBE529C4F8540F62
:1013B900C868FFE528C454F048F528EF4BF529AE75
:0C13C90028AF29220DBDFABA7E107F006B
:0113D50022F5
:03002B00020026AA
:0400260053BCDF32B6
:0F1A01007D607C09ED1D70011C144C70F7DFF146
:011A100022B3
:10109B00EFD3940740037FFF2212055EFED3940328
:1010AB0040037FFF22EF7041EE700B9000011205A1
:1010BB0077F45293529412055EB4010B9000011217
:1010CB0005774293F4529412055EFEB4020A900027
:1010DB000112057742934294EEB4030D9000011276
:1010EB000577FEF45293EE4294EF640170431205C0
:1010FB005EFE700B900001120577F452915292EE46
:10110B00B4010B9000011205774291F45292120533
:10111B005EB4020A900001120577429142921205C9
:10112B005EB4030D900001120577FEF45291EE426E
:10113B0092EF6402704312055EFE700B9000011279
:10114B000577F452955296EEB4010B9000011205FF
:10115B00774295F4529612055EB4020A9000011282
:10116B0005774295429612055EB4030D900001126D
:10117B000577FEF45295EE4296EF64037043120529
:10118B005EFE700B900001120577F452B152B2EE75
:10119B00B4010B90000112057742B1F452B2120563
:1011AB005EB4020A90000112057742B142B21205F9
:1011BB005EB4030D900001120577FEF452B1EE42BE
:1011CB00B2EF6404704312055EFE700B90000112C7
:1011DB000577F452B352B4EEB4010B900001120533
:1011EB007742B3F452B412055EB4020A90000112B6
:1011FB00057742B342B412055EB4030D90000112A1
:10120B000577FEF452B3EE42B4EF6405704312055A
:10121B005EFE700B900001120577F452C952CAEEB4
:10122B00B4010B90000112057742C9F452CA1205A2
:10123B005EB4020A90000112057742C942CA120538
:10124B005EB4030D900001120577FEF452C9EE4215
:10125B00CAEF6406704312055EFE700B900001121C
:10126B000577F452CB52CCEEB4010B900001120572
:10127B007742CBF452CC12055EB4020A90000112F5
:10128B00057742CB42CC12055EB4030D90000112E0
:10129B000577FEF452CBEE42CCEF64077043120598
:1012AB005EFF700B900001120577F452E152E2EFF2
:1012BB00B4010B90000112057742E1F452E21205E2
:1012CB005EB4020A90000112057742E142E2120578
:1012DB005EB4030D900001120577FFF452E1EF426B
:0412EB00E27F00227C
:10171C00EFD3940140037FFF22EDD3940340037F6A
:10172C00FF22EF7004C2A98002D2A9ED700553B755
:10173C00FDC2B9BD010553B7FDD2B9BD020543B712
:0E174C0002C2B9BD030543B702D2B97F002225
:10175A00EFD3940140037FFF22EDD3940340037F2C
:10176A00FF22EF7004C2AB8002D2ABED700553B713
:10177A00F7C2BBBD010553B7F7D2BBBD020543B7DC
:0E178A0008C2BBBD030543B708D2BB7F0022D7
:10193900EFD3940140037FFF22EDD3940340037F4B
:10194900FF22EF25E025E0FFE5AF54FB4FF5AFE4BB
:02195900FF226B
:10195B00EFD3940140037FFF22EDD3940340037F29
:10196B00FF22EFC43354E0FFE5AF54DF4FF5AFE494
:02197B00FF2249
:1018F400EFD3940140037FFF22EDD3940340037F91
:10190400FF22EFC4333354C0FFE5AF54BF4FF5AFEC
:03191400E4FF22CB
:10179800EFD3940140037FFF22EDD3940340037FEE
:1017A800FF22EF7004C2A88002D2A8ED700553B7DB
:1017B800FEC2B8BD010553B7FED2B8BD020543B796
:0E17C80001C2B8BD030543B701D2B87F0022AD
:1017D600EFD3940140037FFF22EDD3940340037FB0
:1017E600FF22EF7004C2AA8002D2AAED700553B799
:1017F600FBC2BABD010553B7FBD2BABD020543B75A
:0E18060004C2BABD030543B704D2BA7F002264
:1019B000EFD3940140037FFF22EFC454F0FFE58F83
:0819C00054EF4FF58FE4FF2204
:10199700EFD3940140037FFF22EFC43354E0FFE508
:0919A7008F54DF4FF58FE4FF229D
:10197D00EFD3940140037FFF22EFC4333354C0FFF4
:0A198D00E58F54BF4FF58FE4FF22F1
:10181400EFD3940140037FFF22EDD3940340037F71
:10182400FF22EF7004C2AD8002D2ADED700553B754
:10183400DFC2BDBD010553B7DFD2BDBD020543B74D
:0E18440020C2BDBD030543B720D2BD7F0022E8
:1015C600EDD3940340037FFF22EF30E10543E6208D
:1015D600800353E6DFEF30E00543E610800353E671
:1015E600EFED700653B6DF53B5DFBD010653B6DF28
:1015F60043B520BD020643B62053B5DFBD030643FF
:08160600B62043B5207F00224D
:10143D00EFD3940140037FFF22EBD3940340037F4E
:10144D00FF22BF0112ED90FE817006E0547FF08007
:10145D0011E04480F0800BEF700890FE83E054871C
:10146D004DF0EB700653B6DF53B5DFBB010653B637
:10147D00DF43B520BB020643B62053B5DFBB0306E1
:09148D0043B62043B5207F002284
:10185200EFD3940140037FFF22EDD3940140037F35
:10186200FF22EF7004C2AC8002D2ACED700553B718
:10187200EFC2BCBD010553B7EFD2BCBD020543B7F1
:0E18820010C2BCBD030543B710D2BC7F0022CC
:1016DC00EFD3940140037FFF22EDD3940340037FAB
:1016EC00FF22E5AF54FE4FF5AFED700653B6FE5337
:1016FC00B5FEBD010653B6FE43B501BD020643B6A9
:10170C000153B5FEBD030643B60143B5017F00226C
:10160E00EFD3940140037FFF22EDD3940340037F79
:10161E00FF22EF33333354F8FFE5AF54F74FF5AFF6
:10162E00ED700653EEFE53DFFEBD010653EEFE4394
:10163E00DF01BD020643EE0153DFFEBD030643EE9E
:07164E000143DF017F0022D0
:10004600EFD3940140037FFF22EDD3940340037F57
:10005600FF22EFC454F0FFE5AF54EF4FF5AFED705C
:100066000653EEFD53DFFDBD010653EEFD43DF02F1
:10007600BD020643EE0253DFFDBD030643EE024317
:05008600DF027F0022F3
:10165500EFD3940140037FFF22EDD3940340037F32
:10166500FF22EF25E0FFE5AF54FD4FF5AFED700626
:1016750053B6FD53B5FDBD010653B6FD43B502BDD9
:10168500020643B60253B5FDBD030643B60243B594
:04169500027F0022AE
:1012EF00EFD3948140037FFF22EBD3940340037F1E
:1012FF00FF22EF247F603004705890FEC4EDF0EBB6
:10130F00700653B6FB53B5FBBB010653B6FB43B593
:10131F0004BB020643B60453B5FBEB6403703843BA
:10132F00B60443B504803090FEE4EDF0EB70065345
:10133F00B6F753B5F7BB010653B6F743B508BB0273
:10134F000643B60853B5F7BB030D43B60843B508BC
:0A135F00800590FEE4EDF07F00220F
:10189000EDD394035026ED700653EEFB53DFFBBDF2
:1018A000010653EEFB43DF04BD020643EE0453DFA3
:1018B000FBBD030B43EE0443DF0480037FFF229054
:0718C000FE62EFF07F002241
:080752008F318B328A338934A8
:10075A00E531640160030208C8F508F509F50AF5F0
:10076A000BF50CF535F53674402536F582740135EE
:10077A0035F583E4F00536E53670020535648045C3
:10078A003570E4E4F535F53674002536F5827400E3
:10079A003535F583E4F00536E536700205356480B3
:1007AA00453570E4AB32AA33A93412055EFFE598E9
:1007BA00543F4FF598EF64C06008EF64406003024D
:1007CA00087D9000021206B67F807E8D7D5B7C00DC
:1007DA001205F28F3A8E398D388C37E4FFFE7D018F
:1007EA00FCAB3AAA39A938A837C312069240037F4C
:1007FA00FF22C3E4953AF53AE49539F5397401953F
:10080A0038F538E49537F537AB32AA33A934900076
:10081A0001120577FB6401702CC28E538EFE538938
:10082A00BF5389CF438E40AF3AAE39AD38AC377833
:10083A00081206A38F8D853A8BC2AB5389BF538F9B
:10084A00FDD28E8062EB64027026538EEF438E01D6
:10085A00538EF7438E04AF3AAE39AD38AC377808C9
:10086A001206A38FD6853AD753AFFB438E10803733
:10087A007FFF22AB32AA33A93412055EFF701390B0
:10088A000008120577B40105438E20801A538EDFC3
:10089A008015EFB48011900008120577B401054362
:1008AA008780800353877FAB32AA33A9349000072D
:1008BA001205777004C29C8002D29C7F0022E53127
:1008CA00640260030209C1F50DF50EF50FF510F586
:1008DA0011F535F53674E02536F58274013535F5AE
:1008EA0083E4F00536E536700205356480453570D7
:1008FA00E4E4F535F53674802536F582740035352D
:10090A00F583E4F00536E536700205356480453531
:10091A0070E4AB32AA33A93412055EFF64C06005E5
:10092A00EF64407075EFB4C005439A808003539A10
:10093A007F9000021206B67F807E8D7D5B7C00125E
:10094A0005F28F3A8E398D388C37E4FFFE7D01FC33
:10095A00AB3AAA39A938A837C312069240037FFFD7
:10096A0022C3E4953AF53AE49539F5397401953894
:10097A00F538E49537F537538EEF538EF7438E04E7
:10098A00AF3AAE39AD38AC3778081206A38FD685A0
:10099A003AD753AFFB438E1080037FFF22AB32AAB4
:1009AA0033A934900007120577C454F0FFE59A542E
:1009BA00EF4FF59A7F0022E53164036003020AF5DE
:1009CA00F512F513F514F515F516F535F5367460C7
:1009DA002536F58274023535F583E4F00536E536B9
:1009EA00700205356440453570E4E4F535F5367432
:1009FA00002536F58274013535F583E4F00536E5D0
:100A0A0036700205356440453570E4AB32AA33A925
:100A1A003412055EFF64C06008EF64406003020A96
:100A2A00D8EFB4C00543AC80800353AC7F9000027A
:100A3A001206B67F807E8D7D5B7C001205F28F3AAE
:100A4A008E398D388C37E4FFFE7D01FCAB3AAA392A
:100A5A00A938A837C312069240037FFF22C3E49540
:100A6A003AF53AE49539F53974019538F538E4954B
:100A7A0037F537AB32AA33A934900001120577FB58
:100A8A00B4031D43AC40AF3AAE39AD38AC37780841
:100A9A001206A38FD4853AD553D1F043D10A8031B7
:100AAA00EB64027026538EEF53ACBF538EF7438E1E
:100ABA0004AF3AAE39AD38AC3778081206A38FD6F0
:100ACA00853AD753AFFB438E1080067FFF227FFF04
:100ADA0022AB32AA33A934900007120577C454F026
:100AEA00FFE5AC54EF4FF5AC7F0022E531640460BA
:100AFA0003020C29F517F518F519F51AF51BF53542
:100B0A00F53674A02536F58274023535F583E4F09E
:100B1A000536E536700205356420453570E4E4F59E
:100B2A0035F53674C02536F58274013535F583E41A
:100B3A00F00536E536700205356420453570E4ABBC
:100B4A0032AA33A93412055EFF64C06008EF64401C
:100B5A006003020C0CEFB4C0054384808003538405
:100B6A007F9000021206B67F807E8D7D5B7C00122C
:100B7A0005F28F3A8E398D388C37E4FFFE7D01FC01
:100B8A00AB3AAA39A938A837C312069240037FFFA5
:100B9A0022C3E4953AF53AE49539F5397401953862
:100BAA00F538E49537F537AB32AA33A9349000010A
:100BBA00120577FBB4041D438440AF3AAE39AD3811
:100BCA00AC3778081206A38FD2853AD353D10F4394
:100BDA00D1A08031EB64027026538EEF5384BF5349
:100BEA008EF7438E04AF3AAE39AD38AC3778081277
:100BFA0006A38FD6853AD753AFFB438E1080067F64
:100C0A00FF227FFF22AB32AA33A9349000071205D4
:100C1A0077C454F0FFE58454EF4FF5847F00227FB8
:010C2A00FFCA
:010C2B0022A6
:0A1A35008F99750A01E50A70FC2282
:10002E0012055EFF600C121A35740129F9E43AFAD2
:03003E0080EE222F
:0A1A3F008F9B750F01E50F70FC226C
:1019C80012055EFF600C121A3F740129F9E43AFA15
:0319D80080EE227C
:0A1A49008FAD751401E51470FC2246
:1019DB0012055EFF600C121A49740129F9E43AFAF8
:0319EB0080EE2269
:0A1A53008F85751901E51970FC225A
:1019EE0012055EFF600C121A53740129F9E43AFADB
:0319FE0080EE2256
:05001E00AE07021A35D7
:0300230002169929
:10169900C0E0C083C082C0D075D000C00730982098
:1016A900C298E50BC394804003750B00AF0B050B83
:1016B90074002FF582E43400F583E599F0750C0583
:1016C900309905C299750A00D007D0D0D082D0834D
:0316D900D0E0322C
:030043000214EBB9
:1014EB00C0E0C083C082C0D075D000C007E59A3081
:1014FB00E021539AFEE510C394804003751000AFB2
:10150B0010051074802FF582E43400F583E59BF011
:10151B00751105E59A30E106539AFD750F00D0075A
:09152B00D0D0D082D083D0E03290
:03008B0002153427
:10153400C0E0C083C082C0D075D000C007E5AC3025
:10154400E02153ACFEE515C394404003751500AF8C
:1015540015051574002FF582E43401F583E5ADF02B
:10156400751605E5AC30E10653ACFD751400D007E3
:09157400D0D0D082D083D0E03247
:0300930002157DD6
:10157D00C0E0C083C082C0D075D000C007E5843004
:10158D00E0215384FEE51AC394204003751A00AF81
:10159D001A051A74C02FF582E43401F583E585F040
:1015AD00751B05E58430E1065384FD751900D007E0
:0915BD00D0D0D082D083D0E032FE
:10009600EC4D6011E8497017ED33EC3304600DE464
:1000A600FCFFFEFD22E933E8330470F80202AF12CA
:1000B600027A58046009E4CC2481500628500902CB
:1000C60002B92840030202B6C0E0EB4A7044B98088
:1000D60006D0E0FB0202A5EF4E701CBD8008EBFFC8
:1000E600EAFEE9FD80EBE98DF0A4FEE5F002017F72
:1000F600E9CDF9EAFEEBFFEF89F0A4FCE5F0CE8945
:10010600F0A42EFFE435F0CD89F0A42DFEE435F001
:100116008067EF4E7005BD80D780C3EF8BF0A4AC2F
:10012600F0EE8BF0A42CFCE435F0F8EF8AF0A42C6A
:10013600E5F038FCE433CB8DF0A42CFCE5F03BF87D
:10014600EE8AF0A42CFCE5F038F8E433CF89F0A46D
:100156002CFCE5F038CF3400CE89F0A42FFFE5F073
:100166003EFEE433C98DF0A42EFEE5F039CD8AF0CB
:10017600A42FFFE5F03EFEE43DFD33D0E0FB500743
:100186000BBB000F0202B9EC2CFCEF33FFEE33FE83
:06019600ED33FD020291B1
:10019C000202B9EC5D046005E8590470030202AF79
:1001AC0012027A580460F6EC4860F2EC7004FDFE22
:1001BC00FF22C860DB2481C85009C3986002500636
:1001CC000202B69850CAF582E9294B4A7005AB82F7
:1001DC000202A575F0007C1A7880C3EF9BEE9AEDB5
:1001EC0099400DC3EF9BFFEE9AFEED99FDE842F0AE
:1001FC00DC23ACF0D0E0FFD0E0FED0E0FDAB822001
:10020C00E7101BEB60BAEC2CFCEF33FFEE33FEED8A
:10021C0033FD020291E803F830E705C0F075F000F9
:10022C00EF2FFFEE33FEED33FD40B830E7C280AA6E
:10023C0075F020800E75F010800575F0087D007E3D
:10024C00007F003392D530D503120684EC33401076
:10025C00EF33FFEE33FEED33FDEC33FCD5F0ED2246
:0E026C00E5F0247EA2D513CC92E7CDCEFF2282
:100C2C00E53F242BF8E6053F227828300702782B85
:100C3C00E475F0011206E602055E2000EB7F2ED271
:100C4C00008018EF540F2490D43440D4FF30040BA0
:100C5C00EF24BFB41A0050032461FFE54060021575
:100C6C00400543E5437002054230070D7828E475D2
:100C7C00F0011206E6EF0205A402001E7403D2076F
:100C8C008003E4C207F53F8B288A29892AE4F540C2
:100C9C00F542F543E54060077F20120C6780F5753F
:100CAC0041FFC201C200C202C203C205C206C20891
:100CBC00120C35FF700D3007057F00120C78AF4316
:100CCC00AE4222B4255FC2D5C204120C35FF24D02B
:100CDC00B40A00501A75F00A784030D50508B6FFF2
:100CEC000106C6A426F620D5047002D20380D924AE
:100CFC00CFB41A00EF5004C2E5D204020F65D20142
:100D0C0080C6D20080C0D20280BCD2D580BAD205B7
:100D1C0080B47F20120C672002077401B54000409C
:100D2C00F1120C2CFF120C67020CA0D208D2068018
:100D3C0095120C2CFB120C2CFA120C2CF94A4B7041
:100D4C0006795C7A107BFF20022EE540602A7E003B
:100D5C008E8275830012057760060EEE654170F089
:100D6C00C2D5EBC0E0EAC0E0E9C0E0EE120FC5D09E
:100D7C00E0F9D0E0FAD0E0FB12055EFF60AAEBC010
:100D8C00E0EAC0E0E9C0E0120C67D0E02401F9D041
:100D9C00E03400FAD0E0FBE5410460DCD541D980B9
:100DAC0087D20280A2120FA860F7E54170010412ED
:100DBC0002C4A941600DE541600914F54112104FC0
:100DCC00EF60F3EA30E702F404C3995077EAF425B4
:100DDC00410430E701E404F541800D120FA860C115
:100DEC00EA054125411202C4EA783EF630E701E4F7
:100DFC00254104D5410420050114120FC5E4C0E0BF
:100E0C0012104F783EE6601320E70714F6120C4FD1
:100E1C00802204F6D0E014C0E07F00120C4FE541B4
:100E2C006007120C461541800B300503120C46D09E
:100E3C00E0020CA0D0E00480C5120FA860A0E54130
:100E4C00041202C4783EEAF6E54120050260010472
:050E5C002404120FC583
:100E610074FF04C0E012104F120C4FE5412005023F
:100E71006003120C46D0E0B541E87F45120C597869
:100E81003EE67F2B30E7047F2DF404C0E0120C67AF
:100E9100D0E075F00A84C0F0120C50D0E0120C5072
:100EA100020CA0791080027908C206C2088008D21B
:100EB100D5790A8004790AC2D5E541047002F54169
:100EC100E4FAFDFEFF120C2CFC7B08200113120C2E
:100ED1002CFD7B1030000A120C2CFE120C2CFF7B17
:100EE10020EC3382D592D55013C3E43000069FFF26
:100EF100E49EFEE42001039DFDE49CFCE4CBF8C2EA
:100F010001EC700CCFCECDCCE824F8F870F380174B
:100F1100C3EF33FFEE33FEED33FDEC33FCEB33FB7C
:100F2100994002FB0FD8E9EB300105F8D0E0C44845
:100F3100B201C0E00AEC4D4E4F78207B0070C2EA4E
:100F4100B5410040BCC0E0120FC7D0F0D0E0200195
:100F510004C4C0E0C4B201C0F0120C50D0F0D5F00E
:100F6100EB020CA01206F60D3D530EA4580D0E4CCB
:100F71000D0A420EA84F0EB0440EB0490D23430E88
:100F8100B6550DE7460E45450DB147107C500D1283
:100F91002D0D162E0D392B0D1A230D372010652A14
:100FA1000CD24800000D31E541B4FF037541061232
:100FB1000C2CFC120C2CFD120C2CFE120C2CFF78AC
:100FC100370202F3790AA2D5200314300509B910BA
:100FD100020404B9080104A2D5200602500104202C
:100FE10002689202B540005034C0E07F20300319FE
:100FF1007F30A20272067205500F12101EC202C289
:1010010006C205C2087F30800F300503E9C0E01237
:101011000C67300503D0E0F9D0E0B540CC300517BE
:101021007F30B9100C120C677F583004077F78802D
:1010310003B90803120C673002057F2D020C677F8C
:10104100202008F87F2B2006F322920280CF7F0018
:10105100B4070050052437F8E6FF22286E756C6C42
:101061002900D201120C2C3001F8C201784030D590
:101071000108F6020CD22D50434958120C2C2403BE
:10108100B405004001E490107793120C58743A12A1
:0A1091000C58D203754004020EA4AF
:10027A00E9D2E7C933E833F892D5EDD2E7CD33ECCA
:07028A0033FC5002B2D52243
:10029100EC30E7100FBF000C0EBE00080DBD0004CE
:1002A1000BEB6014A2D5EB13FCED92E7FD2274FF7A
:1002B100FCFDFEFF22E480F8A2D574FF13FC7D80D3
:0302C100E480EFE7
:1002C400F920E72824F950037907E4F42402FB1801
:1002D400DBFDE624FB5014E9600DE4F618E604F6B1
:0F02E400B40A08E4F6D9F57401F60A22C2D5224D
:1002F300ED33EC3392D5FA602AB4FF33EDC2E77BDA
:10030300FF60067A037918E4227A03792120D50461
:100313007A03791C224E614E002B494E46002D492B
:100323004E4600E47A08F608DAFC7B00740722E8FC
:10033300C0E0ECC0E0EDC0E0EEC0E0EFC0E0EA7585
:10034300F010A4CAABF075F04DA42BFBE435F0FC20
:10035300EA2410FAEB34C5FBEC34D9FCEDC2E7FF19
:1003630075F056A4F42411C5F0F434C58FF0A42A13
:10037300E5F03BE43CF620E71412051ED0E0FFD085
:10038300E0FED0E0FDD0E0FC12019F8014F40412E3
:10039300051ED0E0FFD0E0FED0E0FDD0E0FC12006F
:1003A30096D0E0F8E6FAEDD2E7CD33EC332482FBC6
:1003B300E4C3CF33CFCE33CECD33CD33DBF37B07A3
:1003C30075F00A846004F6081B0AE5F0F6088FF05E
:1003D300740AA4FFACF08EF0740AA42CFEACF050A7
:1003E300010C8DF0740AA42CFDE435F0F608DBDE75
:0303F3007407226A
:1003F6000202AFE86480F8E933E83360110460F084
:10040600ED33EC337009E8FCE9FDEAFEEBFF22046C
:1004160060DED3EB9FEA9EE99DE8C2E78CF0C2F767
:1004260095F0400CE8CCF8E9CDF9EACEFAEBCFFB33
:1004360012027A85D0F05804700320D5B3E8047010
:10044600075002B2D50202B992D5EC0460F7E4CCAB
:10045600C0E0C398F8603B94186008400DD0E0FBFC
:10046600020291E4FBFAC9FC8028E830E406E4C9FC
:10047600FBE4CAFCE830E305E4C9CACBFCE8540750
:100486006010F8C3E913F9EA13FAEB13FBEC13FC5B
:10049600D8F130F52FC3E49CFCEF9BFFEE9AFEEDFE
:1004A60099FDD0E0FBEF4E4D4C701222DB030202A9
:1004B600B6EC2CFCEF33FFEE33FEED33FDED30E70B
:1004C600EB020291EF2BFFEE3AFEED39FDD0E0FB99
:1004D60050130BBB00030202B9ED13FDEE13FEEF42
:0804E60013FFEC13FC0202916C
:1004EE003F8000004120000042C80000447A000016
:1004FE00461C400047C35000497424004B18968098
:10050E004CBEBC205A0E1BCA6753C21C749DC5AE8E
:10051E00FB60065407601C232312054CEB54386015
:10052E0009120538120547120096ECF8EDF9EEFAAD
:10053E00EFCB22EB12054780F1543803241C9004B4
:10054E00EEFE93FC0EEE93FD0EEE930ECE93FF2277
:03000000021A1EC3
:0C1A1E00787FE4F6D8FD7581430213D6F2
:10055E00BB010689828A83E0225002E722BBFE029B
:09056E00E32289828A83E49322CE
:10057700BB010CE58229F582E5833AF583E0225039
:1005870006E92582F8E622BBFE06E92582F8E22283
:0D059700E58229F582E5833AF583E493229D
:1005A400BB010689828A83F0225002F722BBFE0136
:0205B400F32230
:1005B60075F008758200EF2FFFEE33FECD33CDCCFC
:1005C60033CCC58233C5829BED9AEC99E58298407F
:1005D6000CF582EE9BFEED9AFDEC99FC0FD5F0D65C
:1005E600E4CEFBE4CDFAE4CCF9A88222B800C1B986
:1005F6000059BA002DEC8BF084CFCECDFCE5F0CBC4
:10060600F97818EF2FFFEE33FEED33FDEC33FCEBFC
:1006160033FB10D703994004EB99FB0FD8E5E4F9B7
:10062600FA227818EF2FFFEE33FEED33FDEC33FCA4
:10063600C933C910D7059BE99A4007EC9BFCE99A98
:10064600F90FD8E0E4C9FAE4CCFB2275F010EF2FDD
:10065600FFEE33FEED33FDCC33CCC833C810D707DD
:100666009BEC9AE899400AED9BFDEC9AFCE899F818
:0E0676000FD5F0DAE4CDFBE4CCFAE4C8F922AB
:0E068400C3E49FFFE49EFEE49DFDE49CFC2287
:10069200EB9FF5F0EA9E42F0E99D42F0E89C45F0BE
:0106A2002235
:1006A300E8600FECC313FCED13FDEE13FEEF13FF35
:0306B300D8F12259
:1006B600BB010DE58229F582E5833AF58302072918
:1006C6005007E92582F802071CBBFE07E92582F8D8
:1006D600020735E58229F582E5833AF5830207426A
:1006E600FAE6FB0808E6F925F0F618E6CA3AF62215
:1006F600D083D082F8E4937012740193700DA3A393
:1007060093F8740193F5828883E4737402936860A6
:06071600EFA3A3A380DFA6
:0D071C00E6FB08E6F908E6FA08E6CBF8224D
:0C072900E0F8A3E0F9A3E0FAA3E0FB2253
:0D073500E2FB08E2F908E2FA08E2CBF82244
:10074200E493F8740193F9740293FA740393FB220D
:00000001FF
