:100304007508787509FF120322AD09AF0812025768
:0203140080FE69
:10000300EFD3940740037FFF221202BEFED3940373
:1000130040037FFF22EF7041EE700B90000112024C
:10002300D7F4529352941202BEB4010B9000011202
:1000330002D74293F452941202BEFEB4020A900015
:10004300011202D742934294EEB4030D90000112C1
:1000530002D7FEF45293EE4294EF6401704312020E
:10006300BEFE700B9000011202D7F452915292EE31
:10007300B4010B9000011202D74291F45292120282
:10008300BEB4020A9000011202D7429142921202B8
:10009300BEB4030D9000011202D7FEF45291EE425A
:1000A30092EF640270431202BEFE700B90000112C5
:1000B30002D7F452955296EEB4010B90000112024E
:1000C300D74295F452961202BEB4020A900001126E
:1000D30002D7429542961202BEB4030D900001125C
:1000E30002D7FEF45295EE4296EF64037043120278
:1000F300BEFE700B9000011202D7F452B152B2EE61
:10010300B4010B9000011202D742B1F452B21202B1
:10011300BEB4020A9000011202D742B142B21202E7
:10012300BEB4030D9000011202D7FEF452B1EE42A9
:10013300B2EF640470431202BEFE700B9000011212
:1001430002D7F452B352B4EEB4010B900001120281
:10015300D742B3F452B41202BEB4020A90000112A1
:1001630002D742B342B41202BEB4030D900001128F
:1001730002D7FEF452B3EE42B4EF640570431202A9
:10018300BEFE700B9000011202D7F452C952CAEEA0
:10019300B4010B9000011202D742C9F452CA1202F1
:1001A300BEB4020A9000011202D742C942CA120227
:1001B300BEB4030D9000011202D7FEF452C9EE4201
:1001C300CAEF640670431202BEFE700B9000011268
:1001D30002D7F452CB52CCEEB4010B9000011202C1
:1001E300D742CBF452CC1202BEB4020A90000112E1
:1001F30002D742CB42CC1202BEB4030D90000112CF
:1002030002D7FEF452CBEE42CCEF640770431202E6
:10021300BEFF700B9000011202D7F452E152E2EFDD
:10022300B4010B9000011202D742E1F452E2120230
:10023300BEB4020A9000011202D742E142E2120266
:10024300BEB4030D9000011202D7FFF452E1EF4256
:04025300E27F002224
:0703220053B3E353B4E322DF
:02025700A907F5
:100259007B077E007401A803088005C333CE33CE23
:10026900D8F9FFE9F582EF558224FF92C4C2C20092
:1002790000D2C200001BC3EB6480948050D47B077A
:100289007E007401A803088005C333CE33CED8F9A4
:10029900FFEDF582EF558224FF92C4C2C20000D25D
:1002A900C200001BC3EB6480948050D4C2C3000019
:0402B900D2C30000AC
:0102BD00221E
:03000000020316E2
:0C031600787FE4F6D8FD7581090203042D
:1002BE00BB010689828A83E0225002E722BBFE023E
:0902CE00E32289828A83E4932271
:1002D700BB010CE58229F582E5833AF583E02250DC
:1002E70006E92582F8E622BBFE06E92582F8E22226
:0D02F700E58229F582E5833AF583E4932240
:00000001FF
