:100F2600B5DA20256420D0D020256420C1D0B0B405
:100F3600C5A5646F776D210A00B5DA20256420D037
:100F4600D020256420C1D0B0B4C5A55570210A00B3
:100F5600B5DA20256420D0D020256420C1D0B0B4D5
:100F6600C5A5646F776D0A00B5DA20256420D0D058
:0E0F760020256420C1D0B0B4C5A555700A0076
:1013B900750840750901750D00750CC2750B01752D
:1013C9000A00750F01E4F510FB7A0079087F011214
:0C13D90000967D017F0112134453A23FD7
:0113E50022E5
:100003007BFF7A0F7926EF2401F50EE433F50DED2E
:0B0013002401F510E433F50F0205D2C4
:100026007BFF7A0F793FEF2401F50EE433F50DEDF2
:0B0036002401F510E433F50F0205D2A1
:1013E6008F088D09EB7BFF60077A0F7956EF800631
:1013F6007A0F796EE5082401F50EE433F50DE5095B
:0C1406002401F510E433F50F1205D2228A
:10150C001213B91215C0D2AF7BFF7A1379E6120D04
:08151C00427F0A12158880F0DD
:0F1588007D607C09ED1D70011C144C70F7DFF1C4
:011597002231
:1008CC00EFD3940740037FFF22120B20FED3940337
:1008DC0040037FFF22EF7041EE700B900001120B72
:1008EC0039F452935294120B20B4010B9000011264
:1008FC000B394293F45294120B20FEB4020A90006E
:10090C0001120B3942934294EEB4030D9000011284
:10091C000B39FEF45293EE4294EF64017043120BC8
:10092C0020FE700B900001120B39F452915292EE92
:10093C00B4010B900001120B394291F45292120B3C
:10094C0020B4020A900001120B3942914292120B10
:10095C0020B4030D900001120B39FEF45291EE42BB
:10096C0092EF64027043120B20FE700B9000011288
:10097C000B39F452955296EEB4010B900001120B08
:10098C00394295F45296120B20B4020A90000112CF
:10099C000B3942954296120B20B4030D90000112B4
:1009AC000B39FEF45295EE4296EF64037043120B32
:1009BC0020FE700B900001120B39F452B152B2EEC2
:1009CC00B4010B900001120B3942B1F452B2120B6C
:1009DC0020B4020A900001120B3942B142B2120B40
:1009EC0020B4030D900001120B39FEF452B1EE420B
:1009FC00B2EF64047043120B20FE700B90000112D6
:100A0C000B39F452B352B4EEB4010B900001120B3B
:100A1C003942B3F452B4120B20B4020A9000011202
:100A2C000B3942B342B4120B20B4030D90000112E7
:100A3C000B39FEF452B3EE42B4EF64057043120B63
:100A4C0020FE700B900001120B39F452C952CAEE01
:100A5C00B4010B900001120B3942C9F452CA120BAB
:100A6C0020B4020A900001120B3942C942CA120B7F
:100A7C0020B4030D900001120B39FEF452C9EE4262
:100A8C00CAEF64067043120B20FE700B900001122B
:100A9C000B39F452CB52CCEEB4010B900001120B7B
:100AAC003942CBF452CC120B20B4020A9000011242
:100ABC000B3942CB42CC120B20B4030D9000011227
:100ACC000B39FEF452CBEE42CCEF64077043120BA1
:100ADC0020FF700B900001120B39F452E152E2EF3F
:100AEC00B4010B900001120B3942E1F452E2120BEB
:100AFC0020B4020A900001120B3942E142E2120BBF
:100B0C0020B4030D900001120B39FFF452E1EF42B7
:040B1C00E27F002252
:10120E00EFD3940140037FFF22EDD3940340037F7D
:10121E00FF22EF7004C2A98002D2A9ED700553B768
:10122E00FDC2B9BD010553B7FDD2B9BD020543B725
:0E123E0002C2B9BD030543B702D2B97F002238
:10124C00EFD3940140037FFF22EDD3940340037F3F
:10125C00FF22EF7004C2AB8002D2ABED700553B726
:10126C00F7C2BBBD010553B7F7D2BBBD020543B7EF
:0E127C0008C2BBBD030543B708D2BB7F0022EA
:10145A00EFD3940140037FFF22EDD3940340037F2F
:10146A00FF22EF25E025E0FFE5AF54FB4FF5AFE49F
:02147A00FF224F
:10147C00EFD3940140037FFF22EDD3940340037F0D
:10148C00FF22EFC43354E0FFE5AF54DF4FF5AFE478
:02149C00FF222D
:10143700EFD3940140037FFF22EDD3940340037F52
:10144700FF22EFC4333354C0FFE5AF54BF4FF5AFAE
:03145700E4FF228D
:10128A00EFD3940140037FFF22EDD3940340037F01
:10129A00FF22EF7004C2A88002D2A8ED700553B7EE
:1012AA00FEC2B8BD010553B7FED2B8BD020543B7A9
:0E12BA0001C2B8BD030543B701D2B87F0022C0
:1012C800EFD3940140037FFF22EDD3940340037FC3
:1012D800FF22EF7004C2AA8002D2AAED700553B7AC
:1012E800FBC2BABD010553B7FBD2BABD020543B76D
:0E12F80004C2BABD030543B704D2BA7F002278
:10152400EFD3940140037FFF22EFC454F0FFE58F13
:0815340054EF4FF58FE4FF2294
:1014DA00EFD3940140037FFF22EFC43354E0FFE5CA
:0914EA008F54DF4FF58FE4FF225F
:1014C000EFD3940140037FFF22EFC4333354C0FFB6
:0A14D000E58F54BF4FF58FE4FF22B3
:10130600EFD3940140037FFF22EDD3940340037F84
:10131600FF22EF7004C2AD8002D2ADED700553B767
:10132600DFC2BDBD010553B7DFD2BDBD020543B760
:0E13360020C2BDBD030543B720D2BD7F0022FB
:1010B800EDD3940340037FFF22EF30E10543E620A0
:1010C800800353E6DFEF30E00543E610800353E684
:1010D800EFED700653B6DF53B5DFBD010653B6DF3B
:1010E80043B520BD020643B62053B5DFBD03064312
:0810F800B62043B5207F002261
:100F8400EFD3940140037FFF22EBD3940340037F0C
:100F9400FF22BF0112ED90FE817006E0547FF080C5
:100FA40011E04480F0800BEF700890FE83E05487DA
:100FB4004DF0EB700653B6DF53B5DFBB010653B6F5
:100FC400DF43B520BB020643B62053B5DFBB03069F
:090FD40043B62043B5207F002242
:10134400EFD3940140037FFF22EDD3940340037F46
:10135400FF22EF7004C2AC8002D2ACED700553B72B
:10136400EFC2BCBD010553B7EFD2BCBD020543B704
:0E13740010C2BCBD030543B710D2BC7F0022DF
:1011CE00EFD3940140037FFF22EDD3940340037FBE
:1011DE00FF22E5AF54FE4FF5AFED700653B6FE534A
:1011EE00B5FEBD010653B6FE43B501BD020643B6BC
:1011FE000153B5FEBD030643B60143B5017F002280
:10110000EFD3940140037FFF22EDD3940340037F8C
:10111000FF22EF33333354F8FFE5AF54F74FF5AF09
:10112000ED700653EEFE53DFFEBD010653EEFE43A7
:10113000DF01BD020643EE0153DFFEBD030643EEB1
:071140000143DF017F0022E3
:10004600EFD3940140037FFF22EDD3940340037F57
:10005600FF22EFC454F0FFE5AF54EF4FF5AFED705C
:100066000653EEFD53DFFDBD010653EEFD43DF02F1
:10007600BD020643EE0253DFFDBD030643EE024317
:05008600DF027F0022F3
:10114700EFD3940140037FFF22EDD3940340037F45
:10115700FF22EF25E0FFE5AF54FD4FF5AFED700639
:1011670053B6FD53B5FDBD010653B6FD43B502BDEC
:10117700020643B60253B5FDBD030643B60243B5A7
:04118700027F0022C1
:100EAC00EFD3948140037FFF22EBD3940340037F65
:100EBC00FF22EF247F603004705890FEC4EDF0EBFD
:100ECC00700653B6FB53B5FBBB010653B6FB43B5DB
:100EDC0004BB020643B60453B5FBEB640370384302
:100EEC00B60443B504803090FEE4EDF0EB7006538D
:100EFC00B6F753B5F7BB010653B6F743B508BB02BB
:100F0C000643B60853B5F7BB030D43B60843B50803
:0A0F1C00800590FEE4EDF07F002256
:10138200EDD394035026ED700653EEFB53DFFBBD05
:10139200010653EEFB43DF04BD020643EE0453DFB6
:1013A200FBBD030B43EE0443DF0480037FFF229067
:0713B200FE62EFF07F002254
:080096008F118B128A138914EB
:10009E00E5116401600302020CF522F523F524F547
:1000AE0025F526F515F51674402516F582740135DD
:1000BE0015F583E4F00516E5167002051564804506
:1000CE001570E4E4F515F51674002516F582740026
:1000DE003515F583E4F00516E516700205156480F6
:1000EE00451570E4AB12AA13A914120B20FFE59864
:1000FE00543F4FF598EF64C06008EF644060030210
:10010E0001C1900002120C8E7F807E8D7D5B7C0083
:10011E00120BA28F1A8E198D188C17E4FFFE7D011B
:10012E00FCAB1AAA19A918A817C3120C5740037FC3
:10013E00FF22C3E4951AF51AE49519F51974019581
:10014E0018F518E49517F517AB12AA13A914900019
:10015E0001120B39FB6401702CC28E538EFE538933
:10016E00BF5389CF438E40AF1AAE19AD18AC177876
:10017E0008120C688F8D851A8BC2AB5389BF538FB3
:10018E00FDD28E8062EB64027026538EEF438E0199
:10019E00538EF7438E04AF1AAE19AD18AC1778080C
:1001AE00120C688FD6851AD753AFFB438E1080374B
:1001BE007FFF22AB12AA13A914120B20FF7013900B
:1001CE000008120B39B40105438E20801A538EDFBE
:1001DE008015EFB48011900008120B39B40105435D
:1001EE008780800353877FAB12AA13A91490000750
:1001FE00120B397004C29C8002D29C7F0022E51142
:10020E0064026003020305F527F528F529F52AF5A2
:10021E002BF515F51674E02516F58274013515F5D6
:10022E0083E4F00516E51670020515648045157019
:10023E00E4E4F515F51674802516F582740035156F
:10024E00F583E4F00516E516700205156480451574
:10025E0070E4AB12AA13A914120B20FF64C0600540
:10026E00EF64407075EFB4C005439A808003539AD3
:10027E007F900002120C8E7F807E8D7D5B7C001243
:10028E000BA28F1A8E198D188C17E4FFFE7D01FCC0
:10029E00AB1AAA19A918A817C3120C5740037FFF4F
:1002AE0022C3E4951AF51AE49519F51974019518F7
:1002BE00F518E49517F517538EEF538EF7438E040A
:1002CE00AF1AAE19AD18AC177808120C688FD68518
:1002DE001AD753AFFB438E1080037FFF22AB12AAB7
:1002EE0013A914900007120B39C454F0FFE59A5469
:1002FE00EF4FF59A7F0022E5116403600302043983
:10030E00F52CF52DF52EF52FF530F515F516746047
:10031E002516F58274023515F583E4F00516E516FB
:10032E00700205156440451570E4E4F515F5167474
:10033E00002516F58274013515F583E4F00516E5F2
:10034E0016700205156440451570E4AB12AA13A988
:10035E0014120B20FF64C06008EF644060030204B7
:10036E001CEFB4C00543AC80800353AC7F900002F9
:10037E00120C8E7F807E8D7D5B7C00120BA28F1AFD
:10038E008E198D188C17E4FFFE7D01FCAB1AAA198D
:10039E00A918A817C3120C5740037FFF22C3E49578
:1003AE001AF51AE49519F51974019518F518E495CE
:1003BE0017F517AB12AA13A914900001120B39FBF3
:1003CE00B4031D43AC40AF1AAE19AD18AC17780884
:1003DE00120C688FD4851AD553D1F043D10A8031CF
:1003EE00EB64027026538EEF53ACBF538EF7438EE1
:1003FE0004AF1AAE19AD18AC177808120C688FD668
:10040E00851AD753AFFB438E1080067FFF227FFFE6
:10041E0022AB12AA13A914900007120B39C454F080
:10042E00FFE5AC54EF4FF5AC7F0022E5116404609C
:10043E000302056DF531F532F533F534F535F51565
:10044E00F51674A02516F58274023515F583E4F0C1
:10045E000516E516700205156420451570E4E4F5E1
:10046E0015F51674C02516F58274013515F583E45D
:10047E00F00516E516700205156420451570E4ABFF
:10048E0012AA13A914120B20FF64C06008EF644077
:10049E006003020550EFB4C005438480800353848B
:1004AE007F900002120C8E7F807E8D7D5B7C001211
:1004BE000BA28F1A8E198D188C17E4FFFE7D01FC8E
:1004CE00AB1AAA19A918A817C3120C5740037FFF1D
:1004DE0022C3E4951AF51AE49519F51974019518C5
:1004EE00F518E49517F517AB12AA13A9149000018D
:1004FE00120B39FBB4041D438440AF1AAE19AD186C
:10050E00AC177808120C688FD2851AD353D10F43CB
:10051E00D1A08031EB64027026538EEF5384BF530B
:10052E008EF7438E04AF1AAE19AD18AC17780812B9
:10053E000C688FD6851AD753AFFB438E1080067F7B
:10054E00FF227FFF22AB12AA13A914900007120BF1
:10055E0039C454F0FFE58454EF4FF5847F00227FB9
:01056E00FF8D
:01056F002269
:0A1598008F99752401E52470FC22F0
:10153C00120B20FF600C121598740129F9E43AFA89
:03154C0080EE220C
:0A15A2008F9B752901E52970FC22DA
:10154F00120B20FF600C1215A2740129F9E43AFA6C
:03155F0080EE22F9
:0A15AC008FAD752E01E52E70FC22B4
:10156200120B20FF600C1215AC740129F9E43AFA4F
:0315720080EE22E6
:0A15B6008F85753301E53370FC22C8
:10157500120B20FF600C1215B6740129F9E43AFA32
:0315850080EE22D3
:05001E00AE0702159879
:0300230002118B3C
:10118B00C0E0C083C082C0D075D000C007309820AB
:10119B00C298E525C394804003752500AF2505252E
:1011AB0074002FF582E43400F583E599F07526057C
:1011BB00309905C299752400D007D0D0D082D08346
:0311CB00D0E0323F
:03004300020FDDCC
:100FDD00C0E0C083C082C0D075D000C007E59A3094
:100FED00E021539AFEE52AC394804003752A00AF91
:100FFD002A052A74802FF582E43400F583E59BF0F1
:10100D00752B05E59A30E106539AFD752900D00739
:09101D00D0D0D082D083D0E032A3
:03008B000210263A
:10102600C0E0C083C082C0D075D000C007E5AC3038
:10103600E02153ACFEE52FC394404003752F00AF6B
:101046002F052F74002FF582E43401F583E5ADF00A
:10105600753005E5AC30E10653ACFD752E00D007C2
:09106600D0D0D082D083D0E0325A
:0300930002106FE9
:10106F00C0E0C083C082C0D075D000C007E5843017
:10107F00E0215384FEE534C394204003753400AF60
:10108F0034053474C02FF582E43401F583E585F01F
:10109F00753505E58430E1065384FD753300D007BF
:0910AF00D0D0D082D083D0E03211
:04008E00021EFFFF50
:1014F30053933753943753917F53927F53B1CF53C1
:09150300B2CF53B3FC53B4FC2237
:0315C0000214F31F
:10141200EF7003C38001D392B4BF0103C38001D331
:1014220092B5BF0203C38001D392C0BF0303C3803E
:0514320001D392C1226C
:10149E00EF7005A28333FF22BF0104A286800CBF2A
:1014AE000204A2878005BF0306A297E433FF227FC2
:0214BE0000220A
:060D42008B088A09890AF2
:100D4800E4F50BAF0B121412E4F50CAF0C12149E61
:100D5800EF7054E50B25E025E0250CF9E47F01FE52
:100D6800FDFCA801120C7BAA06AB07E4FCFDEB55C1
:100D78001FFFEA551EFEE4FBFAF9F8C3120C4150B6
:100D880026E50B25E025E0250CF9E47F01FEFDFCB6
:100D9800A801120C7B120C34EF521FEE521E850A6A
:100DA800828509830B8051AF0C12149EEF64017089
:100DB8004EE50B25E025E0250CF9E47F01FEFDFC5E
:100DC800A801120C7BAA06AB07E4FCFDEB551FFF3C
:100DD800EA551EFEEE4F7027E50B25E025E0250CB1
:100DE800F9E47F01FEA801120C7BEF421FEE421EC0
:100DF800850A828509837B01AD0CAF0B120CC205F5
:100E08000CE50CC394045003020D53050BE50BC30A
:070E180094045003020D4B8E
:010E1F0022B0
:03000000020E20CD
:0C0E2000787FE4F6D8FD758135020E677E
:100B2000BB010689828A83E0225002E722BBFE02D3
:090B3000E32289828A83E4932206
:100B3900BB010CE58229F582E5833AF583E0225071
:100B490006E92582F8E622BBFE06E92582F8E222BB
:0D0B5900E58229F582E5833AF583E49322D5
:100B660075F008758200EF2FFFEE33FECD33CDCC46
:100B760033CCC58233C5829BED9AEC99E5829840C9
:100B86000CF582EE9BFEED9AFDEC99FC0FD5F0D6A6
:100B9600E4CEFBE4CDFAE4CCF9A88222B800C1B9D0
:100BA6000059BA002DEC8BF084CFCECDFCE5F0CB0E
:100BB600F97818EF2FFFEE33FEED33FDEC33FCEB47
:100BC60033FB10D703994004EB99FB0FD8E5E4F902
:100BD600FA227818EF2FFFEE33FEED33FDEC33FCEF
:100BE600C933C910D7059BE99A4007EC9BFCE99AE3
:100BF600F90FD8E0E4C9FAE4CCFB2275F010EF2F28
:100C0600FFEE33FEED33FDCC33CCC833C810D70727
:100C16009BEC9AE899400AED9BFDEC9AFCE899F862
:0E0C26000FD5F0DAE4CDFBE4CCFAE4C8F922F5
:0D0C3400CFF4CFCEF4CECDF4CDCCF4CC2255
:100C4100EB9FF5F0EA9E42F0E99D42F0EC6480C82A
:060C510064809845F022CA
:100C5700EB9FF5F0EA9E42F0E99D42F0E89C45F0F3
:010C6700226A
:100C6800E8600FECC313FCED13FDEE13FEEF13FF6A
:030C7800D8F1228E
:100C7B00E8600FEFC333FFEE33FEED33FDEC33FCD7
:030C8B00D8F1227B
:100C8E00BB010DE58229F582E5833AF583020CE37B
:100C9E005007E92582F8020CD6BBFE07E92582F83B
:100CAE00020CEFE58229F582E5833AF583020CFC0E
:060CBE008A838982E473C1
:10057000E519240DF8E6051922780A300702780DEE
:10058000E475F001120D0C020B202000EB7F2ED23F
:10059000008018EF540F2490D43440D4FF30040B63
:1005A000EF24BFB41A0050032461FFE51A6002155E
:1005B0001A051DE51D7002051C30070D780AE4754B
:1005C000F001120D0CEF020CC402001E7403D207DE
:1005D0008003E4C207F5198B0A8A0B890CE4F51A2B
:1005E000F51CF51DE51A60077F201205AB80F57537
:1005F0001BFFC201C200C202C203C205C206C2087A
:10060000120579FF700D3007057F001205BCAF1D84
:10061000AE1C22B4255FC2D5C204120579FF24D0D6
:10062000B40A00501A75F00A781A30D50508B6FFDA
:100630000106C6A426F620D5047002D20380D92470
:10064000CFB41A00EF5004C2E5D2040207BCD201B5
:1006500080C6D20080C0D20280BCD2D580BAD2057A
:1006600080B47F201205AB2002077401B51A004048
:10067000F1120570FF1205AB0205E4D208D2068024
:1006800095120570FB120570FA120570F94A4B704D
:1006900006798D7A087BFF20022EE51A602A7E00FB
:1006A0008E82758300120B3960060EEE651B70F0AA
:1006B000C2D5EBC0E0EAC0E0E9C0E0EE120803D02A
:1006C000E0F9D0E0FAD0E0FB120B20FF60AAEBC00B
:1006D000E0EAC0E0E9C0E01205ABD0E02401F9D0C7
:1006E000E03400FAD0E0FBE51B0460DCD51BD980C8
:1006F000877BFF7A0779FFD202809C79108002798C
:1007000008C206C2088008D2D5790A8004790AC2D4
:10071000D5E51B047002F51BE4FAFDFEFF1205701F
:10072000FC7B08200113120570FD7B1030000A12BB
:100730000570FE120570FF7B20EC3382D592D550F8
:1007400013C3E43000069FFFE49EFEE42001039DF6
:10075000FDE49CFCE4CBF8C201EC700CCFCECDCC18
:10076000E824F8F870F38017C3EF33FFEE33FEEDA3
:1007700033FDEC33FCEB33FB994002FB0FD8E9EB84
:10078000300105F8D0E0C448B201C0E00AEC4D4E9B
:100790004F78207B0070C2EAB51B0040BCC0E0125D
:1007A0000805D0F0D0E0200104C4C0E0C4B201C00C
:1007B000F0120594D0F0D5F0EB0205E4120D1C0602
:1007C000815306FB5806524C064E4206FF4F070760
:0F07D00044070749066743070D5506F14606F132
:1007DF004506F14708AD5006562D065A2E067D2BBD
:1007EF00065E23067B2008962A061648000006752B
:1007FF003F3F3F00790AA2D5200314300509B910F5
:10080F00020404B9080104A2D520060250010420F5
:10081F0002689202B51A005034C0E07F20300319ED
:10082F007F30A20272067205500F12085CC202C21C
:10083F0006C205C2087F30800F300503E9C0E01201
:10084F0005AB300503D0E0F9D0E0B51ACC30051771
:10085F007F30B9100C1205AB7F583004077F7880BA
:10086F0003B908031205AB3002057F2D0205AB7FDC
:10087F00202008F87F2B2006F322920280CF286ECB
:10088F00756C6C2900D2011205703001F8C2017825
:10089F001A30D50108F60206162D50434958120595
:1008AF00702403B405004001E49008A89312059C3E
:0D08BF00743A12059CD203751A040206FB60
:100E2C0002150CE493A3F8E493A34003F68001F2BB
:100E3C0008DFF48029E493A3F85407240CC8C333C7
:100E4C00C4540F4420C8834004F456800146F6DF96
:100E5C00E4800B010204081020408090008EE47E98
:100E6C00019360BCA3FF543F30E509541FFEE4938B
:100E7C00A360010ECF54C025E060A840B8E493A352
:100E8C00FAE493A3F8E493A3C8C582C8CAC583CA7D
:100E9C00F0A3C8C582C8CAC583CADFE9DEE780BE35
:01009200006D
:100CC400BB010689828A83F0225002F722BBFE010F
:020CD400F32209
:0D0CD600E6FB08E6F908E6FA08E6CBF8228E
:0C0CE300E0F8A3E0F9A3E0FAA3E0FB2294
:0D0CEF00E2FB08E2F908E2FA08E2CBF82285
:100CFC00E493F8740193F9740293FA740393FB224E
:100D0C00FAE6FB0808E6F925F0F618E6CA3AF622E8
:100D1C00D083D082F8E4937012740193700DA3A366
:100D2C0093F8740193F5828883E47374029368607A
:060D3C00EFA3A3A380DF7A
:00000001FF
