:1015F900750B02750A037B007A00790AE4FF020978
:01160900825E
:10150100750A40750B01750F00750EC2750D0175D9
:101511000C00751101E4F512FB7A00790A7F0112C2
:0C15210000967D017F0112148C53A23F44
:01152D00229B
:10131700750A60E4F50DF50E751004FB7A00790A7D
:101327007F06120570750B5D750CBFE4F50F75121E
:1013370001751101FB7A00790A7F8112057090FE11
:0F134700B6E054F34408F0E4FBFD7F81020F731E
:100FED00E4F50875090143BA801215F912150112BD
:100FFD001317D2AFE5092508F508C39464400575AC
:10100D0009FF800AE508D394005003750901AF0864
:10101D00E4FCFDFE7BC07A5DF9F8120C7FE47B6485
:10102D00FAF9F81212508E3B8F3C7B007A00793121
:0C103D007F06120E267F0A12160A80B8E9
:0F160A007D607C09ED1D70011C144C70F7DFF141
:0116190022AE
:10098200EFD3940740037FFF22120BD6FED39403CA
:1009920040037FFF22EF7041EE700B900001120BBB
:1009A200EFF452935294120BD6B4010B9000011241
:1009B2000BEF4293F45294120BD6FEB4020A90004B
:1009C20001120BEF42934294EEB4030D9000011218
:1009D2000BEFFEF45293EE4294EF64017043120B5C
:1009E200D6FE700B900001120BEFF452915292EE70
:1009F200B4010B900001120BEF4291F45292120BD0
:100A0200D6B4020A900001120BEF42914292120BED
:100A1200D6B4030D900001120BEFFEF45291EE4298
:100A220092EF64027043120BD6FE700B900001121B
:100A32000BEFF452955296EEB4010B900001120B9B
:100A4200EF4295F45296120BD6B4020A90000112AC
:100A52000BEF42954296120BD6B4030D9000011291
:100A62000BEFFEF45295EE4296EF64037043120BC5
:100A7200D6FE700B900001120BEFF452B152B2EE9F
:100A8200B4010B900001120BEF42B1F452B2120BFF
:100A9200D6B4020A900001120BEF42B142B2120B1D
:100AA200D6B4030D900001120BEFFEF452B1EE42E8
:100AB200B2EF64047043120BD6FE700B9000011269
:100AC2000BEFF452B352B4EEB4010B900001120BCF
:100AD200EF42B3F452B4120BD6B4020A90000112E0
:100AE2000BEF42B342B4120BD6B4030D90000112C5
:100AF2000BEFFEF452B3EE42B4EF64057043120BF7
:100B0200D6FE700B900001120BEFF452C952CAEEDE
:100B1200B4010B900001120BEF42C9F452CA120B3E
:100B2200D6B4020A900001120BEF42C942CA120B5C
:100B3200D6B4030D900001120BEFFEF452C9EE423F
:100B4200CAEF64067043120BD6FE700B90000112BE
:100B52000BEFF452CB52CCEEB4010B900001120B0E
:100B6200EF42CBF452CC120BD6B4020A900001121F
:100B72000BEF42CB42CC120BD6B4030D9000011204
:100B82000BEFFEF452CBEE42CCEF64077043120B34
:100B9200D6FF700B900001120BEFF452E152E2EF1C
:100BA200B4010B900001120BEF42E1F452E2120B7E
:100BB200D6B4020A900001120BEF42E142E2120B9C
:100BC200D6B4030D900001120BEFFFF452E1EF4295
:040BD200E27F00229C
:10135600EFD3940140037FFF22EDD3940340037F34
:10136600FF22EF7004C2A98002D2A9ED700553B71F
:10137600FDC2B9BD010553B7FDD2B9BD020543B7DC
:0E13860002C2B9BD030543B702D2B97F0022EF
:10139400EFD3940140037FFF22EDD3940340037FF6
:1013A400FF22EF7004C2AB8002D2ABED700553B7DD
:1013B400F7C2BBBD010553B7F7D2BBBD020543B7A6
:0E13C40008C2BBBD030543B708D2BB7F0022A1
:10155100EFD3940140037FFF22EDD3940340037F37
:10156100FF22EF25E025E0FFE5AF54FB4FF5AFE4A7
:02157100FF2257
:10157300EFD3940140037FFF22EDD3940340037F15
:10158300FF22EFC43354E0FFE5AF54DF4FF5AFE480
:02159300FF2235
:10152E00EFD3940140037FFF22EDD3940340037F5A
:10153E00FF22EFC4333354C0FFE5AF54BF4FF5AFB6
:03154E00E4FF2295
:1013D200EFD3940140037FFF22EDD3940340037FB8
:1013E200FF22EF7004C2A88002D2A8ED700553B7A5
:1013F200FEC2B8BD010553B7FED2B8BD020543B760
:0E14020001C2B8BD030543B701D2B87F002276
:10141000EFD3940140037FFF22EDD3940340037F79
:10142000FF22EF7004C2AA8002D2AAED700553B762
:10143000FBC2BABD010553B7FBD2BABD020543B723
:0E14400004C2BABD030543B704D2BA7F00222E
:10159500EFD3940140037FFF22EFC454F0FFE58FA2
:0815A50054EF4FF58FE4FF2223
:10002600EFD3940140037FFF22EFC43354E0FFE592
:090036008F54DF4FF58FE4FF2227
:10000300EFD3940140037FFF22EFC4333354C0FF87
:0A001300E58F54BF4FF58FE4FF2284
:10144E00EFD3940140037FFF22EDD3940340037F3B
:10145E00FF22EF7004C2AD8002D2ADED700553B71E
:10146E00DFC2BDBD010553B7DFD2BDBD020543B717
:0E147E0020C2BDBD030543B720D2BD7F0022B2
:10117D00EDD3940340037FFF22EF30E10543E620DA
:10118D00800353E6DFEF30E00543E610800353E6BE
:10119D00EFED700653B6DF53B5DFBD010653B6DF75
:1011AD0043B520BD020643B62053B5DFBD0306434C
:0811BD00B62043B5207F00229B
:10104900EFD3940140037FFF22EBD3940340037F46
:10105900FF22BF0112ED90FE817006E0547FF080FF
:1010690011E04480F0800BEF700890FE83E0548714
:101079004DF0EB700653B6DF53B5DFBB010653B62F
:10108900DF43B520BB020643B62053B5DFBB0306D9
:0910990043B62043B5207F00227C
:10148C00EFD3940140037FFF22EDD3940340037FFD
:10149C00FF22EF7004C2AC8002D2ACED700553B7E2
:1014AC00EFC2BCBD010553B7EFD2BCBD020543B7BB
:0E14BC0010C2BCBD030543B710D2BC7F002296
:1012D700EFD3940140037FFF22EDD3940340037FB4
:1012E700FF22E5AF54FE4FF5AFED700653B6FE5340
:1012F700B5FEBD010653B6FE43B501BD020643B6B2
:101307000153B5FEBD030643B60143B5017F002275
:1011C500EFD3940140037FFF22EDD3940340037FC7
:1011D500FF22EF33333354F8FFE5AF54F74FF5AF44
:1011E500ED700653EEFE53DFFEBD010653EEFE43E2
:1011F500DF01BD020643EE0153DFFEBD030643EEEC
:071205000143DF017F00221D
:10004600EFD3940140037FFF22EDD3940340037F57
:10005600FF22EFC454F0FFE5AF54EF4FF5AFED705C
:100066000653EEFD53DFFDBD010653EEFD43DF02F1
:10007600BD020643EE0253DFFDBD030643EE024317
:05008600DF027F0022F3
:10120C00EFD3940140037FFF22EDD3940340037F7F
:10121C00FF22EF25E0FFE5AF54FD4FF5AFED700673
:10122C0053B6FD53B5FDBD010653B6FD43B502BD26
:10123C00020643B60253B5FDBD030643B60243B5E1
:04124C00027F0022FB
:100F7300EFD3948140037FFF22EBD3940340037F9D
:100F8300FF22EF247F603004705890FEC4EDF0EB35
:100F9300700653B6FB53B5FBBB010653B6FB43B513
:100FA30004BB020643B60453B5FBEB64037038433A
:100FB300B60443B504803090FEE4EDF0EB700653C5
:100FC300B6F753B5F7BB010653B6F743B508BB02F3
:100FD3000643B60853B5F7BB030D43B60843B5083C
:0A0FE300800590FEE4EDF07F00228F
:1014CA00EDD394035026ED700653EEFB53DFFBBDBC
:1014DA00010653EEFB43DF04BD020643EE0453DF6D
:1014EA00FBBD030B43EE0443DF0480037FFF22901E
:0714FA00FE62EFF07F00220B
:10057000AD07ED6401707A90FECCE054FEF0E054DB
:10058000FBF090FEC8E054FCF0120BD6FF90FEC8C2
:10059000E0548F4FF0900006120BEFFF90FECC302E
:1005A000E00DE04401F090FEB1E04401F0800BE08A
:1005B00054FEF090FEB1E054FEF0EF90FECC30E13E
:1005C0000DE04404F090FEB1E04402F0800BE054F2
:1005D000FBF090FEB1E054FDF0900003120C47E5F3
:1005E000F090FED5F0900003120C4790FED6020961
:1005F0002AED6402707A90FECCE054EFF0E054BF34
:10060000F090FEC9E054FCF0120BD6FF90FEC9E05A
:10061000548F4FF0900006120BEFFF90FECC30E2AB
:100620000DE04410F090FEB1E04404F0800BE05483
:10063000EFF090FEB1E054FBF0EF90FECC30E30D14
:10064000E04440F090FEB1E04408F0800BE054BF7D
:10065000F090FEB1E054F7F0900003120C47E5F083
:1006600090FED7F0900003120C4790FED802092AA2
:10067000ED6403707A90FECDE054FEF0E054FBF0A0
:1006800090FECAE054FCF0120BD6FF90FECAE05474
:100690008F4FF0900006120BEFFF90FECD30E40D6F
:1006A000E04401F090FEB1E04410F0800BE054FE15
:1006B000F090FEB1E054EFF0EF90FECD30E50DE0AC
:1006C0004404F090FEB1E04420F0800BE054FBF0D5
:1006D00090FEB1E054DFF0900003120C47E5F0907B
:1006E000FED9F0900003120C4790FEDA02092AEDC1
:1006F0006404707A90FECDE054EFF0E054BFF090C7
:10070000FECBE054FCF0120BD6FF90FECBE0548FF2
:100710004FF0900006120BEFFF90FECD30E60DE09B
:100720004410F090FEB1E04440F0800BE054EFF054
:1007300090FEB1E054BFF0EF90FECD30E70DE04405
:1007400040F090FEB1E04480F0800BE054BFF090A8
:10075000FEB1E0547FF0900003120C47E5F090FEEC
:10076000DBF0900003120C4790FEDC02092AED64D6
:1007700080704F900005120BEF90FEDEF0900001AC
:10078000120C47E5F090FED2F0900001120C479059
:10079000FED3F0900008120BEF90FEDDB40106E0EE
:1007A0004480F08004E0547FF0900007120BEF903B
:1007B000FEC0B40106E04401F08004E054FEF07F86
:1007C0000022ED6405705690FEECE054FEF090FEC1
:1007D000E8E054FCF0120BD6FF90FEE8E0548F4F97
:1007E000F0900006120BEF90FEEC30E00DE04401BB
:1007F000F090FEB5E04401F0800BE054FEF090FE76
:10080000B5E054FEF0900003120C47E5F090FEF5C1
:10081000F0900003120C4790FEF602092AED6406E0
:10082000705690FEECE054EFF090FEE9E054FCF0DE
:10083000120BD6FF90FEE9E0548F4FF090000612A5
:100840000BEF90FEEC30E20DE04410F090FEB5E0CE
:100850004404F0800BE054EFF090FEB5E054FBF060
:10086000900003120C47E5F090FEF7F090000312A1
:100870000C4790FEF802092AED6407705590FEEDD2
:10088000E054FEF090FEEAE054FCF0120BD6FF902C
:10089000FEEAE0548F4FF0900006120BEF90FEED51
:1008A00030E40DE04401F090FEB5E04410F0800B20
:1008B000E054FEF090FEB5E054EFF0900003120C0F
:1008C00047E5F090FEF9F0900003120C4790FEFA15
:1008D0008058ED6408705790FEEDE054EFF090FE04
:1008E000EBE054FCF0120BD6FF90FEEBE0548F4F80
:1008F000F0900006120BEF90FEED30E60DE0441094
:10090000F090FEB5E04440F0800BE054EFF090FE34
:10091000B5E054BFF0900003120C47E5F090FEFBE9
:10092000F0900003120C4790FEFCF07F0022ED6473
:1009300081704C900005120BEF90FEFEF0900001CC
:10094000120C47FDACF0EC90FEF2F0AF05A3EFF017
:10095000900008120BEF90FEFDB40106E04480F019
:100960008004E0547FF0900007120BEF90FEE0B49B
:100970000106E04401F08004E054FEF07F00227F95
:02098000FF2254
:100E2600EF24807003020EE1147003020F26248063
:100E3600B408004003020F72900E4C75F003A4C56F
:100E46008325F0C58373020E64020E71020E8102C1
:100E56000E91020EA1020EB1020EC1020ED1120CAB
:100E66001CFDACF0EC90FED5020F6C900002120C4B
:100E760047FDACF0EC90FED7020F6C900004120C0C
:100E860047FDACF0EC90FED9020F6C900006120CF8
:100E960047FDACF0EC90FEDB020F6C900008120CE4
:100EA60047FDACF0EC90FEF5020F6C90000A120CB8
:100EB60047FDACF0EC90FEF7020F6C90000C120CA4
:100EC60047FDACF0EC90FEF9020F6C90000E120C90
:100ED60047FDACF0EC90FEFB020F6C120C1CFDAC57
:100EE600F0EC90FED5F0AF05A3EFF0900002120CE7
:100EF60047FDACF0EC90FED7F0AF05A3EFF0900005
:100F060004120C47FDACF0EC90FED9F0AF05A3EF50
:100F1600F0900006120C47FDACF0EC90FEDB80462C
:100F2600900008120C47FDACF0EC90FEF5F0AF0512
:100F3600A3EFF090000A120C47FDACF0EC90FEF720
:100F4600F0AF05A3EFF090000C120C47FDACF0ECEF
:100F560090FEF9F0AF05A3EFF090000E120C47FDDE
:0D0F6600ACF0EC90FEFBF0AF05A3EFF02225
:080096008F138B148A158916E3
:10009E00E5136401600302020CF51DF51EF51FF554
:1000AE0020F521F517F51874402518F582740135E1
:1000BE0017F583E4F00518E51870020517648045FE
:1000CE001770E4E4F517F51874002518F58274001E
:1000DE003517F583E4F00518E518700205176480EE
:1000EE00451770E4AB14AA15A916120BD6FFE598A6
:1000FE00543F4FF598EF64C06008EF644060030210
:10010E0001C1900002120DC07F807E8D7D5B7C0050
:10011E00120D0A8F1C8E1B8D1A8C19E4FFFE7D01A9
:10012E00FCAB1CAA1BA91AA819C3120D9C40037F75
:10013E00FF22C3E4951CF51CE4951BF51B74019579
:10014E001AF51AE49519F519AB14AA15A91690000B
:10015E0001120BEFFB6401702CC28E538EFE53897D
:10016E00BF5389CF438E40AF1CAE1BAD1AAC19786E
:10017E0008120DAD8F8D851C8BC2AB5389BF538F6B
:10018E00FDD28E8062EB64027026538EEF438E0199
:10019E00538EF7438E04AF1CAE1BAD1AAC19780804
:1001AE00120DAD8FD6851CD753AFFB438E10803703
:1001BE007FFF22AB14AA15A916120BD6FF7013904F
:1001CE000008120BEFB40105438E20801A538EDF08
:1001DE008015EFB48011900008120BEFB4010543A7
:1001EE008780800353877FAB14AA15A9169000074A
:1001FE00120BEF7004C29C8002D29C7F0022E5138A
:10020E0064026003020305F522F523F524F525F5B6
:10021E0026F517F51874E02518F58274013517F5D3
:10022E0083E4F00518E51870020517648045177011
:10023E00E4E4F517F51874802518F5827400351767
:10024E00F583E4F00518E51870020517648045176C
:10025E0070E4AB14AA15A916120BD6FF64C0600584
:10026E00EF64407075EFB4C005439A808003539AD3
:10027E007F900002120DC07F807E8D7D5B7C001210
:10028E000D0A8F1C8E1B8D1A8C19E4FFFE7D01FC4E
:10029E00AB1CAA1BA91AA819C3120D9C40037FFF01
:1002AE0022C3E4951CF51CE4951BF51B7401951AED
:1002BE00F51AE49519F519538EEF538EF7438E0404
:1002CE00AF1CAE1BAD1AAC197808120DAD8FD685CA
:1002DE001CD753AFFB438E1080037FFF22AB14AAB3
:1002EE0015A916900007120BEFC454F0FFE59A54AF
:1002FE00EF4FF59A7F0022E5136403600302043981
:10030E00F527F528F529F52AF52BF517F51874605C
:10031E002518F58274023517F583E4F00518E518F3
:10032E00700205176440451770E4E4F517F518746C
:10033E00002518F58274013517F583E4F00518E5EC
:10034E0018700205176440451770E4AB14AA15A97E
:10035E0016120BD6FF64C06008EF644060030204FF
:10036E001CEFB4C00543AC80800353AC7F900002F9
:10037E00120DC07F807E8D7D5B7C00120D0A8F1C5E
:10038E008E1B8D1A8C19E4FFFE7D01FCAB1CAA1B83
:10039E00A91AA819C3120D9C40037FFF22C3E4952E
:1003AE001CF51CE4951BF51B7401951AF51AE495C2
:1003BE0019F519AB14AA15A916900001120BEFFB33
:1003CE00B4031D43AC40AF1CAE1BAD1AAC1978087C
:1003DE00120DAD8FD4851CD553D1F043D10A803187
:1003EE00EB64027026538EEF53ACBF538EF7438EE1
:1003FE0004AF1CAE1BAD1AAC197808120DAD8FD61A
:10040E00851CD753AFFB438E1080067FFF227FFFE4
:10041E0022AB14AA15A916900007120BEFC454F0C4
:10042E00FFE5AC54EF4FF5AC7F0022E5136404609A
:10043E000302056DF52CF52DF52EF52FF530F5177C
:10044E00F51874A02518F58274023517F583E4F0BB
:10045E000518E518700205176420451770E4E4F5D9
:10046E0017F51874C02518F58274013517F583E455
:10047E00F00518E518700205176420451770E4ABF7
:10048E0014AA15A916120BD6FF64C06008EF6440BB
:10049E006003020550EFB4C005438480800353848B
:1004AE007F900002120DC07F807E8D7D5B7C0012DE
:1004BE000D0A8F1C8E1B8D1A8C19E4FFFE7D01FC1C
:1004CE00AB1CAA1BA91AA819C3120D9C40037FFFCF
:1004DE0022C3E4951CF51CE4951BF51B7401951ABB
:1004EE00F51AE49519F519AB14AA15A91690000181
:1004FE00120BEFFBB4041D438440AF1CAE1BAD1AB0
:10050E00AC197808120DAD8FD2851CD353D10F4381
:10051E00D1A08031EB64027026538EEF5384BF530B
:10052E008EF7438E04AF1CAE1BAD1AAC19780812B1
:10053E000DAD8FD6851CD753AFFB438E1080067F33
:10054E00FF227FFF22AB14AA15A916900007120BEB
:10055E00EFC454F0FFE58454EF4FF5847F00227F03
:01056E00FF8D
:01056F002269
:0A1626008F99751F01E51F70FC226B
:1015AD00120BD6FF600C121626740129F9E43AFAD3
:0315BD0080EE229B
:0A1630008F9B752401E52470FC2255
:1015C000120BD6FF600C121630740129F9E43AFAB6
:0315D00080EE2288
:0A163A008FAD752901E52970FC222F
:1015D300120BD6FF600C12163A740129F9E43AFA99
:0315E30080EE2275
:0A1644008F85752E01E52E70FC2243
:1015E600120BD6FF600C121644740129F9E43AFA7C
:0315F60080EE2262
:05001D00AE07021630E1
:0300230002129432
:10129400C0E0C083C082C0D075D000C007309820A1
:1012A400C298E520C394804003752000AF20052038
:1012B40074002FF582E43400F583E599F075210577
:1012C400309905C299751F00D007D0D0D082D08341
:0312D400D0E03235
:030043000210A206
:1010A200C0E0C083C082C0D075D000C007E59A30CE
:1010B200E021539AFEE525C394804003752500AFD5
:1010C20025052574802FF582E43400F583E59BF035
:1010D200752605E59A30E106539AFD752400D0077E
:0910E200D0D0D082D083D0E032DE
:03008B000210EB75
:1010EB00C0E0C083C082C0D075D000C007E5AC3073
:1010FB00E02153ACFEE52AC394404003752A00AFB0
:10110B002A052A74002FF582E43401F583E5ADF04E
:10111B00752B05E5AC30E10653ACFD752900D00706
:09112B00D0D0D082D083D0E03294
:0300930002113423
:10113400C0E0C083C082C0D075D000C007E5843051
:10114400E0215384FEE52FC394204003752F00AFA4
:101154002F052F74C02FF582E43401F583E585F063
:10116400753005E58430E1065384FD752E00D00703
:09117400D0D0D082D083D0E0324B
:0300000002161ACB
:0C161A00787FE4F6D8FD758140020FEDEA
:100BD600BB010689828A83E0225002E722BBFE021D
:090BE600E32289828A83E4932250
:100BEF00BB010CE58229F582E5833AF583E02250BB
:100BFF0006E92582F8E622BBFE06E92582F8E22205
:0D0C0F00E58229F582E5833AF583E493221E
:100C1C00BB010A89828A83E0F5F0A3E022500687A3
:100C2C00F009E71922BBFE07E3F5F009E319228965
:0B0C3C00828A83E493F5F07401932298
:100C4700BB0110E58229F582E5833AF583E0F5F0EB
:100C5700A3E0225009E92582F886F008E622BBFEC8
:100C67000AE92582F8E2F5F008E222E5832AF5830E
:080C7700E993F5F0A3E99322D3
:100C7F00E88FF0A4CC8BF0A42CFCE98EF0A42CFC14
:100C8F008AF0EDA42CFCEA8EF0A4CDA8F08BF0A492
:100C9F002DCC3825F0FDE98FF0A42CCD35F0FCEBF1
:100CAF008EF0A4FEA9F0EB8FF0A4CFC5F02ECD39B6
:0F0CBF00FEE43CFCEAA42DCE35F0FDE43CFC2223
:100CCE0075F008758200EF2FFFEE33FECD33CDCCDD
:100CDE0033CCC58233C5829BED9AEC99E582984060
:100CEE000CF582EE9BFEED9AFDEC99FC0FD5F0D63D
:100CFE00E4CEFBE4CDFAE4CCF9A88222B800C1B967
:100D0E000059BA002DEC8BF084CFCECDFCE5F0CBA4
:100D1E00F97818EF2FFFEE33FEED33FDEC33FCEBDD
:100D2E0033FB10D703994004EB99FB0FD8E5E4F998
:100D3E00FA227818EF2FFFEE33FEED33FDEC33FC85
:100D4E00C933C910D7059BE99A4007EC9BFCE99A79
:100D5E00F90FD8E0E4C9FAE4CCFB2275F010EF2FBE
:100D6E00FFEE33FEED33FDCC33CCC833C810D707BE
:100D7E009BEC9AE899400AED9BFDEC9AFCE899F8F9
:0E0D8E000FD5F0DAE4CDFBE4CCFAE4C8F9228C
:10125000C2D5E830E70FB2D5E4C39BFBE49AFAE4C9
:1012600099F9E498F8EC30E717B2D5121286120D0E
:101270000AE4C39BFBE49AFAE499F9E498F8800342
:10128000120D0A30D50DE4C39FFFE49EFEE49DFDE0
:04129000E49CFC22BC
:100D9C00EB9FF5F0EA9E42F0E99D42F0E89C45F0AD
:010DAC002224
:100DAD00E8600FECC313FCED13FDEE13FEEF13FF24
:030DBD00D8F12248
:100DC000BB010DE58229F582E5833AF583020DFD2D
:100DD0005007E92582F8020DF0BBFE07E92582F8ED
:100DE000020E09E58229F582E5833AF583020E16A3
:0D0DF000E6FB08E6F908E6FA08E6CBF82273
:0C0DFD00E0F8A3E0F9A3E0FAA3E0FB2279
:0D0E0900E2FB08E2F908E2FA08E2CBF82269
:100E1600E493F8740193F9740293FA740393FB2232
:00000001FF
