:1016F200726561640A006572723ACAB1BCE45B2524
:101702006475735DB2BBC2FAD7E3D6F7BBFACACD32
:10171200B7C5D7DCCFDFCAB1BCE45B25642C256436
:101722005D0A006572723ACAB1BCE45B25647573E6
:101732005D2CB2BBC2FAD7E325735B25642C25640A
:101742005D0A00CFECD3A6B5CDB5E7C6BDCAB1BC24
:10175200E400CFECD3A6B8DFB5E7C6BDCAB1BCE49E
:101762000044415441D0C5BAC5B5CDB5E7C6BDCADE
:10177200B1BCE400636E743A25640A00256420005B
:101782000A00636865636B206661696C7572652126
:101792000A00CAAAB6C8A3BA252E3166252520207A
:1017A200CEC2B6C8A3BA252E3166A1E60A00000051
:0317B20000000034
:101D8500752340E4F522FB7A0079227F0402149E34
:101C64007522407523017527007526C275250175F7
:101C74002400752901E4F52AFB7A0079227F0112F8
:0C1C840008487D017F01121BEF53A23FB6
:011C90002231
:04001D007F05DFFE7E
:0100210022BC
:0D1DA500000000000000000000000000220F
:10119100782C7C007D007BFF7A1779B07E007F057B
:1011A10012062EE4F531F5327BFF7A1679F2120D33
:1011B10084C2C67F14121D95D2C6E4F531F53230D2
:1011C100C618C3E5329428E5319400500D121DA5CF
:1011D1000532E53270E9053180E5C3E5329408E571
:1011E100319400400BD3E5329425E5319400401E43
:1011F1007BFF7A1679F88531368532377538007577
:101201003908753A00753B25120D847FFF22E4F5FC
:1012110031F53220C60D121DA50532E53270F405F7
:101221003180F0C3E532944EE5319400400BD3E5B3
:10123100329458E531940040248531368532377532
:1012410038FF753917753A45753B00753C4E753D4C
:1012510000753E587BFF7A177925120D84E4F5312C
:10126100F53230C60D121DA50532E53270F4053197
:1012710080F0C3E5329450E5319400400BD3E53260
:10128100945CE531940040248531368532377538D8
:10129100FF753917753A54753B00753C50753D0023
:1012A100753E5C7BFF7A177925120D84E4F52A756A
:1012B1002B07E4F531F53220C60D121DA50532E5E7
:1012C1003270F4053180F0C3E5329430E531940099
:1012D100400BD3E5329440E531940040248531360A
:1012E1008532377538FF753917753A63753B007567
:1012F1003C30753D00753E407BFF7A177925120D14
:1013010084E4F531F53230C60D121DA50532E53202
:1013110070F4053180F0C3E5329417E53194004053
:101321000BD3E532944AE53194004024853136856A
:1013310032377538FF753917753A63753B00753C5F
:1013410017753D00753E4A7BFF7A177925120D848A
:10135100D3E5329432E5319400401A742C252AF8F1
:10136100C000E6FFAE2BA8067401088002C333D883
:10137100FC4FD000F6152BC3E52B6480948040030D
:101381000212B3052AC3E52A648094855003021230
:10139100B0D2C67BFF7A177976853136853237121E
:1013A1000D84E4F52A7BFF7A17797E742C252AF8BF
:1013B100E6753600F537120D84052AC3E52A6480E7
:1013C100948540E17BFF7A177982120D84E52C2503
:1013D1002DFFE433FE7C00EF252EFFEC3EFEEF25D2
:1013E1002FFFEC3EFEEF65307001EE60097BFF7A66
:1013F100177984120D84AC2DE412029E7BCD7ACC38
:1014010079CC783D12018EC004C005C006C007AC7E
:101411002CE412029ED003D002D001D00012009D14
:101421008F258E248D238C22E52F547FFCE412021C
:101431009E7BCD7ACC79CC783D12018EC004C0055B
:10144100C006C007AC2EE412029ED003D002D00128
:10145100D00012009D8F298E288D278C26E52FC460
:1014610013131354016012E4FBFA798078BF12015F
:101471008E8F298E288D278C267BFF7A177994856C
:10148100253985243885233785223685293D8528C8
:0C1491003C85273B85263A120D847F0025
:01149D00222C
:03003F000211911A
:101C910043BA80121D85121C64D2AFE50CD39400A7
:101CA1004010D50C0DE50BD39400400312003FE426
:091CB100F50B7F0A121D9580E27B
:0F1D95007D607C09ED1D70011C144C70F7DFF1AF
:011DA400221C
:10149E00EFD3940740037FFF22120654FED394032A
:1014AE0040037FFF22EF7041EE700B900001120699
:1014BE006DF452935294120654B4010B9000011223
:1014CE00066D4293F45294120654FEB4020A900032
:1014DE000112066D42934294EEB4030D9000011278
:1014EE00066DFEF45293EE4294EF640170431206C1
:1014FE0054FE700B90000112066DF452915292EE52
:10150E00B4010B90000112066D4291F45292120634
:10151E0054B4020A90000112066D429142921206D4
:10152E0054B4030D90000112066DFEF45291EE427A
:10153E0092EF64027043120654FE700B900001127B
:10154E00066DF452955296EEB4010B900001120600
:10155E006D4295F45296120654B4020A900001128E
:10156E00066D42954296120654B4030D9000011278
:10157E00066DFEF45295EE4296EF6403704312062A
:10158E0054FE700B90000112066DF452B152B2EE81
:10159E00B4010B90000112066D42B1F452B2120664
:1015AE0054B4020A90000112066D42B142B2120604
:1015BE0054B4030D90000112066DFEF452B1EE42CA
:1015CE00B2EF64047043120654FE700B90000112C9
:1015DE00066DF452B352B4EEB4010B900001120634
:1015EE006D42B3F452B4120654B4020A90000112C2
:1015FE00066D42B342B4120654B4030D90000112AC
:10160E00066DFEF452B3EE42B4EF6405704312065B
:10161E0054FE700B90000112066DF452C952CAEEC0
:10162E00B4010B90000112066D42C9F452CA1206A3
:10163E0054B4020A90000112066D42C942CA120643
:10164E0054B4030D90000112066DFEF452C9EE4221
:10165E00CAEF64067043120654FE700B900001121E
:10166E00066DF452CB52CCEEB4010B900001120673
:10167E006D42CBF452CC120654B4020A9000011201
:10168E00066D42CB42CC120654B4030D90000112EB
:10169E00066DFEF452CBEE42CCEF64077043120699
:1016AE0054FF700B90000112066DF452E152E2EFFE
:1016BE00B4010B90000112066D42E1F452E21206E3
:1016CE0054B4020A90000112066D42E142E2120683
:1016DE0054B4030D90000112066DFFF452E1EF4277
:0416EE00E27F002275
:101AB900EFD3940140037FFF22EDD3940340037FCA
:101AC900FF22EF7004C2A98002D2A9ED700553B7B5
:101AD900FDC2B9BD010553B7FDD2B9BD020543B772
:0E1AE90002C2B9BD030543B702D2B97F002285
:101AF700EFD3940140037FFF22EDD3940340037F8C
:101B0700FF22EF7004C2AB8002D2ABED700553B772
:101B1700F7C2BBBD010553B7F7D2BBBD020543B73B
:0E1B270008C2BBBD030543B708D2BB7F002236
:101CDD00EFD3940140037FFF22EDD3940340037FA4
:101CED00FF22EF25E025E0FFE5AF54FB4FF5AFE414
:021CFD00FF22C4
:101CFF00EFD3940140037FFF22EDD3940340037F82
:101D0F00FF22EFC43354E0FFE5AF54DF4FF5AFE4EC
:021D1F00FF22A1
:101CBA00EFD3940140037FFF22EDD3940340037FC7
:101CCA00FF22EFC4333354C0FFE5AF54BF4FF5AF23
:031CDA00E4FF2202
:101B3500EFD3940140037FFF22EDD3940340037F4D
:101B4500FF22EF7004C2A88002D2A8ED700553B73A
:101B5500FEC2B8BD010553B7FED2B8BD020543B7F5
:0E1B650001C2B8BD030543B701D2B87F00220C
:101B7300EFD3940140037FFF22EDD3940340037F0F
:101B8300FF22EF7004C2AA8002D2AAED700553B7F8
:101B9300FBC2BABD010553B7FBD2BABD020543B7B9
:0E1BA30004C2BABD030543B704D2BA7F0022C4
:101D2100EFD3940140037FFF22EFC454F0FFE58F0E
:081D310054EF4FF58FE4FF228F
:10002600EFD3940140037FFF22EFC43354E0FFE592
:090036008F54DF4FF58FE4FF2227
:10000300EFD3940140037FFF22EFC4333354C0FF87
:0A001300E58F54BF4FF58FE4FF2284
:101BB100EFD3940140037FFF22EDD3940340037FD1
:101BC100FF22EF7004C2AD8002D2ADED700553B7B4
:101BD100DFC2BDBD010553B7DFD2BDBD020543B7AD
:0E1BE10020C2BDBD030543B720D2BD7F002248
:10196300EDD3940340037FFF22EF30E10543E620EC
:10197300800353E6DFEF30E00543E610800353E6D0
:10198300EFED700653B6DF53B5DFBD010653B6DF87
:1019930043B520BD020643B62053B5DFBD0306435E
:0819A300B62043B5207F0022AD
:10182F00EFD3940140037FFF22EBD3940340037F58
:10183F00FF22BF0112ED90FE817006E0547FF08011
:10184F0011E04480F0800BEF700890FE83E0548726
:10185F004DF0EB700653B6DF53B5DFBB010653B641
:10186F00DF43B520BB020643B62053B5DFBB0306EB
:09187F0043B62043B5207F00228E
:101BEF00EFD3940140037FFF22EDD3940340037F93
:101BFF00FF22EF7004C2AC8002D2ACED700553B778
:101C0F00EFC2BCBD010553B7EFD2BCBD020543B750
:0E1C1F0010C2BCBD030543B710D2BC7F00222B
:101A7900EFD3940140037FFF22EDD3940340037F0A
:101A8900FF22E5AF54FE4FF5AFED700653B6FE5396
:101A9900B5FEBD010653B6FE43B501BD020643B608
:101AA9000153B5FEBD030643B60143B5017F0022CC
:1019AB00EFD3940140037FFF22EDD3940340037FD9
:1019BB00FF22EF33333354F8FFE5AF54F74FF5AF56
:1019CB00ED700653EEFE53DFFEBD010653EEFE43F4
:1019DB00DF01BD020643EE0153DFFEBD030643EEFE
:0719EB000143DF017F002230
:10004600EFD3940140037FFF22EDD3940340037F57
:10005600FF22EFC454F0FFE5AF54EF4FF5AFED705C
:100066000653EEFD53DFFDBD010653EEFD43DF02F1
:10007600BD020643EE0253DFFDBD030643EE024317
:05008600DF027F0022F3
:1019F200EFD3940140037FFF22EDD3940340037F92
:101A0200FF22EF25E0FFE5AF54FD4FF5AFED700685
:101A120053B6FD53B5FDBD010653B6FD43B502BD38
:101A2200020643B60253B5FDBD030643B60243B5F3
:041A3200027F00220D
:1017B500EFD3948140037FFF22EBD3940340037F53
:1017C500FF22EF247F603004705890FEC4EDF0EBEB
:1017D500700653B6FB53B5FBBB010653B6FB43B5C9
:1017E50004BB020643B60453B5FBEB6403703843F0
:1017F500B60443B504803090FEE4EDF0EB7006537B
:10180500B6F753B5F7BB010653B6F743B508BB02A8
:101815000643B60853B5F7BB030D43B60843B508F1
:0A182500800590FEE4EDF07F002244
:101C2D00EDD394035026ED700653EEFB53DFFBBD51
:101C3D00010653EEFB43DF04BD020643EE0453DF02
:101C4D00FBBD030B43EE0443DF0480037FFF2290B3
:071C5D00FE62EFF07F0022A0
:080848008F2B8B2C8A2D892EC9
:10085000E52B640160030209BEF508F509F50AF508
:100860000BF50CF52FF53074402530F58274013509
:100870002FF583E4F00530E5307002052F648045E4
:100880002F70E4E4F52FF53074002530F582740004
:10089000352FF583E4F00530E5307002052F6480D4
:1008A000452F70E4AB2CAA2DA92E120654FFE59813
:1008B000543F4FF598EF64C06008EF644060030256
:1008C00009739000021207AC7F807E8D7D5B7C00F7
:1008D0001206E88F348E338D328C31E4FFFE7D01B9
:1008E000FCAB34AA33A932A831C312078840037F76
:1008F000FF22C3E49534F534E49533F53374019560
:1009000032F532E49531F531AB2CAA2DA92E9000A9
:100910000112066DFB6401702CC28E538EFE53894A
:10092000BF5389CF438E40AF34AE33AD32AC317854
:10093000081207998F8D85348BC2AB5389BF538FB3
:10094000FDD28E8062EB64027026538EEF438E01DF
:10095000538EF7438E04AF34AE33AD32AC317808EA
:100960001207998FD68534D753AFFB438E1080374B
:100970007FFF22AB2CAA2DA92E120654FF701390D4
:10098000000812066DB40105438E20801A538EDFD5
:100990008015EFB4801190000812066DB401054374
:1009A0008780800353877FAB2CAA2DA92E90000748
:1009B00012066D7004C29C8002D29C7F0022E52B3F
:1009C00064026003020AB7F50DF50EF50FF510F598
:1009D00011F52FF53074E02530F5827401352FF5CF
:1009E00083E4F00530E5307002052F6480452F70F8
:1009F000E4E4F52FF53074802530F5827400352F4E
:100A0000F583E4F00530E5307002052F6480452F52
:100A100070E4AB2CAA2DA92E120654FF64C0600509
:100A2000EF64407075EFB4C005439A808003539A19
:100A30007F9000021207AC7F807E8D7D5B7C001270
:100A400006E88F348E338D328C31E4FFFE7D01FC5D
:100A5000AB34AA33A932A831C312078840037FFF01
:100A600022C3E49534F534E49533F53374019532BB
:100A7000F532E49531F531538EEF538EF7438E0402
:100A8000AF34AE33AD32AC3178081207998FD685CA
:100A900034D753AFFB438E1080037FFF22AB2CAAC9
:100AA0002DA92E90000712066DC454F0FFE59A544C
:100AB000EF4FF59A7F0022E52B64036003020BEBF6
:100AC000F512F513F514F515F516F52FF5307460DC
:100AD0002530F5827402352FF583E4F00530E530DA
:100AE0007002052F6440452F70E4E4F52FF5307453
:100AF000002530F5827401352FF583E4F00530E5EB
:100B0000307002052F6440452F70E4AB2CAA2DA94C
:100B10002E120654FF64C06008EF64406003020BAD
:100B2000CEEFB4C00543AC80800353AC7F9000028D
:100B30001207AC7F807E8D7D5B7C001206E88F34CF
:100B40008E338D328C31E4FFFE7D01FCAB34AA3351
:100B5000A932A831C312078840037FFF22C3E4955E
:100B600034F534E49533F53374019532F532E49578
:100B700031F531AB2CAA2DA92E90000112066DFB88
:100B8000B4031D43AC40AF34AE33AD32AC31780862
:100B90001207998FD48534D553D1F043D10A8031CF
:100BA000EB64027026538EEF53ACBF538EF7438E27
:100BB00004AF34AE33AD32AC3178081207998FD61A
:100BC0008534D753AFFB438E1080067FFF227FFF13
:100BD00022AB2CAA2DA92E90000712066DC454F04A
:100BE000FFE5AC54EF4FF5AC7F0022E52B640460C9
:100BF00003020D1FF517F518F519F51AF51BF52F5A
:100C0000F53074A02530F5827402352FF583E4F0B9
:100C10000530E5307002052F6420452F70E4E4F5BF
:100C20002FF53074C02530F5827401352FF583E43B
:100C3000F00530E5307002052F6420452F70E4ABDD
:100C40002CAA2DA92E120654FF64C06008EF644040
:100C50006003020D02EFB4C0054384808003538417
:100C60007F9000021207AC7F807E8D7D5B7C00123E
:100C700006E88F348E338D328C31E4FFFE7D01FC2B
:100C8000AB34AA33A932A831C312078840037FFFCF
:100C900022C3E49534F534E49533F5337401953289
:100CA000F532E49531F531AB2CAA2DA92E90000137
:100CB00012066DFBB4041D438440AF34AE33AD3235
:100CC000AC3178081207998FD28534D353D10F43B2
:100CD000D1A08031EB64027026538EEF5384BF5352
:100CE0008EF7438E04AF34AE33AD32AC3178081298
:100CF00007998FD68534D753AFFB438E1080067F7C
:100D0000FF227FFF22AB2CAA2DA92E9000071206EE
:100D10006DC454F0FFE58454EF4FF5847F00227FCB
:010D2000FFD3
:010D210022AF
:0A1DBE008F99750A01E50A70FC22F6
:101D3900120654FF600C121DBE740129F9E43AFA27
:031D490080EE2207
:0A1DC8008F9B750F01E50F70FC22E0
:101D4C00120654FF600C121DC8740129F9E43AFA0A
:031D5C0080EE22F4
:0A1DD2008FAD751401E51470FC22BA
:101D5F00120654FF600C121DD2740129F9E43AFAED
:031D6F0080EE22E1
:0A1DDC008F85751901E51970FC22CE
:101D7200120654FF600C121DDC740129F9E43AFAD0
:031D820080EE22CE
:05008E00AE07021DBEDB
:03002300021A3688
:101A3600C0E0C083C082C0D075D000C007309820F7
:101A4600C298E50BC394804003750B00AF0B050BE2
:101A560074002FF582E43400F583E599F0750C05E2
:101A6600309905C299750A00D007D0D0D082D083AC
:031A7600D0E0328B
:0300430002188818
:10188800C0E0C083C082C0D075D000C007E59A30E0
:10189800E021539AFEE510C394804003751000AF11
:1018A80010051074802FF582E43400F583E59BF071
:1018B800751105E59A30E106539AFD750F00D007BA
:0918C800D0D0D082D083D0E032F0
:03008B000218D187
:1018D100C0E0C083C082C0D075D000C007E5AC3085
:1018E100E02153ACFEE515C394404003751500AFEC
:1018F10015051574002FF582E43401F583E5ADF08B
:10190100751605E5AC30E10653ACFD751400D00742
:09191100D0D0D082D083D0E032A6
:0300930002191A35
:10191A00C0E0C083C082C0D075D000C007E5843063
:10192A00E0215384FEE51AC394204003751A00AFE0
:10193A001A051A74C02FF582E43401F583E585F09F
:10194A00751B05E58430E1065384FD751900D0073F
:09195A00D0D0D082D083D0E0325D
:10009600020307E86480F8E933E83360110460F08E
:1000A600ED33EC337009E8FCE9FDEAFEEBFF2204D0
:1000B60060DED3EB9FEA9EE99DE8C2E78CF0C2F7CB
:1000C60095F0400CE8CCF8E9CDF9EACEFAEBCFFB97
:1000D6001202D285D0F05804700320D5B3E804701C
:1000E600075002B2D502031192D5EC0460F7E4CCB6
:1000F600C0E0C398F8603B94186008400DD0E0FB60
:100106000202E9E4FBFAC9FC8028E830E406E4C907
:10011600FBE4CAFCE830E305E4C9CACBFCE85407B3
:100126006010F8C3E913F9EA13FAEB13FBEC13FCBE
:10013600D8F130F52FC3E49CFCEF9BFFEE9AFEED61
:1001460099FDD0E0FBEF4E4D4C701222DB0302030B
:100156000EEC2CFCEF33FFEE33FEED33FDED30E716
:10016600EB0202E9EF2BFFEE3AFEED39FDD0E0FBA4
:1001760050130BBB0003020311ED13FDEE13FEEF4C
:0801860013FFEC13FC0202E977
:10018E00EC4D6011E8497017ED33EC3304600DE46B
:10019E00FCFFFEFD22E933E8330470F80203071278
:1001AE0002D258046009E4CC24815006285009027A
:1001BE00031128400302030EC0E0EB4A7044B980DD
:1001CE0006D0E0FB0202FDEF4E701CBD8008EBFF77
:1001DE00EAFEE9FD80EBE98DF0A4FEE5F002027780
:1001EE00E9CDF9EAFEEBFFEF89F0A4FCE5F0CE894C
:1001FE00F0A42EFFE435F0CD89F0A42DFEE435F009
:10020E008067EF4E7005BD80D780C3EF8BF0A4AC36
:10021E00F0EE8BF0A42CFCE435F0F8EF8AF0A42C71
:10022E00E5F038FCE433CB8DF0A42CFCE5F03BF884
:10023E00EE8AF0A42CFCE5F038F8E433CF89F0A474
:10024E002CFCE5F038CF3400CE89F0A42FFFE5F07A
:10025E003EFEE433C98DF0A42EFEE5F039CD8AF0D2
:10026E00A42FFFE5F03EFEE43DFD33D0E0FB50074A
:10027E000BBB000F020311EC2CFCEF33FFEE33FE31
:06028E00ED33FD0202E960
:1002940075F020800E75F010800575F0087D007EE5
:1002A400007F003392D530D50312077AEC33401027
:1002B400EF33FFEE33FEED33FDEC33FCD5F0ED22EE
:0E02C400E5F0247EA2D513CC92E7CDCEFF222A
:100D2200E54A2436F8E6054A227833300702783657
:100D3200E475F0011207DC0206542000EB7F2ED28C
:100D4200008018EF540F2490D43440D4FF30040BA9
:100D5200EF24BFB41A0050032461FFE54B60021573
:100D62004B054EE54E7002054D30070D7833E475A4
:100D7200F0011207DCEF02069A02008E7403D2071A
:100D82008003E4C207F54A8B338A348935E4F54B94
:100D9200F54DF54EE54B60077F20120D5D80F57530
:100DA2004CFFC201C200C202C203C205C206C2088F
:100DB200120D2BFF700D3007057F00120D6EAF4E26
:100DC200AE4D22B4255FC2D5C204120D2BFF24D032
:100DD200B40A00501A75F00A784B30D50508B6FFF0
:100DE2000106C6A426F620D5047002D20380D924B7
:100DF200CFB41A00EF5004C2E5D20402105BD20154
:100E020080C6D20080C0D20280BCD2D580BAD205C0
:100E120080B47F20120D5D2002077401B54B0040A3
:100E2200F1120D22FF120D5D020D96D208D206803C
:100E320095120D22FB120D22FA120D22F94A4B7065
:100E42000679527A117BFF20022EE54B602A7E0042
:100E52008E8275830012066D60060EEE654C70F090
:100E6200C2D5EBC0E0EAC0E0E9C0E0EE1210BBD0B0
:100E7200E0F9D0E0FAD0E0FB120654FF60AAEBC022
:100E8200E0EAC0E0E9C0E0120D5DD0E02401F9D053
:100E9200E03400FAD0E0FBE54C0460DCD54CD980AC
:100EA20087D20280A212109E60F7E54C70010412F4
:100EB200031CA94C600DE54C600914F54C12114558
:100EC200EF60F3EA30E702F404C3995077EAF425BD
:100ED2004C0430E701E404F54C800D12109E60C111
:100EE200EA054C254C12031CEA7849F630E701E486
:100EF200254C04D54C04200501141210BBE4C0E0BB
:100F02001211457849E6601320E70714F6120D45E1
:100F1200802204F6D0E014C0E07F00120D45E54CBB
:100F22006007120D3C154C800B300503120D3CD0AE
:100F3200E0020D96D0E00480C512109E60A0E54C40
:100F42000412031C7849EAF6E54C2005026001040C
:050F520024041210BB95
:100F570074FF04C0E0121145120D45E54C2005024F
:100F67006003120D3CD0E0B54CE87F45120D4F7879
:100F770049E67F2B30E7047F2DF404C0E0120D5DB6
:100F8700D0E075F00A84C0F0120D46D0E0120D468D
:100F9700020D96791080027908C206C2088008D22D
:100FA700D5790A8004790AC2D5E54C047002F54C5C
:100FB700E4FAFDFEFF120D22FC7B08200113120D3F
:100FC70022FD7B1030000A120D22FE120D22FF7B3C
:100FD70020EC3382D592D55013C3E43000069FFF2F
:100FE700E49EFEE42001039DFDE49CFCE4CBF8C2F3
:100FF70001EC700CCFCECDCCE824F8F870F3801755
:10100700C3EF33FFEE33FEED33FDEC33FCEB33FB85
:10101700994002FB0FD8E9EB300105F8D0E0C4484E
:10102700B201C0E00AEC4D4E4F78207B0070C2EA57
:10103700B54C0040BCC0E01210BDD0F0D0E020019C
:1010470004C4C0E0C4B201C0F0120D46D0F0D5F020
:10105700EB020D961207EC0E33530F9A580E044C01
:101067000E00420F9E4F0FA6440FA6490E19430FBD
:10107700AC550EDD460F3B450EA7471172500E08C3
:101087002D0E0C2E0E2F2B0E10230E2D20115B2A4A
:101097000DC84800000E27E54CB4FF03754C061237
:1010A7000D22FC120D22FD120D22FE120D22FF78D9
:1010B7004202034B790AA2D5200314300509B9105F
:1010C700020404B9080104A2D52006025001042035
:1010D70002689202B54B005034C0E07F20300319FC
:1010E7007F30A20272067205500F121114C202C29B
:1010F70006C205C2087F30800F300503E9C0E01241
:101107000D5D300503D0E0F9D0E0B54BCC300517C5
:101117007F30B9100C120D5D7F583004077F78803F
:1011270003B90803120D5D3002057F2D020D5D7FA7
:10113700202008F87F2B2006F322920280CF7F0021
:10114700B4070050052442F8E6FF22286E756C6C40
:101157002900D201120D223001F8C201784B30D597
:101167000108F6020DC82D50434958120D222403D9
:10117700B405004001E490116D93120D4E743A12BC
:0A1187000D4ED203754B04020F9ABF
:1002D200E9D2E7C933E833F892D5EDD2E7CD33EC72
:0702E20033FC5002B2D522EB
:1002E900EC30E7100FBF000C0EBE00080DBD000476
:1002F9000BEB6014A2D5EB13FCED92E7FD2274FF22
:10030900FCFDFEFF22E480F8A2D574FF13FC7D807A
:03031900E480EF8E
:10031C00F920E72824F950037907E4F42402FB18A8
:10032C00DBFDE624FB5014E9600DE4F618E604F658
:0F033C00B40A08E4F6D9F57401F60A22C2D522F4
:10034B00ED33EC3392D5FA602AB4FF33EDC2E77B81
:10035B00FF60067A037970E4227A03797920D50459
:10036B007A037974224E614E002B494E46002D497B
:10037B004E4600E47A08F608DAFC7B00740722E8A4
:10038B00C0E0ECC0E0EDC0E0EEC0E0EFC0E0EA752D
:10039B00F010A4CAABF075F04DA42BFBE435F0FCC8
:1003AB00EA2410FAEB34C5FBEC34D9FCEDC2E7FFC1
:1003BB0075F056A4F42411C5F0F434C58FF0A42ABB
:1003CB00E5F03BE43CF620E71412051ED0E0FFD02D
:1003DB00E0FED0E0FDD0E0FC1204518014F40412D6
:1003EB00051ED0E0FFD0E0FED0E0FDD0E0FC120116
:1003FB008ED0E0F8E6FAEDD2E7CD33EC332482FB76
:10040B00E4C3CF33CFCE33CECD33CD33DBF37B074A
:10041B0075F00A846004F6081B0AE5F0F6088FF005
:10042B00740AA4FFACF08EF0740AA42CFEACF0504E
:10043B00010C8DF0740AA42CFDE435F0F608DBDE1C
:03044B0074072211
:10044E00020311EC5D046005E85904700302030712
:10045E001202D2580460F6EC4860F2EC7004FDFE15
:10046E00FF22C860DB2481C85009C3986002500681
:10047E0002030E9850CAF582E9294B4A7005AB82E9
:10048E000202FD75F0007C1A7880C3EF9BEE9AEDA8
:10049E0099400DC3EF9BFFEE9AFEED99FDE842F0F9
:1004AE00DC23ACF0D0E0FFD0E0FED0E0FDAB82204C
:1004BE00E7101BEB60BAEC2CFCEF33FFEE33FEEDD6
:1004CE0033FD0202E9E803F830E705C0F075F000ED
:1004DE00EF2FFFEE33FEED33FD40B830E7C280AABA
:1004EE003F8000004120000042C80000447A000016
:1004FE00461C400047C35000497424004B18968098
:10050E004CBEBC205A0E1BCA6753C21C749DC5AE8E
:10051E00FB60065407601C232312054CEB54386015
:10052E000912053812054712018EECF8EDF9EEFAB4
:10053E00EFCB22EB12054780F1543803241C9004B4
:10054E00EEFE93FC0EEE93FD0EEE930ECE93FF2277
:03000000021DB22C
:0C1DB200787FE4F6D8FD75814E021C918C
:10055E00E709F608DFFA8046E709F208DFFA803E7F
:10056E0088828C83E709F0A3DFFA8032E309F6086C
:10057E00DFFA8078E309F208DFFA807088828C83D4
:10058E00E309F0A3DFFA806489828A83E0A3F60888
:10059E00DFFA805889828A83E0A3F208DFFA804C62
:1005AE0080D280FA80C680D4806980F28033801039
:1005BE0080A680EA809A80A880DA80E280CA8033A2
:1005CE0089828A83ECFAE493A3C8C582C8CCC5831A
:1005DE00CCF0A3C8C582C8CCC583CCDFE9DEE780EA
:1005EE000D89828A83E493A3F608DFF9ECFAA9F069
:1005FE00EDFB2289828A83ECFAE0A3C8C582C8CCBF
:10060E00C583CCF0A3C8C582C8CCC583CCDFEADED7
:10061E00E880DB89828A83E493A3F208DFF980CC39
:10062E0088F0EF60010E4E60C388F0ED2402B40432
:10063E000050B9F582EB2402B4040050AF232345D9
:06064E0082239005AE734B
:10065400BB010689828A83E0225002E722BBFE02A4
:09066400E32289828A83E49322D7
:10066D00BB010CE58229F582E5833AF583E0225042
:10067D0006E92582F8E622BBFE06E92582F8E2228C
:0D068D00E58229F582E5833AF583E49322A6
:10069A00BB010689828A83F0225002F722BBFE013F
:0206AA00F32239
:1006AC0075F008758200EF2FFFEE33FECD33CDCC05
:1006BC0033CCC58233C5829BED9AEC99E582984088
:1006CC000CF582EE9BFEED9AFDEC99FC0FD5F0D665
:1006DC00E4CEFBE4CDFAE4CCF9A88222B800C1B98F
:1006EC000059BA002DEC8BF084CFCECDFCE5F0CBCD
:1006FC00F97818EF2FFFEE33FEED33FDEC33FCEB06
:10070C0033FB10D703994004EB99FB0FD8E5E4F9C0
:10071C00FA227818EF2FFFEE33FEED33FDEC33FCAD
:10072C00C933C910D7059BE99A4007EC9BFCE99AA1
:10073C00F90FD8E0E4C9FAE4CCFB2275F010EF2FE6
:10074C00FFEE33FEED33FDCC33CCC833C810D707E6
:10075C009BEC9AE899400AED9BFDEC9AFCE899F821
:0E076C000FD5F0DAE4CDFBE4CCFAE4C8F922B4
:0E077A00C3E49FFFE49EFEE49DFDE49CFC2290
:10078800EB9FF5F0EA9E42F0E99D42F0E89C45F0C7
:01079800223E
:10079900E8600FECC313FCED13FDEE13FEEF13FF3E
:0307A900D8F12262
:1007AC00BB010DE58229F582E5833AF58302081F2A
:1007BC005007E92582F8020812BBFE07E92582F8EA
:1007CC0002082BE58229F582E5833AF58302083885
:1007DC00FAE6FB0808E6F925F0F618E6CA3AF6221E
:1007EC00D083D082F8E4937012740193700DA3A39C
:1007FC0093F8740193F5828883E4737402936860B0
:06080C00EFA3A3A380DFAF
:0D081200E6FB08E6F908E6FA08E6CBF82256
:0C081F00E0F8A3E0F9A3E0FAA3E0FB225C
:0D082B00E2FB08E2F908E2FA08E2CBF8224D
:10083800E493F8740193F9740293FA740393FB2216
:00000001FF
