:1012820025303264CAB13A25303264B7D63A2530B5
:101292003264C3EB0A00253032642F253032642FCA
:1012A200253032640A007765656B3A25640A002DA1
:1012B2002D2D2D2D2D2D2D2D2D2D2D2D2D2D2D2D5C
:1012C2002D2D2D2D2D2D2D2D2D2D2D00000000002D
:0312D20000000019
:10180C0075350C7534027B007A0079347F03020C39
:01181C002D9E
:10171C00753601753501E4F53775340DFB7A0079B2
:10172C0034121133E4FBFD7F01121229E5BA54CFB8
:04173C004430F5BA86
:011740002286
:100096007534407535017539007538C27537017587
:1000A6003600753B01E4F53CFB7A0079347F01129A
:0C00B60000C67D017F0112163C53A23FE2
:0100C200221B
:100E81007522A275230278247C007D007BFF7A12F3
:100E910079CE7E007F071209CC43BA8012180C125A
:100EA100009612171CD2AF752B37752C3B752D1779
:100EB100752E1F752F0675300C7532077533E8E5F1
:100EC1002B75F00A84C454F0FFE52B75F00A84E514
:100ED100F04FF524E52C75F00A84C454F0FFE52C9D
:100EE10075F00A84E5F04FF525E52D75F00A84C407
:100EF10054F0FFE52D75F00A84E5F04FF526E52E57
:100F010075F00A84C454F0FFE52E75F00A84E5F00B
:100F11004FF527852F28C3E5339434E532940840F3
:100F2100047F0180027F008F31E53075F00A84C4AF
:100F310054F0FFE531C433333354804FFFE530754E
:100F4100F00A84E5F04FF529AE32AF337C007D64C1
:100F5100120A4A7E007F0ACFCDCFCECCCE120A4AEA
:100F6100EFC454F0FBAE32AF337C007D0A120A4A63
:100F7100EB4DF52A7B007A007924753907AD23AF53
:100F8100221216EB7B007A007924753907AD23AF65
:100F91002212167AE524C4540775F00AA4FFE52449
:100FA100540F2FF52BE525C4540775F00AA4FFE56E
:100FB10025540F2FF52CE526C4540375F00AA4FF20
:100FC100E526540F2FF52DE527C4540375F00AA427
:100FD100FFE527540F2FF52EE5285407F52FE529B6
:100FE100C4540175F00AA4FFE529540F2FF530E52B
:100FF10029C41313135401F531E52AC4540F75F0B4
:101001000AA4FFAEF0E52A540F7C002FF533EC3E25
:10101100F532E53170067E077FD080047E087F348B
:10102100EF2533F533EE3532F5327BFF7A127982D3
:10103100753700852D38753900852C3A753B00854B
:101041002B3C1206027BFF7A127998853237853361
:101051003875390085303A753B00852E3C12060201
:101061007BFF7A1279A8753700852F381206027B2B
:10107100FF7A1279B11206027FFA12181D7FFA1255
:0F108100181D7FFA12181D7FFA12181D020F8515
:0F181D007D607C09ED1D70011C144C70F7DFF12C
:01182C002299
:100C2D00EFD3940740037FFF221209F2FED3940302
:100C3D0040037FFF22EF7041EE700B900001120A0E
:100C4D000BF4529352941209F2B4010B900001125D
:100C5D000A0B4293F452941209F2FEB4020A900068
:100C6D0001120A0B42934294EEB4030D900001124F
:100C7D000A0BFEF45293EE4294EF64017043120995
:100C8D00F2FE700B900001120A0BF452915292EE8B
:100C9D00B4010B900001120A0B4291F45292120909
:100CAD00F2B4020A900001120A0B4291429212090B
:100CBD00F2B4030D900001120A0BFEF45291EE42B4
:100CCD0092EF640270431209F2FE700B9000011254
:100CDD000A0BF452955296EEB4010B900001120AD4
:100CED000B4295F452961209F2B4020A90000112C9
:100CFD000A0B429542961209F2B4030D90000112AF
:100D0D000A0BFEF45295EE4296EF640370431209FE
:100D1D00F2FE700B900001120A0BF452B152B2EEBA
:100D2D00B4010B900001120A0B42B1F452B2120938
:100D3D00F2B4020A900001120A0B42B142B212093A
:100D4D00F2B4030D900001120A0BFEF452B1EE4203
:100D5D00B2EF640470431209F2FE700B90000112A1
:100D6D000A0BF452B352B4EEB4010B900001120A07
:100D7D000B42B3F452B41209F2B4020A90000112FC
:100D8D000A0B42B342B41209F2B4030D90000112E2
:100D9D000A0BFEF452B3EE42B4EF64057043120930
:100DAD00F2FE700B900001120A0BF452C952CAEEFA
:100DBD00B4010B900001120A0B42C9F452CA120978
:100DCD00F2B4020A900001120A0B42C942CA12097A
:100DDD00F2B4030D900001120A0BFEF452C9EE425B
:100DED00CAEF640670431209F2FE700B90000112F7
:100DFD000A0BF452CB52CCEEB4010B900001120A47
:100E0D000B42CBF452CC1209F2B4020A900001123B
:100E1D000A0B42CB42CC1209F2B4030D9000011221
:100E2D000A0BFEF452CBEE42CCEF6407704312096D
:100E3D00F2FF700B900001120A0BF452E152E2EF37
:100E4D00B4010B900001120A0B42E1F452E21209B7
:100E5D00F2B4020A900001120A0B42E142E21209B9
:100E6D00F2B4030D900001120A0BFFF452E1EF42B0
:040E7D00E27F0022EE
:10113300900002120A0B6401702A90FE80E0444082
:10114300F090FE82E4F01209F2543FFF90FE80E03B
:1011530054C04FF0900003120A0B90FE88B40102B2
:101163008031802990FE80E054BFF090FE84E4F04B
:10117300900004120A0B25E0FF90FE85E054014F16
:10118300F0900005120A0B90FE85B40106E054FEB0
:10119300F08004E04401F0900001120A0B90FE80FD
:0C11A3007005E0547FF022E04480F02250
:0818D50090FE82E05480FF2226
:0C18830090FE82E030E6F9E054BFF02255
:0918C30090FE817401F00218830B
:0E185A0090FE86EFF090FE817402F00218837B
:06182D001218C312185A44
:0918330090FE817403F002188399
:0F183C0090FE817404F012188390FE87E0FF2263
:0E18680090FE82E4F090FE817405F002188379
:0F184B0090FE827401F090FE817405F002188304
:0918CC0090FE817406F0021883FD
:0D18760090FE86EDF090FE81EFF0021883E9
:1016EB008B368A378938AE0512182DAF0612185A69
:1016FB00121833AB360538E538AA377002053714A4
:10170B00F91209F2FF12185A121833D539E50218DB
:01171B00CC01
:10167A00AE0712182DAF0512185A1218331218C3D2
:10168A00EE4401FF12185A12183312183CEF120ACC
:10169A0038740129F9E43AFAE53964016003121849
:0A16AA0068D539E612184B0218CC7F
:0300C30002109098
:10109000C0E0C083C082C0D075D000C006C0079039
:1010A000FE84E030E606E054BFF0807A90FE84E0F3
:1010B00030E535E054DFF0E51D6005751D00806604
:1010C000E51C600D751C0090FE87E0F51E24C080B5
:1010D0003490FE87E0FFAE1E051E74C02EF582E43C
:1010E0003402F583EFF0803E90FE84E030E424E0AB
:1010F00054EFF0E030E10890FE8674FFF0802705A1
:101100001E74C0251EF582E43402F583E090FE864D
:10111000F0801390FE84E030E30CE054F7F0751D8E
:1011200001751C01D209D007D006D0D0D082D0835F
:03113000D0E032DA
:10150600EFD3940140037FFF22EDD3940340037F82
:10151600FF22EF7004C2A98002D2A9ED700553B76D
:10152600FDC2B9BD010553B7FDD2B9BD020543B72A
:0E15360002C2B9BD030543B702D2B97F00223D
:10154400EFD3940140037FFF22EDD3940340037F44
:10155400FF22EF7004C2AB8002D2ABED700553B72B
:10156400F7C2BBBD010553B7F7D2BBBD020543B7F4
:0E15740008C2BBBD030543B708D2BB7F0022EF
:10176400EFD3940140037FFF22EDD3940340037F22
:10177400FF22EF25E025E0FFE5AF54FB4FF5AFE492
:02178400FF2242
:10178600EFD3940140037FFF22EDD3940340037F00
:10179600FF22EFC43354E0FFE5AF54DF4FF5AFE46B
:0217A600FF2220
:10174100EFD3940140037FFF22EDD3940340037F45
:10175100FF22EFC4333354C0FFE5AF54BF4FF5AFA1
:03176100E4FF2280
:10158200EFD3940140037FFF22EDD3940340037F06
:10159200FF22EF7004C2A88002D2A8ED700553B7F3
:1015A200FEC2B8BD010553B7FED2B8BD020543B7AE
:0E15B20001C2B8BD030543B701D2B87F0022C5
:1015C000EFD3940140037FFF22EDD3940340037FC8
:1015D000FF22EF7004C2AA8002D2AAED700553B7B1
:1015E000FBC2BABD010553B7FBD2BABD020543B772
:0E15F00004C2BABD030543B704D2BA7F00227D
:1017A800EFD3940140037FFF22EFC454F0FFE58F8D
:0817B80054EF4FF58FE4FF220E
:10002600EFD3940140037FFF22EFC43354E0FFE592
:090036008F54DF4FF58FE4FF2227
:10000300EFD3940140037FFF22EFC4333354C0FF87
:0A001300E58F54BF4FF58FE4FF2284
:1015FE00EFD3940140037FFF22EDD3940340037F8A
:10160E00FF22EF7004C2AD8002D2ADED700553B76C
:10161E00DFC2BDBD010553B7DFD2BDBD020543B765
:0E162E0020C2BDBD030543B720D2BD7F002200
:1013B000EDD3940340037FFF22EF30E10543E620A5
:1013C000800353E6DFEF30E00543E610800353E689
:1013D000EFED700653B6DF53B5DFBD010653B6DF40
:1013E00043B520BD020643B62053B5DFBD03064317
:0813F000B62043B5207F002266
:10122900EFD3940140037FFF22EBD3940340037F64
:10123900FF22BF0112ED90FE817006E0547FF0801D
:1012490011E04480F0800BEF700890FE83E0548732
:101259004DF0EB700653B6DF53B5DFBB010653B64D
:10126900DF43B520BB020643B62053B5DFBB0306F7
:0912790043B62043B5207F00229A
:10163C00EFD3940140037FFF22EDD3940340037F4B
:10164C00FF22EF7004C2AC8002D2ACED700553B730
:10165C00EFC2BCBD010553B7EFD2BCBD020543B709
:0E166C0010C2BCBD030543B710D2BC7F0022E4
:1014C600EFD3940140037FFF22EDD3940340037FC3
:1014D600FF22E5AF54FE4FF5AFED700653B6FE534F
:1014E600B5FEBD010653B6FE43B501BD020643B6C1
:1014F6000153B5FEBD030643B60143B5017F002285
:1013F800EFD3940140037FFF22EDD3940340037F92
:10140800FF22EF33333354F8FFE5AF54F74FF5AF0E
:10141800ED700653EEFE53DFFEBD010653EEFE43AC
:10142800DF01BD020643EE0153DFFEBD030643EEB6
:071438000143DF017F0022E8
:10004600EFD3940140037FFF22EDD3940340037F57
:10005600FF22EFC454F0FFE5AF54EF4FF5AFED705C
:100066000653EEFD53DFFDBD010653EEFD43DF02F1
:10007600BD020643EE0253DFFDBD030643EE024317
:05008600DF027F0022F3
:10143F00EFD3940140037FFF22EDD3940340037F4A
:10144F00FF22EF25E0FFE5AF54FD4FF5AFED70063E
:10145F0053B6FD53B5FDBD010653B6FD43B502BDF1
:10146F00020643B60253B5FDBD030643B60243B5AC
:04147F00027F0022C6
:1011AF00EFD3948140037FFF22EBD3940340037F5F
:1011BF00FF22EF247F603004705890FEC4EDF0EBF7
:1011CF00700653B6FB53B5FBBB010653B6FB43B5D5
:1011DF0004BB020643B60453B5FBEB6403703843FC
:1011EF00B60443B504803090FEE4EDF0EB70065387
:1011FF00B6F753B5F7BB010653B6F743B508BB02B5
:10120F000643B60853B5F7BB030D43B60843B508FD
:0A121F00800590FEE4EDF07F002250
:1016B400EDD394035026ED700653EEFB53DFFBBDD0
:1016C400010653EEFB43DF04BD020643EE0453DF81
:1016D400FBBD030B43EE0443DF0480037FFF229032
:0716E400FE62EFF07F00221F
:0800C6008F3D8B3E8A3F89400B
:1000CE00E53D6401600302023CF508F509F50AF509
:1000DE000BF50CF541F54274402542F5827401355D
:1000EE0041F583E4F00542E5427002054164804526
:1000FE004170E4E4F541F54274002542F582740046
:10010E003541F583E4F00542E54270020541648015
:10011E00454170E4AB3EAA3FA9401209F2FFE598B3
:10012E00543F4FF598EF64C06008EF6440600302DF
:10013E0001F1900002120B917F807E8D7D5B7C0021
:10014E00120ADB8F468E458D448C43E4FFFE7D0103
:10015E00FCAB46AA45A944A843C3120B6D40037FCE
:10016E00FF22C3E49546F546E49545F545740195A1
:10017E0044F544E49543F543AB3EAA3FA9409000B5
:10018E0001120A0BFB6401702CC28E538EFE538932
:10019E00BF5389CF438E40AF46AE45AD44AC437896
:1001AE0008120B7E8F8D85468BC2AB5389BF538F42
:1001BE00FDD28E8062EB64027026538EEF438E0169
:1001CE00538EF7438E04AF46AE45AD44AC4378082C
:1001DE00120B7E8FD68546D753AFFB438E108037DA
:1001EE007FFF22AB3EAA3FA9401209F2FF70139087
:1001FE000008120A0BB40105438E20801A538EDFBD
:10020E008015EFB48011900008120A0BB40105435B
:10021E008780800353877FAB3EAA3FA9409000079B
:10022E00120A0B7004C29C8002D29C7F0022E53D14
:10023E0064026003020335F50DF50EF50FF510F5AA
:10024E0011F541F54274E02542F58274013541F510
:10025E0083E4F00542E54270020541648045417039
:10026E00E4E4F541F54274802542F582740035418F
:10027E00F583E4F00542E542700205416480454194
:10028E0070E4AB3EAA3FA9401209F2FF64C06005BC
:10029E00EF64407075EFB4C005439A808003539AA3
:1002AE007F900002120B917F807E8D7D5B7C001211
:1002BE000ADB8F468E458D448C43E4FFFE7D01FCA8
:1002CE00AB46AA45A944A843C3120B6D40037FFF5A
:1002DE0022C3E49546F546E49545F54574019544EB
:1002EE00F544E49543F543538EEF538EF7438E0456
:1002FE00AF46AE45AD44AC437808120B7E8FD68523
:10030E0046D753AFFB438E1080037FFF22AB3EAA2E
:10031E003FA940900007120A0BC454F0FFE59A540F
:10032E00EF4FF59A7F0022E53D64036003020469F6
:10033E00F512F513F514F515F516F541F542746041
:10034E002542F58274023541F583E4F00542E5421B
:10035E00700205416440454170E4E4F541F5427494
:10036E00002542F58274013541F583E4F00542E53E
:10037E0042700205416440454170E4AB3EAA3FA97C
:10038E00401209F2FF64C06008EF6440600302048B
:10039E004CEFB4C00543AC80800353AC7F90000299
:1003AE00120B917F807E8D7D5B7C00120ADB8F4667
:1003BE008E458D448C43E4FFFE7D01FCAB46AA4581
:1003CE00A944A843C3120B6D40037FFF22C3E495DB
:1003DE0046F546E49545F54574019544F544E49596
:1003EE0043F543AB3EAA3FA940900001120A0BFB16
:1003FE00B4031D43AC40AF46AE45AD44AC437808A4
:10040E00120B7E8FD48546D553D1F043D10A80315D
:10041E00EB64027026538EEF53ACBF538EF7438EB0
:10042E0004AF46AE45AD44AC437808120B7E8FD672
:10043E008546D753AFFB438E1080067FFF227FFF8A
:10044E0022AB3EAA3FA940900007120A0BC454F0FB
:10045E00FFE5AC54EF4FF5AC7F0022E53D64046040
:10046E000302059DF517F518F519F51AF51BF5415B
:10047E00F54274A02542F58274023541F583E4F00D
:10048E000542E542700205416420454170E4E4F501
:10049E0041F54274C02542F58274013541F583E47D
:1004AE00F00542E542700205416420454170E4AB1F
:1004BE003EAA3FA9401209F2FF64C06008EF6440F3
:1004CE006003020580EFB4C005438480800353842B
:1004DE007F900002120B917F807E8D7D5B7C0012DF
:1004EE000ADB8F468E458D448C43E4FFFE7D01FC76
:1004FE00AB46AA45A944A843C3120B6D40037FFF28
:10050E0022C3E49546F546E49545F54574019544B8
:10051E00F544E49543F543AB3EAA3FA94090000154
:10052E00120A0BFBB4041D438440AF46AE45AD44E6
:10053E00AC437808120B7E8FD28546D353D10F432E
:10054E00D1A08031EB64027026538EEF5384BF53DB
:10055E008EF7438E04AF46AE45AD44AC43780812D9
:10056E000B7E8FD68546D753AFFB438E1080067F0A
:10057E00FF227FFF22AB3EAA3FA940900007120A3E
:10058E000BC454F0FFE58454EF4FF5847F00227FB7
:01059E00FF5D
:01059F002239
:0A189B008F99750A01E50A70FC221E
:1017C0001209F2FF600C12189B740129F9E43AFA2D
:0317D00080EE2286
:0A18A5008F9B750F01E50F70FC2208
:1017D3001209F2FF600C1218A5740129F9E43AFA10
:0317E30080EE2273
:0A18AF008FAD751401E51470FC22E2
:1017E6001209F2FF600C1218AF740129F9E43AFAF3
:0317F60080EE2260
:0A18B9008F85751901E51970FC22F6
:1017F9001209F2FF600C1218B9740129F9E43AFAD6
:0318090080EE224C
:05001D00AE0702189B74
:0300230002148341
:10148300C0E0C083C082C0D075D000C007309820B0
:10149300C298E50BC394804003750B00AF0B050B9B
:1014A30074002FF582E43400F583E599F0750C059B
:1014B300309905C299750A00D007D0D0D082D08365
:0314C300D0E03244
:030043000212D5D1
:1012D500C0E0C083C082C0D075D000C007E59A3099
:1012E500E021539AFEE510C394804003751000AFCA
:1012F50010051074802FF582E43400F583E59BF02A
:10130500751105E59A30E106539AFD750F00D00772
:09131500D0D0D082D083D0E032A8
:03008B0002131E3F
:10131E00C0E0C083C082C0D075D000C007E5AC303D
:10132E00E02153ACFEE515C394404003751500AFA4
:10133E0015051574002FF582E43401F583E5ADF043
:10134E00751605E5AC30E10653ACFD751400D007FB
:09135E00D0D0D082D083D0E0325F
:03009300021367EE
:10136700C0E0C083C082C0D075D000C007E584301C
:10137700E0215384FEE51AC394204003751A00AF99
:101387001A051A74C02FF582E43401F583E585F058
:10139700751B05E58430E1065384FD751900D007F8
:0913A700D0D0D082D083D0E03216
:0300000002188F54
:0C188F00787FE4F6D8FD758147020E81D9
:1008FC00E709F608DFFA8046E709F208DFFA803EDE
:10090C0088828C83E709F0A3DFFA8032E309F608CA
:10091C00DFFA8078E309F208DFFA807088828C8332
:10092C00E309F0A3DFFA806489828A83E0A3F608E6
:10093C00DFFA805889828A83E0A3F208DFFA804CC0
:10094C0080D280FA80C680D4806980F28033801097
:10095C0080A680EA809A80A880DA80E280CA803300
:10096C0089828A83ECFAE493A3C8C582C8CCC58378
:10097C00CCF0A3C8C582C8CCC583CCDFE9DEE78048
:10098C000D89828A83E493A3F608DFF9ECFAA9F0C7
:10099C00EDFB2289828A83ECFAE0A3C8C582C8CC1D
:1009AC00C583CCF0A3C8C582C8CCC583CCDFEADE36
:1009BC00E880DB89828A83E493A3F208DFF980CC98
:1009CC0088F0EF60010E4E60C388F0ED2402B40491
:1009DC000050B9F582EB2402B4040050AF23234538
:0609EC00822390094C7308
:1009F200BB010689828A83E0225002E722BBFE0203
:090A0200E32289828A83E4932235
:100A0B00BB010CE58229F582E5833AF583E02250A0
:100A1B0006E92582F8E622BBFE06E92582F8E222EA
:0D0A2B00E58229F582E5833AF583E4932204
:100A3800BB010689828A83F0225002F722BBFE019D
:020A4800F32297
:100A4A00BC000BBE0029EF8DF084FFADF022E4CC90
:100A5A00F875F008EF2FFFEE33FEEC33FCEE9DEC59
:100A6A00984005FCEE9DFE0FD5F0E9E4CEFD22ED9F
:100A7A00F8F5F0EE8420D21CFEADF075F008EF2FE9
:100A8A00FFED33FD4007985006D5F0F222C398FDDA
:050A9A000FD5F0EA2277
:100A9F0075F008758200EF2FFFEE33FECD33CDCC0E
:100AAF0033CCC58233C5829BED9AEC99E582984091
:100ABF000CF582EE9BFEED9AFDEC99FC0FD5F0D66E
:100ACF00E4CEFBE4CDFAE4CCF9A88222B800C1B998
:100ADF000059BA002DEC8BF084CFCECDFCE5F0CBD6
:100AEF00F97818EF2FFFEE33FEED33FDEC33FCEB0F
:100AFF0033FB10D703994004EB99FB0FD8E5E4F9CA
:100B0F00FA227818EF2FFFEE33FEED33FDEC33FCB6
:100B1F00C933C910D7059BE99A4007EC9BFCE99AAA
:100B2F00F90FD8E0E4C9FAE4CCFB2275F010EF2FEF
:100B3F00FFEE33FEED33FDCC33CCC833C810D707EF
:100B4F009BEC9AE899400AED9BFDEC9AFCE899F82A
:0E0B5F000FD5F0DAE4CDFBE4CCFAE4C8F922BD
:100B6D00EB9FF5F0EA9E42F0E99D42F0E89C45F0DE
:010B7D002255
:100B7E00E8600FECC313FCED13FDEE13FEEF13FF55
:030B8E00D8F12279
:100B9100BB010DE58229F582E5833AF583020BCE8F
:100BA1005007E92582F8020BC1BBFE07E92582F84F
:100BB100020BDAE58229F582E5833AF583020BE738
:1005A000E5432437F8E605432278343007027837EC
:1005B000E475F001120BF70209F22000EB7F2ED256
:1005C000008018EF540F2490D43440D4FF30040B33
:1005D000EF24BFB41A0050032461FFE54460021504
:1005E000440547E5477002054630070D7834E47549
:1005F000F001120BF7EF020A3802001D7403D20754
:100600008003E4C207F5438B348A358936E4F54428
:10061000F546F547E54460077F201205DB80F57558
:1006200045FFC201C200C202C203C205C206C2081F
:100630001205A9FF700D3007057F001205ECAF47CA
:10064000AE4622B4255FC2D5C2041205A9FF24D04C
:10065000B40A00501A75F00A784430D50508B6FF80
:100660000106C6A426F620D5047002D20380D92440
:10067000CFB41A00EF5004C2E5D2040207ECD20155
:1006800080C6D20080C0D20280BCD2D580BAD2054A
:1006900080B47F201205DB2002077401B5440040BE
:1006A000F11205A0FF1205DB020614D208D2068063
:1006B000951205A0FB1205A0FA1205A0F94A4B708D
:1006C0000679BD7A087BFF20022EE544602A7E0071
:1006D0008E82758300120A0B60060EEE654570F07F
:1006E000C2D5EBC0E0EAC0E0E9C0E0EE120833D0CA
:1006F000E0F9D0E0FAD0E0FB1209F2FF60AAEBC00B
:10070000E0EAC0E0E9C0E01205DBD0E02401F9D066
:10071000E03400FAD0E0FBE5450460DCD545D98043
:10072000877BFF7A08792FD202809C79108002792A
:1007300008C206C2088008D2D5790A8004790AC2A4
:10074000D5E545047002F545E4FAFDFEFF1205A06B
:10075000FC7B082001131205A0FD7B1030000A125B
:1007600005A0FE1205A0FF7B20EC3382D592D55068
:1007700013C3E43000069FFFE49EFEE42001039DC6
:10078000FDE49CFCE4CBF8C201EC700CCFCECDCCE8
:10079000E824F8F870F38017C3EF33FFEE33FEED73
:1007A00033FDEC33FCEB33FB994002FB0FD8E9EB54
:1007B000300105F8D0E0C448B201C0E00AEC4D4E6B
:1007C0004F78207B0070C2EAB5450040BCC0E01203
:1007D0000835D0F0D0E0200104C4C0E0C4B201C0AC
:1007E000F01205C4D0F0D5F0EB020614120C070687
:1007F000B153072B5806824C067E42072F4F07370E
:0F08000044073749069743073D5507214607210F
:10080F004507214708DD5006862D068A2E06AD2B9B
:10081F00068E2306AB2008C62A064648000006A50A
:10082F003F3F3F00790AA2D5200314300509B910C4
:10083F00020404B9080104A2D520060250010420C5
:10084F0002689202B544005034C0E07F2030031993
:10085F007F30A20272067205500F12088CC202C2BC
:10086F0006C205C2087F30800F300503E9C0E012D1
:10087F0005DB300503D0E0F9D0E0B544CC300517E7
:10088F007F30B9100C1205DB7F583004077F78805A
:10089F0003B908031205DB3002057F2D0205DB7F4C
:1008AF00202008F87F2B2006F322920280CF286E9B
:1008BF00756C6C2900D2011205A03001F8C20178C5
:1008CF004430D50108F60206462D5043495812050B
:1008DF00A02403B405004001E49008D8931205CC7E
:0D08EF00743A1205CCD20375440402072BA5
:0D0BC100E6FB08E6F908E6FA08E6CBF822A4
:0C0BCE00E0F8A3E0F9A3E0FAA3E0FB22AA
:0D0BDA00E2FB08E2F908E2FA08E2CBF8229B
:100BE700E493F8740193F9740293FA740393FB2264
:100BF700FAE6FB0808E6F925F0F618E6CA3AF622FF
:100C0700D083D082F8E4937012740193700DA3A37C
:100C170093F8740193F5828883E473740293686090
:060C2700EFA3A3A380DF90
:00000001FF
