:1011CE007527087526037B007A0079267F050207AE
:0111DE00E729
:10114900E4F526752701F5287529A2752A40752C1D
:1011590001FB7A007926FF120580E4FD7F01020F69
:011169005A2B
:0D000E0043A2801211CE121149D2AF80FE24
:0F11DF007D607C09ED1D70011C144C70F7DFF171
:0111EE0022DE
:1007E700EFD3940740037FFF22120A3BFED3940303
:1007F70040037FFF22EF7041EE700B900001120A59
:1008070054F452935294120A3BB4010B9000011214
:100817000A544293F45294120A3BFEB4020A90001F
:1008270001120A5442934294EEB4030D9000011250
:100837000A54FEF45293EE4294EF64017043120A95
:100847003BFE700B900001120A54F452915292EE43
:10085700B4010B900001120A544291F45292120A09
:100867003BB4020A900001120A5442914292120AC2
:100877003BB4030D900001120A54FEF45291EE426C
:1008870092EF64027043120A3BFE700B9000011254
:100897000A54F452955296EEB4010B900001120AD5
:1008A700544295F45296120A3BB4020A9000011280
:1008B7000A5442954296120A3BB4030D9000011266
:1008C7000A54FEF45295EE4296EF64037043120AFF
:1008D7003BFE700B900001120A54F452B152B2EE73
:1008E700B4010B900001120A5442B1F452B2120A39
:1008F7003BB4020A900001120A5442B142B2120AF2
:100907003BB4030D900001120A54FEF452B1EE42BB
:10091700B2EF64047043120A3BFE700B90000112A1
:100927000A54F452B352B4EEB4010B900001120A08
:100937005442B3F452B4120A3BB4020A90000112B3
:100947000A5442B342B4120A3BB4030D9000011299
:100957000A54FEF452B3EE42B4EF64057043120A30
:100967003BFE700B900001120A54F452C952CAEEB2
:10097700B4010B900001120A5442C9F452CA120A78
:100987003BB4020A900001120A5442C942CA120A31
:100997003BB4030D900001120A54FEF452C9EE4213
:1009A700CAEF64067043120A3BFE700B90000112F7
:1009B7000A54F452CB52CCEEB4010B900001120A48
:1009C7005442CBF452CC120A3BB4020A90000112F3
:1009D7000A5442CB42CC120A3BB4030D90000112D9
:1009E7000A54FEF452CBEE42CCEF64077043120A6E
:1009F7003BFF700B900001120A54F452E152E2EFF0
:100A0700B4010B900001120A5442E1F452E2120AB7
:100A17003BB4020A900001120A5442E142E2120A70
:100A27003BB4030D900001120A54FFF452E1EF4268
:040A3700E27F002238
:100F5A00EFD3940140037FFF22EDD3940340037F34
:100F6A00FF22EF7004C2A98002D2A9ED700553B71F
:100F7A00FDC2B9BD010553B7FDD2B9BD020543B7DC
:0E0F8A0002C2B9BD030543B702D2B97F0022EF
:100F9800EFD3940140037FFF22EDD3940340037FF6
:100FA800FF22EF7004C2AB8002D2ABED700553B7DD
:100FB800F7C2BBBD010553B7F7D2BBBD020543B7A6
:0E0FC80008C2BBBD030543B708D2BB7F0022A1
:10110500EFD3940140037FFF22EDD3940340037F87
:10111500FF22EF25E025E0FFE5AF54FB4FF5AFE4F7
:02112500FF22A7
:10112700EFD3940140037FFF22EDD3940340037F65
:10113700FF22EFC43354E0FFE5AF54DF4FF5AFE4D0
:02114700FF2285
:10006600EFD3940140037FFF22EDD3940340037F37
:10007600FF22EFC4333354C0FFE5AF54BF4FF5AF93
:03008600E4FF2272
:100FD600EFD3940140037FFF22EDD3940340037FB8
:100FE600FF22EF7004C2A88002D2A8ED700553B7A5
:100FF600FEC2B8BD010553B7FED2B8BD020543B760
:0E10060001C2B8BD030543B701D2B87F002276
:10101400EFD3940140037FFF22EDD3940340037F79
:10102400FF22EF7004C2AA8002D2AAED700553B762
:10103400FBC2BABD010553B7FBD2BABD020543B723
:0E10440004C2BABD030543B704D2BA7F00222E
:10116A00EFD3940140037FFF22EFC454F0FFE58FD1
:08117A0054EF4FF58FE4FF2252
:10004600EFD3940140037FFF22EFC43354E0FFE572
:090056008F54DF4FF58FE4FF2207
:10002600EFD3940140037FFF22EFC4333354C0FF64
:0A003600E58F54BF4FF58FE4FF2261
:10105200EFD3940140037FFF22EDD3940340037F3B
:10106200FF22EF7004C2AD8002D2ADED700553B71E
:10107200DFC2BDBD010553B7DFD2BDBD020543B717
:0E10820020C2BDBD030543B720D2BD7F0022B2
:100DBF00EDD3940340037FFF22EF30E10543E6209C
:100DCF00800353E6DFEF30E00543E610800353E680
:100DDF00EFED700653B6DF53B5DFBD010653B6DF37
:100DEF0043B520BD020643B62053B5DFBD0306430E
:080DFF00B62043B5207F00225D
:100C8B00EFD3940140037FFF22EBD3940340037F08
:100C9B00FF22BF0112ED90FE817006E0547FF080C1
:100CAB0011E04480F0800BEF700890FE83E05487D6
:100CBB004DF0EB700653B6DF53B5DFBB010653B6F1
:100CCB00DF43B520BB020643B62053B5DFBB03069B
:090CDB0043B62043B5207F00223E
:10109000EFD3940140037FFF22EDD3940340037FFD
:1010A000FF22EF7004C2AC8002D2ACED700553B7E2
:1010B000EFC2BCBD010553B7EFD2BCBD020543B7BB
:0E10C00010C2BCBD030543B710D2BC7F002296
:100F1A00EFD3940140037FFF22EDD3940340037F74
:100F2A00FF22E5AF54FE4FF5AFED700653B6FE5300
:100F3A00B5FEBD010653B6FE43B501BD020643B672
:100F4A000153B5FEBD030643B60143B5017F002236
:100E0700EFD3940140037FFF22EDD3940340037F88
:100E1700FF22EF33333354F8FFE5AF54F74FF5AF05
:100E2700ED700653EEFE53DFFEBD010653EEFE43A3
:100E3700DF01BD020643EE0153DFFEBD030643EEAD
:070E47000143DF017F0022DF
:100E4E00EFD3940140037FFF22EDD3940340037F41
:100E5E00FF22EFC454F0FFE5AF54EF4FF5AFED7046
:100E6E000653EEFD53DFFDBD010653EEFD43DF02DB
:100E7E00BD020643EE0253DFFDBD030643EE024301
:050E8E00DF027F0022DD
:100E9300EFD3940140037FFF22EDD3940340037FFC
:100EA300FF22EF25E0FFE5AF54FD4FF5AFED7006F0
:100EB30053B6FD53B5FDBD010653B6FD43B502BDA3
:100EC300020643B60253B5FDBD030643B60243B55E
:040ED300027F002278
:100C1100EFD3948140037FFF22EBD3940340037F02
:100C2100FF22EF247F603004705890FEC4EDF0EB9A
:100C3100700653B6FB53B5FBBB010653B6FB43B578
:100C410004BB020643B60453B5FBEB64037038439F
:100C5100B60443B504803090FEE4EDF0EB7006532A
:100C6100B6F753B5F7BB010653B6F743B508BB0258
:100C71000643B60853B5F7BB030D43B60843B508A1
:0A0C8100800590FEE4EDF07F0022F4
:1010CE00EDD394035026ED700653EEFB53DFFBBDBC
:1010DE00010653EEFB43DF04BD020643EE0453DF6D
:1010EE00FBBD030B43EE0443DF0480037FFF22901E
:0710FE00FE62EFF07F00220B
:10058000AD07ED7079C28C120A3BFED39403400391
:100590007FFF22E58954FC4EF589900001120A5430
:1005A000FED3940240037FFF22EE7006538E7F53EA
:1005B00089FB900001120A54B40106438E805389CE
:1005C000FB900001120A54B4020343890490000214
:1005D000120A54FFE58F54FE4FF58F900003120A64
:1005E00081E5F0F58C900003120A81F58A900006EF
:1005F000120A547004C28C8002D28C7F0022ED64F7
:10060000016003020686C28E120A3BFED3940340A9
:10061000037FFF22EEC454F0FFE58954CF4FF589E4
:10062000900001120A54FED3940240037FFF22EE91
:100630007006538EBF5389BF900001120A54B40153
:1006400006438E405389BF900001120A54B402033E
:10065000438940900002120A5425E0FFE58F54FDC3
:100660004FF58F900003120A81E5F0F58D9000039D
:10067000120A81F58B900006120A547004C28E8013
:1006800002D28E7F0022ED64027065538EEF9000DF
:1006900001120A54FF7006538EFB538EF7EFB4011C
:1006A00006438E04538EF7EFB40203438E08900086
:1006B00002120A5425E025E0FFE58F54FB4FF58F29
:1006C000900003120A81E5F0F5D6900003120A812A
:1006D000F5D7900005120A5490FEA2F09000061281
:1006E0000A54C454F0FFE58E54EF4FF58E7F00227C
:1006F000ED6403707253D1F7900001120A54FED3D7
:10070000940240037FFF22EE700653D1FD53D1FBCC
:10071000900001120A54B4010643D10253D1FB9058
:100720000001120A54B4020343D104900002120AD9
:1007300054FFE5D154FE4FF5D1900003120A81E534
:10074000F0F5D4900003120A81F5D5900005120A45
:100750005490FEA3F0900006120A5433333354F839
:10076000FFE5D154F78077ED6404707853D17F9022
:100770000001120A54FED3940240037FFF22EE7060
:100780000653D1DF53D1BF900001120A54B40106C1
:1007900043D12053D1BF900001120A54B402034345
:1007A000D140900002120A54C454F0FFE5D154EF36
:1007B0004FF5D1900003120A81FDACF0ECF5D2AFF9
:1007C000058FD3900005120A5490FEA4F090000605
:1007D000120A54C43333335480FFE5D1547F4FF5AC
:0707E000D17F00227FFF2200
:03000B00020008E8
:03000800B2EF3222
:03001B0002001EC2
:03001E00B2EE320D
:0300630002004058
:03004000B2ED32EC
:03009B0002005F01
:03005F00B2EC32CE
:0300A30002008ECA
:03008E00B2EB32A0
:0800A6008F1C8B1D8A1E891FAF
:1000AE00E51C6401600302021CF508F509F50AF56A
:1000BE000BF50CF520F52174402521F582740135E0
:1000CE0020F583E4F00521E52170020520648045CA
:1000DE002070E4E4F520F52174002521F5827400EA
:1000EE003520F583E4F00521E521700205206480BA
:1000FE00452070E4AB1DAA1EA91F120A3BFFE5980E
:10010E00543F4FF598EF64C06008EF6440600302FF
:10011E0001D1900002120BAB7F807E8D7D5B7C0047
:10012E00120AF58F258E248D238C22E4FFFE7D018D
:10013E00FCAB25AA24A923A822C3120B8740037F58
:10014E00FF22C3E49525F525E49524F52474019545
:10015E0023F523E49522F522AB1DAA1EA91F9000BC
:10016E0001120A54FB6401702CC28E538EFE538909
:10017E00BF5389CF438E40AF25AE24AD23AC22783A
:10018E0008120B988F8D85258BC2AB5389BF538F69
:10019E00FDD28E8062EB64027026538EEF438E0189
:1001AE00538EF7438E04AF25AE24AD23AC227808D0
:1001BE00120B988FD68525D753AFFB438E10803701
:1001CE007FFF22AB1DAA1EA91F120A3BFF701390C0
:1001DE000008120A54B40105438E20801A538EDF94
:1001EE008015EFB48011900008120A54B401054333
:1001FE008780800353877FAB1DAA1EA91F9000071F
:10020E00120A547004C29C8002D29C7F0022E51C0C
:10021E0064026003020315F50DF50EF50FF510F5EA
:10022E0011F520F52174E02521F58274013520F5B4
:10023E0083E4F00521E521700205206480452070DD
:10024E00E4E4F520F52174802521F5827400352033
:10025E00F583E4F00521E521700205206480452038
:10026E0070E4AB1DAA1EA91F120A3BFF64C06005F5
:10027E00EF64407075EFB4C005439A808003539AC3
:10028E007F900002120BAB7F807E8D7D5B7C001217
:10029E000AF58F258E248D238C22E4FFFE7D01FC32
:1002AE00AB25AA24A923A822C3120B8740037FFFE4
:1002BE0022C3E49525F525E49524F52474019523B0
:1002CE00F523E49522F522538EEF538EF7438E04D9
:1002DE00AF25AE24AD23AC227808120B988FD685AD
:1002EE0025D753AFFB438E1080037FFF22AB1DAA91
:1002FE001EA91F900007120A54C454F0FFE59A5429
:10030E00EF4FF59A7F0022E51C6403600302044957
:10031E00F512F513F514F515F516F520F5217460A3
:10032E002521F58274023520F583E4F00521E521BF
:10033E00700205206440452070E4E4F520F5217438
:10034E00002521F58274013520F583E4F00521E5C1
:10035E0021700205206440452070E4AB1DAA1EA941
:10036E001F120A3BFF64C06008EF64406003020482
:10037E002CEFB4C00543AC80800353AC7F900002D9
:10038E00120BAB7F807E8D7D5B7C00120AF58F2574
:10039E008E248D238C22E4FFFE7D01FCAB25AA2446
:1003AE00A923A822C3120B8740037FFF22C3E49523
:1003BE0025F525E49524F52474019523F523E4957C
:1003CE0022F522AB1DAA1EA91F900001120A54FB92
:1003DE00B4031D43AC40AF25AE24AD23AC22780848
:1003EE00120B988FD48525D553D1F043D10A803185
:1003FE00EB64027026538EEF53ACBF538EF7438ED1
:10040E0004AF25AE24AD23AC227808120B988FD6FC
:10041E008525D753AFFB438E1080067FFF227FFFCB
:10042E0022AB1DAA1EA91F900007120A54C454F035
:10043E00FFE5AC54EF4FF5AC7F0022E51C64046081
:10044E000302057DF517F518F519F51AF51BF520BC
:10045E00F52174A02521F58274023520F583E4F090
:10046E000521E521700205206420452070E4E4F5A5
:10047E0020F52174C02521F58274013520F583E421
:10048E00F00521E521700205206420452070E4ABC3
:10049E001DAA1EA91F120A3BFF64C06008EF64402C
:1004AE006003020560EFB4C005438480800353846B
:1004BE007F900002120BAB7F807E8D7D5B7C0012E5
:1004CE000AF58F258E248D238C22E4FFFE7D01FC00
:1004DE00AB25AA24A923A822C3120B8740037FFFB2
:1004EE0022C3E49525F525E49524F524740195237E
:1004FE00F523E49522F522AB1DAA1EA91F9000013B
:10050E00120A54FBB4041D438440AF25AE24AD2320
:10051E00AC227808120B988FD28525D353D10F4376
:10052E00D1A08031EB64027026538EEF5384BF53FB
:10053E008EF7438E04AF25AE24AD23AC227808127D
:10054E000B988FD68525D753AFFB438E1080067F31
:10055E00FF227FFF22AB1DAA1EA91F900007120AC1
:10056E0054C454F0FFE58454EF4FF5847F00227F8E
:01057E00FF7D
:01057F002259
:0A11FB008F99750A01E50A70FC22C5
:10118200120A3BFF600C1211FB740129F9E43AFACE
:0311920080EE22CA
:0A1205008F9B750F01E50F70FC22AE
:10119500120A3BFF600C121205740129F9E43AFAB0
:0311A50080EE22B7
:0A120F008FAD751401E51470FC2288
:1011A800120A3BFF600C12120F740129F9E43AFA93
:0311B80080EE22A4
:0A1219008F85751901E51970FC229C
:1011BB00120A3BFF600C121219740129F9E43AFA76
:0311CB0080EE2291
:05000300AE070212052A
:03002300020ED7F3
:100ED700C0E0C083C082C0D075D000C00730982062
:100EE700C298E50BC394804003750B00AF0B050B4D
:100EF70074002FF582E43400F583E599F0750C054D
:100F0700309905C299750A00D007D0D0D082D08316
:030F1700D0E032F5
:03004300020CE4C8
:100CE400C0E0C083C082C0D075D000C007E59A3090
:100CF400E021539AFEE510C394804003751000AFC1
:100D040010051074802FF582E43400F583E59BF020
:100D1400751105E59A30E106539AFD750F00D00769
:090D2400D0D0D082D083D0E0329F
:03008B00020D2D36
:100D2D00C0E0C083C082C0D075D000C007E5AC3034
:100D3D00E02153ACFEE515C394404003751500AF9B
:100D4D0015051574002FF582E43401F583E5ADF03A
:100D5D00751605E5AC30E10653ACFD751400D007F2
:090D6D00D0D0D082D083D0E03256
:03009300020D76E5
:100D7600C0E0C083C082C0D075D000C007E5843013
:100D8600E0215384FEE51AC394204003751A00AF90
:100D96001A051A74C02FF582E43401F583E585F04F
:100DA600751B05E58430E1065384FD751900D007EF
:090DB600D0D0D082D083D0E0320D
:030000000211EFFB
:0C11EF00787FE4F6D8FD75812C02000E1C
:100A3B00BB010689828A83E0225002E722BBFE02B9
:090A4B00E32289828A83E49322EC
:100A5400BB010CE58229F582E5833AF583E0225057
:100A640006E92582F8E622BBFE06E92582F8E222A1
:0D0A7400E58229F582E5833AF583E49322BB
:100A8100BB0110E58229F582E5833AF583E0F5F0B3
:100A9100A3E0225009E92582F886F008E622BBFE90
:100AA1000AE92582F8E2F5F008E222E5832AF583D6
:080AB100E993F5F0A3E993229B
:100AB90075F008758200EF2FFFEE33FECD33CDCCF4
:100AC90033CCC58233C5829BED9AEC99E582984077
:100AD9000CF582EE9BFEED9AFDEC99FC0FD5F0D654
:100AE900E4CEFBE4CDFAE4CCF9A88222B800C1B97E
:100AF9000059BA002DEC8BF084CFCECDFCE5F0CBBC
:100B0900F97818EF2FFFEE33FEED33FDEC33FCEBF4
:100B190033FB10D703994004EB99FB0FD8E5E4F9AF
:100B2900FA227818EF2FFFEE33FEED33FDEC33FC9C
:100B3900C933C910D7059BE99A4007EC9BFCE99A90
:100B4900F90FD8E0E4C9FAE4CCFB2275F010EF2FD5
:100B5900FFEE33FEED33FDCC33CCC833C810D707D5
:100B69009BEC9AE899400AED9BFDEC9AFCE899F810
:0E0B79000FD5F0DAE4CDFBE4CCFAE4C8F922A3
:100B8700EB9FF5F0EA9E42F0E99D42F0E89C45F0C4
:010B9700223B
:100B9800E8600FECC313FCED13FDEE13FEEF13FF3B
:030BA800D8F1225F
:100BAB00BB010DE58229F582E5833AF583020BE85B
:100BBB005007E92582F8020BDBBBFE07E92582F81B
:100BCB00020BF4E58229F582E5833AF583020C01E9
:0D0BDB00E6FB08E6F908E6FA08E6CBF8228A
:0C0BE800E0F8A3E0F9A3E0FAA3E0FB2290
:0D0BF400E2FB08E2F908E2FA08E2CBF82281
:100C0100E493F8740193F9740293FA740393FB2249
:00000001FF
